S01300005350492054657374696E672E7372656327
S1130000180B0020150100000D0200000D02000075
S113001000000000000000000000000000000000DC
S11300200000000000000000000000000D020000BD
S113003000000000000000000D0200000D0200009E
S11300400D0200000D0200000D0200000D02000070
S1130050290C00000D0200000D0200000D0200003A
S11300600D0200000D0200000D0200000D02000050
S11300700D02000000000000000000000D0200005E
S11300800D0200000D0200000D0200000D02000030
S11300900D02000000000000000000000D0200003E
S11300A00D0200000D0200000D0200000D02000010
S11300B00000000010B5064C2378002B07D1054B37
S11300C0002B02D0044800E000BF0123237010BDC0
S11300D074040020000000001C110000084B10B53F
S11300E0002B03D00749084800E000BF0748036815
S11300F0002B00D110BD064B002BFBD09847F9E72D
S113010000000000780400201C1100001C110000F5
S11301100000000080B582B000AF2F4B7B602F4BF6
S11301203B607A683B689A420CD007E03B681A1D32
S11301303A607A68111D796012681A603A68284B2F
S11301409A42F3D3274B3B6004E03B681A1D3A60A4
S113015000221A603A68244B9A42F6D3234B7B6000
S1130160234B7A68FF218A439A60224A90235B00DA
S11301700221D150204AD37803218B43191C022336
S11301800B43D3701C4AD3780C218B43191C0823CE
S11301900B43D370194A937B30218B43191C2023C2
S11301A00B439373154A937B0C218B43191C08232F
S11301B00B439373114A937B03218B43191C022332
S11301C00B4393730E4A536880210B4353600D4BCA
S11301D098470D4B9847FEE71C11000000000020D3
S11301E0740400207404002018070020000000009C
S11301F000ED00E000700041005000410048004163
S113020000400041550F0000090D000080B500AF0B
S1130210FEE7000080B582B000AF0200FB1D1A703B
S1130220FB1D1B787F2B09D8064BFA1D1278110091
S11302301F220A40012191400A001A60C046BD46AF
S113024002B080BD00E100E0B0B582B000AF0200B2
S11302503960FB1D1A70FB1D1B787F2B28D82F4C8F
S1130260FB1D1B785BB29B082C49FA1D127852B215
S11302709208C03292005258F91D097808000321EF
S11302800140C900FF2088400100C94311403A6879
S11302909201FF201040FA1D1278150003222A4013
S11302A0D200904002000A43C0339B001A5131E04F
S11302B01B4CFB1D1B781A000F231340083B9908A5
S11302C0174AFB1D1B7818000F230340083B9B08AB
S11302D006339B00D31804331B68FA1D12781000F0
S11302E003220240D200FF2090400200D2431A4071
S11302F03B689B01FF201840FB1D1B781D00032356
S11303002B40DB00984003001A438B1D9B00E3182D
S113031004331A60C046BD4602B0B0BD00E100E03F
S113032000ED00E080B582B000AF78600A00FB1CED
S11303301A707B68FA1C12785A737B6800221A734D
S1130340C046BD4602B080BD80B582B000AF7860C3
S11303500A00FB1C1A707B68FA1C12785A747B68BA
S113036000221A60FB1C1B7801229A407B681A60E9
S1130370C046BD4602B080BD80B582B000AF786093
S11303800A00FB1C1A707B68FA1C1278DA73C046E8
S1130390BD4602B080BD80B582B000AF78600A006F
S11303A0FB1C1A707B68FA1C12781A74C046BD468E
S11303B002B080BD80B582B000AF78600A00FB1C3B
S11303C01A707B68FA1C12789A73FB1C1B78092B31
S11303D00DD122497B685B7B18007B681A68C301D6
S11303E0CB1808331A607B6800221A7331E0FB1CB7
S11303F01B78082B2AD17B6800221A7317497B6863
S11304005B7B18007B681A68C301CB1804331A603D
S11304107B681B7C012B0AD110497B685B7C18002C
S11304207B681A68C301CB1818331A6011E07B6823
S11304301B7C022B0DD109497B685B7C18007B680F
S11304401A68C301CB1814331A6002E07B680122D6
S11304501A73C046BD4602B080BDC0460044004188
S113046090B585B000AF78600C0010001900FB1C3B
S1130470221C1A70BB1C021C1A707B1C0A1C1A70EA
S1130480BB1C1A787B6811001800434B98477B1CEF
S11304901A787B6811001800404B9847FB1C1A78A7
S11304A07B68110018003E4B98477B689B6880224C
S11304B0D2051A437B689A600E23FB1801221A8026
S11304C07B685B7C0F2B0AD80E23FB181B887A6889
S11304D0527C93401A000E23FB181A8010E07B68AC
S11304E09B68802212061A437B689A600E23FB18CD
S11304F01A887B685B7C103B9A400E23FB181A8099
S11305007B689A680E23FB181B881A437B689A60E1
S11305107B689B7B092B0AD17B68DB7B012B06D193
S11305207B689B688022D2031A437B689A607B684D
S11305309B7B082B06D17B689B68802292021A431E
S11305407B689A607B689B7B082B0AD17B681B7C49
S1130550002B06D17B689B688022D2021A437B68F9
S11305609A607B681B7B002B11D07B689A687B6840
S11305709B7B1B061900F0231B050B401A437B6869
S11305809A607B689B68074A1A437B689A60C046F6
S1130590BD4605B090BDC046790300009703000036
S11305A0B50300000000011090B583B000AF78607F
S11305B00C0010001900FB1C221C1A70BB1C021C2E
S11305C01A707B1C0A1C1A707B1C1C78BB1C1A78C2
S11305D0FB1C197878682300074CA04707497B68FF
S11305E05B7B18007B689A68C301CB1828331A60B8
S11305F0C046BD4603B090BD610400000044004104
S113060080B582B000AF78600A00FB1C1A70FB1C36
S11306101B78002B09D00F497B685B7B18007B6833
S11306201A68C301CB1818331A60FB1C1B7801220B
S11306305340DBB2002B09D006497B685B7B180072
S11306407B681A68C301CB1814331A60C046BD46D0
S113065002B080BD0044004180B582B000AFFB1DF4
S113066000221A70FB1D1A78E64B11001800E64BA5
S11306709847FB1D1A78E54B11001800E24B984788
S1130680FB1D1A78E24B11001800DF4B9847FB1D45
S11306901A78E04B11001800DB4B9847FB1D1A78C1
S11306A0DD4B11001800D84B9847FB1D1A78DB4B23
S11306B011001800D44B9847FB1D1A78D84B110031
S11306C01800D14B9847FB1D1A78D64B110018001F
S11306D0CD4B9847FB1D1A78D34B11001800CA4B19
S11306E09847FB1D1A78D14B11001800C64B984748
S11306F0FB1D1A78CE4B11001800C34B9847FB1D05
S11307001A78CC4B11001800BF4B9847FB1D1A7880
S1130710C94B11001800BC4B9847FB1D1A78C74BF6
S113072011001800B84B9847FB1D1A78C44B1100F0
S11307301800B54B9847FB1D1A78C24B11001800DE
S1130740B14B9847FB1D1A78BF4B11001800AE4BF4
S11307509847FB1D1A78BD4B11001800AA4B984707
S1130760FB1D1A78BA4B11001800A74B9847FB1DC4
S11307701A78B84B11001800A34B9847FB1D1A7840
S1130780B54B11001800A04B9847FB1D1A78B34BCA
S1130790110018009C4B9847FB1D1A78B04B1100B0
S11307A01800994B9847FB1D1A78AE4B110018009E
S11307B0954B9847FB1D1A78AB4B11001800924BD0
S11307C09847FB1D1A78A94B110018008E4B9847C7
S11307D0FB1D1A78A64B110018008B4B9847BB1DC4
S11307E000221A70BB1D1A78864B11001800A14B09
S11307F09847BB1D01221A70BB1D1A78834B110048
S113080018009C4B9847BB1D02221A70BB1D1A7816
S11308107F4B11001800974B9847BB1D03221A7099
S1130820BB1D1A787B4B11001800924B9847BB1DD7
S113083004221A70BB1D1A78774B110018008D4BD7
S11308409847BB1D05221A70BB1D1A78734B110003
S11308501800884B9847BB1D06221A70BB1D1A78D6
S11308606F4B11001800834B9847BB1D07221A7069
S1130870BB1D1A786B4B110018007E4B9847BB1DAB
S113088008221A70BB1D1A78674B11001800794BA7
S11308909847BB1D09221A70BB1D1A78634B1100BF
S11308A01800744B9847BB1D0A221A70BB1D1A7896
S11308B05F4B110018006F4B9847BB1D0B221A7039
S11308C0BB1D1A785B4B110018006A4B9847BB1D7F
S11308D00E221A70BB1D1A78574B11001800654B75
S11308E09847BB1D0F221A70BB1D1A78534B110079
S11308F01800604B9847BB1D10221A70BB1D1A7854
S11309004F4B110018005B4B9847BB1D11221A7006
S1130910BB1D1A784B4B11001800564B9847BB1D52
S113092012221A70BB1D1A78474B11001800514B44
S11309309847BB1D13221A70BB1D1A78434B110034
S113094018004C4B9847BB1D16221A70BB1D1A7811
S11309503F4B11001800474B9847BB1D17221A70D4
S1130960BB1D1A783B4B11001800424B9847BB1D26
S113097018221A70BB1D1A78374B110018003D4B12
S11309809847BB1D19221A70BB1D1A78334B1100EE
S11309901800384B9847BB1D1B221A70BB1D1A78D0
S11309A02F4B11001800334B9847BB1D1C221A70A3
S11309B0BB1D1A782B4B110018002E4B9847BB1DFA
S11309C01D221A70BB1D1A78274B11001800294BE1
S11309D09847BB1D1E221A70BB1D1A78234B1100A9
S11309E01800244B9847BB1D1F221A70BB1D1A7890
S11309F01F4B110018001F4B9847C046BD4602B05C
S1130A0080BDC046480500202503000034050020B1
S1130A10D805002078060020F8040020EC0500200A
S1130A20A006002028060020CC060020B8060020DE
S1130A305C05002000060020840500203C06002000
S1130A400C050020AC050020D004002098050020EF
S1130A507005002050060020E0060020C405002098
S1130A608C060020200500201406002064060020C7
S1130A70E40400204903000080B500AF0F4B0022BE
S1130A809A600E4B0E4A5A800E4B0E4A92692021F0
S1130A900A439A610C4B00221A800B4B0A4AD27902
S1130AA0D2B2DA71084A084B1B889BB202210B436D
S1130AB09BB21380C046BD4680BDC046000C0040BA
S1130AC004400000000400400014004080B584B0DD
S1130AD000AF78607B68FB600BE0094B00221A6072
S1130AE0084B00221A72C046064B1B7AFB68013B76
S1130AF0FB60FB68002BF0DCC046BD4604B080BD43
S1130B001814004000140040B0B500AF3948022367
S1130B1000220921384CA047384802230022092129
S1130B20354CA0473648022300220921324CA04705
S1130B3034480223002209212F4CA04732480223C3
S1130B40002209212C4CA04730480223002209210D
S1130B50294CA0472E48022300220921264CA047F5
S1130B602C48022300220921234CA0472A480223AF
S1130B7000220921204CA0472848022300220921F1
S1130B801D4CA047254B00211800254B9847194BB5
S1130B9000211800224B9847184B01211800204BC4
S1130BA09847174B012118001D4B9847154B0121FD
S1130BB018001B4B9847144B00211800184B9847FA
S1130BC0124B01211800164B9847114B00211800B5
S1130BD0134B9847134B1A780F4B11001800104B06
S1130BE098470C4B002118000D4B9847C046BD4652
S1130BF0B0BDC046CC060020A905000000060020B8
S1130C00B80600205C050020D004002098050020D0
S1130C100C050020840500203C060020AC050020C3
S1130C2001060000C005002080B582B000AF2C4B47
S1130C301B6910221A402A4B1B6920210B401343C5
S1130C404AD0284B1B6A7B60274B1B687A68134089
S1130C505A1E9341DAB2FB1C1A70244B1B687A6843
S1130C6013405A1E9341DAB2BB1C1A70204B1A78F7
S1130C70204B1A70FB1C1B78DB18DAB2BB1C1B78E8
S1130C80D318DAB21A4B1A701A4B1B789B00184A05
S1130C9012789A18184B9200D258184B1B68D21825
S1130CA0164B1A60154B1B68154A934204DD134B0F
S1130CB01B685A1E114B1A60104B1B68114A934251
S1130CC004DA0E4B1B685A1C0C4B1A60044B044A82
S1130CD0126930210A431A61C046BD4602B080BD84
S1130CE00018004000440041F8040020EC050020F6
S1130CF0C8040020C904002000000020CC04002007
S1130D00204E000018FCFFFF90B585B000AF754B76
S1130D1000221A60744B00221A70744A136A7449D0
S1130D200B401362734B98470023BB60724B7B608C
S1130D30724B724A926940210A439A61704B714A1C
S1130D405A80714A714B1B689BB21900704B0B435C
S1130D5093626D4A6F4B1B689BB219006C4B0B433B
S1130D6093626D4B6C4A526830210A435A606A4B55
S1130D70694A9269BB2109040A439A61664B664A2F
S1130D80D26830210A43DA60634A634B1B78DBB2D2
S1130D9002210B43DBB21370002104205F4B984700
S1130DA004205F4B984762B600233B605D480223F2
S1130DB0002209215C4CA0475A4B002118005B4BD0
S1130DC098475B4B98475B4B98470F23FB180122CE
S1130DD01A700E23FB1801221A700E23FB181B78BD
S1130DE0002B1CD00A20544B98470F23FB181A7869
S1130DF0524B110018004D4B98470F23FB181B78DA
S1130E005A1E9341DBB201225340DBB21A000F2376
S1130E10FB181A701A7801210A401A700FE0484B27
S1130E201A68484B1A60484B1A68454B1A60454B80
S1130E301A68454B1A600E23FB1801221A70404BA6
S1130E401A68424B1B68D218264B1B689A4205DA73
S1130E503F4B00211800354B98470DE0384B1A687A
S1130E603A4B1B68D21A1F4B1B689A4204DD384B5D
S1130E70012118002D4B9847314B1A68334B1B68DE
S1130E80D21A184B1B689A4203DA0E23FB1800226D
S1130E901A702B4B1A682D4B1B68D218114B1B6808
S1130EA09A4203DD0E23FB1800221A70244B1A68A1
S1130EB0264B1B68D2180B4B1B689A4203DA0E238D
S1130EC0FB1801221A701E4B1A68204B1B68D21A99
S1130ED0044B1B689A4280DD0E23FB1801221A7012
S1130EE07BE7C046CC040020C00500200008004079
S1130EF0FFFCFFFF590600008813000000040040B7
S1130F00000C00400540000000440041F8040020AB
S1130F1000000350EC0500200018004049020000C6
S1130F2015020000C4050020A90500000106000008
S1130F30790A0000090B0000CD0A00008405002096
S1130F40C0040020C404002040000020440000200D
S1130F503C06002070B50D4E0D4D0024AD1BAD10A8
S1130F6005D0A300F35801349847A542F9D100F005
S1130F70C3F8084E084D0024AD1BAD1005D0A300E6
S1130F80F35801349847A542F9D170BD041100000B
S1130F9004110000041100000C110000034B10B5F3
S1130FA0002B02D0024800F005F810BD000000003C
S1130FB0C50F000010B5010000230022002000F03E
S1130FC01FF810BD70B5094B094CE41AA41009D0E0
S1130FD0084AA518AD00ED182B68013C9847043D5C
S1130FE0002CF9D100F092F870BDC0461811000031
S1130FF01C110000FFFFFF3F7047C0467047C0460A
S1131000F0B54E464546DE465746E0B5364D83B00C
S11310100600286898460F009146FFF7EDFF334B12
S11310201C68A4235B00E058002852D043681F2B9F
S113103013DC5A1C0192002E28D1019A02339B0022
S113104042601F502868FFF7D9FF002003B03CBC62
S113105090469946A246AB46F0BD254B002B3DD0A9
S1131060C820400000E000BF002837D0A42200239D
S11310705200A15843600160A050403283500432B2
S11310808350013301930023002ED6D09A00924658
S113109082444A46882154466250C42252009146F2
S11310A081444A468739994012688B460A439446DC
S11310B04A4661461160842241465200A150022EE4
S11310C0BBD102005C468D32FF3211680C431460C0
S11310D0B3E720004D30FF30E050A7E72868FFF762
S11310E08DFF01204042B1E770040020F41000009D
S11310F00000000048000020F8B5C046F8BC08BC59
S11311009E4670479D0F0000DD000000F8B5C04604
S10F1110F8BC08BC9E467047B500000007
S113111C00000000FFFFFFFF0100000000000000C2
S113112C010000000000000000000000FFFFFFFFB2
S113113CFFFFFFFF000000000000000001000000A2
S113114C0000000001000000FFFFFFFF0000000092
S113115C10270000190000000000000034030020D8
S113116C9C03002004040020000000000000000088
S113117C000000000000000000000000000000005F
S113118C000000000000000000000000000000004F
S113119C000000000000000000000000000000003F
S11311AC000000000000000000000000000000002F
S11311BC000000000000000000000000000000001F
S11311CC000000000000000000000000000000000F
S11311DC00000000000000000000000000000000FF
S11311EC00000000000000000000000000000000EF
S11311FC00000000000000000000000000000000DF
S113120C01000000000000000E33CDAB34126DE67B
S113121CECDE05000B0000000000000000000000E4
S113122C00000000000000000000000000000000AE
S113123C000000000000000000000000000000009E
S113124C000000000000000000000000000000008E
S113125C000000000000000000000000000000007E
S107158CF40600203D
S9030000FC
