:10000000280B0020150100000D0200000D02000069
:1000100000000000000000000000000000000000E0
:100020000000000000000000000000000D020000C1
:1000300000000000000000000D0200000D020000A2
:100040000D0200000D0200000D0200000D02000074
:10005000E90C00000D0200000D0200000D0200007E
:100060000D0200000D0200000D0200000D02000054
:100070000D02000000000000000000000D02000062
:100080000D0200000D0200000D0200000D02000034
:100090000D02000000000000000000000D02000042
:1000A0000D0200000D0200000D0200000D02000014
:1000B0000000000010B5064C2378002B07D1054B3B
:1000C000002B02D0044800E000BF0123237010BDC4
:1000D000740400200000000008120000084B10B556
:1000E000002B03D00749084800E000BF0748036819
:1000F000002B00D110BD064B002BFBD09847F9E731
:10010000000000007804002008120000081200001F
:100110000000000080B582B000AF2F4B7B602F4BFA
:100120003B607A683B689A420CD007E03B681A1D36
:100130003A607A68111D796012681A603A68284B33
:100140009A42F3D3274B3B6004E03B681A1D3A60A8
:1001500000221A603A68244B9A42F6D3234B7B6004
:10016000234B7A68FF218A439A60224A90235B00DE
:100170000221D150204AD37803218B43191C02233A
:100180000B43D3701C4AD3780C218B43191C0823D2
:100190000B43D370194A937B30218B43191C2023C6
:1001A0000B439373154A937B0C218B43191C082333
:1001B0000B439373114A937B03218B43191C022336
:1001C0000B4393730E4A536880210B4353600D4BCE
:1001D00098470D4B9847FEE70812000000000020EA
:1001E0007404002074040020240700200000000094
:1001F00000ED00E000700041005000410048004167
:100200000040004141100000FD0E000080B500AF2D
:10021000FEE7000080B582B000AF0200FB1D1A703F
:10022000FB1D1B787F2B09D8064BFA1D1278110095
:100230001F220A40012191400A001A60C046BD46B3
:1002400002B080BD00E100E0B0B582B000AF0200B6
:100250003960FB1D1A70FB1D1B787F2B28D82F4C93
:10026000FB1D1B785BB29B082C49FA1D127852B219
:100270009208C03292005258F91D097808000321F3
:100280000140C900FF2088400100C94311403A687D
:100290009201FF201040FA1D1278150003222A4017
:1002A000D200904002000A43C0339B001A5131E053
:1002B0001B4CFB1D1B781A000F231340083B9908A9
:1002C000174AFB1D1B7818000F230340083B9B08AF
:1002D00006339B00D31804331B68FA1D12781000F4
:1002E00003220240D200FF2090400200D2431A4075
:1002F0003B689B01FF201840FB1D1B781D0003235A
:100300002B40DB00984003001A438B1D9B00E31831
:1003100004331A60C046BD4602B0B0BD00E100E043
:1003200000ED00E080B582B000AF78600A00FB1CF1
:100330001A707B68FA1C12785A737B6800221A7351
:10034000C046BD4602B080BD80B582B000AF7860C7
:100350000A00FB1C1A707B68FA1C12785A747B68BE
:1003600000221A60FB1C1B7801229A407B681A60ED
:10037000C046BD4602B080BD80B582B000AF786097
:100380000A00FB1C1A707B68FA1C1278DA73C046EC
:10039000BD4602B080BD80B582B000AF78600A0073
:1003A000FB1C1A707B68FA1C12781A74C046BD4692
:1003B00002B080BD80B582B000AF78600A00FB1C3F
:1003C0001A707B68FA1C12789A73FB1C1B78092B35
:1003D0000DD122497B685B7B18007B681A68C301DA
:1003E000CB1808331A607B6800221A7331E0FB1CBB
:1003F0001B78082B2AD17B6800221A7317497B6867
:100400005B7B18007B681A68C301CB1804331A6041
:100410007B681B7C012B0AD110497B685B7C180030
:100420007B681A68C301CB1818331A6011E07B6827
:100430001B7C022B0DD109497B685B7C18007B6813
:100440001A68C301CB1814331A6002E07B680122DA
:100450001A73C046BD4602B080BDC046004400418C
:1004600090B585B000AF78600C0010001900FB1C3F
:10047000221C1A70BB1C021C1A707B1C0A1C1A70EE
:10048000BB1C1A787B6811001800434B98477B1CF3
:100490001A787B6811001800404B9847FB1C1A78AB
:1004A0007B68110018003E4B98477B689B68802250
:1004B000D2051A437B689A600E23FB1801221A802A
:1004C0007B685B7C0F2B0AD80E23FB181B887A688D
:1004D000527C93401A000E23FB181A8010E07B68B0
:1004E0009B68802212061A437B689A600E23FB18D1
:1004F0001A887B685B7C103B9A400E23FB181A809D
:100500007B689A680E23FB181B881A437B689A60E5
:100510007B689B7B092B0AD17B68DB7B012B06D197
:100520007B689B688022D2031A437B689A607B6851
:100530009B7B082B06D17B689B68802292021A4322
:100540007B689A607B689B7B082B0AD17B681B7C4D
:10055000002B06D17B689B688022D2021A437B68FD
:100560009A607B681B7B002B11D07B689A687B6844
:100570009B7B1B061900F0231B050B401A437B686D
:100580009A607B689B68074A1A437B689A60C046FA
:10059000BD4605B090BDC04679030000970300003A
:1005A000B50300000000011090B583B000AF786083
:1005B0000C0010001900FB1C221C1A70BB1C021C32
:1005C0001A707B1C0A1C1A707B1C1C78BB1C1A78C6
:1005D000FB1C197878682300074CA04707497B6803
:1005E0005B7B18007B689A68C301CB1828331A60BC
:1005F000C046BD4603B090BD610400000044004108
:1006000080B582B000AF78600A00FB1C1A70FB1C3A
:100610001B78002B09D00F497B685B7B18007B6837
:100620001A68C301CB1818331A60FB1C1B7801220F
:100630005340DBB2002B09D006497B685B7B180076
:100640007B681A68C301CB1814331A60C046BD46D4
:1006500002B080BD0044004180B582B000AFFB1DF8
:1006600000221A70FB1D1A78E64B11001800E64BA9
:100670009847FB1D1A78E54B11001800E24B98478C
:10068000FB1D1A78E24B11001800DF4B9847FB1D49
:100690001A78E04B11001800DB4B9847FB1D1A78C5
:1006A000DD4B11001800D84B9847FB1D1A78DB4B27
:1006B00011001800D44B9847FB1D1A78D84B110035
:1006C0001800D14B9847FB1D1A78D64B1100180023
:1006D000CD4B9847FB1D1A78D34B11001800CA4B1D
:1006E0009847FB1D1A78D14B11001800C64B98474C
:1006F000FB1D1A78CE4B11001800C34B9847FB1D09
:100700001A78CC4B11001800BF4B9847FB1D1A7884
:10071000C94B11001800BC4B9847FB1D1A78C74BFA
:1007200011001800B84B9847FB1D1A78C44B1100F4
:100730001800B54B9847FB1D1A78C24B11001800E2
:10074000B14B9847FB1D1A78BF4B11001800AE4BF8
:100750009847FB1D1A78BD4B11001800AA4B98470B
:10076000FB1D1A78BA4B11001800A74B9847FB1DC8
:100770001A78B84B11001800A34B9847FB1D1A7844
:10078000B54B11001800A04B9847FB1D1A78B34BCE
:10079000110018009C4B9847FB1D1A78B04B1100B4
:1007A0001800994B9847FB1D1A78AE4B11001800A2
:1007B000954B9847FB1D1A78AB4B11001800924BD4
:1007C0009847FB1D1A78A94B110018008E4B9847CB
:1007D000FB1D1A78A64B110018008B4B9847BB1DC8
:1007E00000221A70BB1D1A78864B11001800A14B0D
:1007F0009847BB1D01221A70BB1D1A78834B11004C
:1008000018009C4B9847BB1D02221A70BB1D1A781A
:100810007F4B11001800974B9847BB1D03221A709D
:10082000BB1D1A787B4B11001800924B9847BB1DDB
:1008300004221A70BB1D1A78774B110018008D4BDB
:100840009847BB1D05221A70BB1D1A78734B110007
:100850001800884B9847BB1D06221A70BB1D1A78DA
:100860006F4B11001800834B9847BB1D07221A706D
:10087000BB1D1A786B4B110018007E4B9847BB1DAF
:1008800008221A70BB1D1A78674B11001800794BAB
:100890009847BB1D09221A70BB1D1A78634B1100C3
:1008A0001800744B9847BB1D0A221A70BB1D1A789A
:1008B0005F4B110018006F4B9847BB1D0B221A703D
:1008C000BB1D1A785B4B110018006A4B9847BB1D83
:1008D0000E221A70BB1D1A78574B11001800654B79
:1008E0009847BB1D0F221A70BB1D1A78534B11007D
:1008F0001800604B9847BB1D10221A70BB1D1A7858
:100900004F4B110018005B4B9847BB1D11221A700A
:10091000BB1D1A784B4B11001800564B9847BB1D56
:1009200012221A70BB1D1A78474B11001800514B48
:100930009847BB1D13221A70BB1D1A78434B110038
:1009400018004C4B9847BB1D16221A70BB1D1A7815
:100950003F4B11001800474B9847BB1D17221A70D8
:10096000BB1D1A783B4B11001800424B9847BB1D2A
:1009700018221A70BB1D1A78374B110018003D4B16
:100980009847BB1D19221A70BB1D1A78334B1100F2
:100990001800384B9847BB1D1B221A70BB1D1A78D4
:1009A0002F4B11001800334B9847BB1D1C221A70A7
:1009B000BB1D1A782B4B110018002E4B9847BB1DFE
:1009C0001D221A70BB1D1A78274B11001800294BE5
:1009D0009847BB1D1E221A70BB1D1A78234B1100AD
:1009E0001800244B9847BB1D1F221A70BB1D1A7894
:1009F0001F4B110018001F4B9847C046BD4602B060
:100A000080BDC046440500202503000030050020BD
:100A1000DC05002084060020F0040020F005002002
:100A2000AC06002030060020D8060020C4060020B6
:100A30005C050020040600208405002044060020F8
:100A400004050020AC050020C80400209805002003
:100A50007005002058060020EC060020C805002084
:100A6000980600201C0500201C06002070060020AF
:100A7000DC0400204903000080B582B000AF284AA2
:100A800053681E218B4302210B435360C046254B04
:100A9000DB68DB06DB0FDBB2002BF8D0214B022238
:100AA0009A84C0461F4BDB68DB06DB0FDBB2002BF2
:100AB000F8D01D4B1B689B0E7B601C4B1B689B0575
:100AC0009B0D3B60174B7A6892021204110C3A6836
:100AD0009205920D0A439A62C046124BDB68DB0610
:100AE000DB0FDBB2002BF8D00E4A938C02210B43B4
:100AF0009384C0460B4BDB68DB06DB0FDBB2002BBD
:100B0000F8D00B4B0B4A5A60C046094B5B781B066A
:100B1000DB0FDBB2002BF8D1C046BD4602B080BD72
:100B200000400041000800402460800028608000F0
:100B3000000C00400007030080B500AF0F4BC0223F
:100B4000D2009A600D4B0E4A5A800E4B0D4A9269A4
:100B500020210A439A610C4B00221A800A4B0A4A50
:100B6000D279D2B2DA71084A074B1B889BB20221B4
:100B70000B439BB21380C046BD4680BD000C0040B5
:100B800004400000000400400014004080B584B020
:100B900000AF78607B68FB600BE0094B00221A60B5
:100BA000084B00221A72C046064B1B7AFB68013BB9
:100BB000FB60FB68002BF0DCC046BD4604B080BD86
:100BC0001814004000140040B0B500AF39480223AB
:100BD00000220921384CA04738480223002209216D
:100BE000354CA0473648022300220921324CA04749
:100BF00034480223002209212F4CA0473248022307
:100C0000002209212C4CA047304802230022092150
:100C1000294CA0472E48022300220921264CA04738
:100C20002C48022300220921234CA0472A480223F2
:100C300000220921204CA047284802230022092134
:100C40001D4CA047254B00211800254B9847194BF8
:100C500000211800224B9847184B01211800204B07
:100C60009847174B012118001D4B9847154B012140
:100C700018001B4B9847144B00211800184B98473D
:100C8000124B01211800164B9847114B00211800F8
:100C9000134B9847134B1A780F4B11001800104B49
:100CA00098470C4B002118000D4B9847C046BD4695
:100CB000B0BDC046D8060020A905000004060020EB
:100CC000C40600205C050020C80400209805002010
:100CD000040500208405002044060020AC05002007
:100CE00001060000C005002080B582B000AF4A4B6D
:100CF0001B692022134005D1474B1B69102213406A
:100D000000D185E0454B1B6A7B60454B1B687A68C8
:100D100013405A1E9341DAB2FB1C1A70414B1B68F8
:100D20007A6813405A1E9341DAB2BB1C1A703E4BCC
:100D30001A783E4B1A70FB1C1B78DB18DAB2BB1C0E
:100D40001B78D318DAB2384B1A70394B00229A56F6
:100D5000384B1A70384B00229A56354B1A70334B69
:100D60001B789B00304A12789A18344B9200D35863
:100D70005AB2314B1A702F4B1B785BB201331CD126
:100D80002B4B1B785BB2013317D12B4B1B785BB21B
:100D9000013312D12A4B1B78002B0ED0294B1B7824
:100DA00001225340DBB2002B07D0274B0121180052
:100DB000264B9847234B01221A701E4B1B785BB2BF
:100DC000012B1FD11A4B1B785BB2012B1AD11A4B86
:100DD0001B785BB2012B15D1194B1B7801225340B4
:100DE000DBB2002B0ED0174B1B7801225340DBB235
:100DF000002B07D0144B01211800144B9847114BBE
:100E000001221A70044B044A126930210A431A6104
:100E1000C046BD4602B080BD0018004000440041FD
:100E2000F0040020F0050020BD040020BE040020D6
:100E30006C060020C00600205A050020000000209B
:100E4000C0050020C5040020C805002001060000E0
:100E500080B500AF1F4B1F4A926940210A439A6137
:100E60001D4B1E4A5A801E4A1E4B1B689BB219001E
:100E70001D4B0B4393621A4A1C4B1B689BB2190013
:100E8000194B0B4393621A4B194A526830210A439B
:100E90005A60174B164A9269BB2109040A439A61AA
:100EA000134B134AD26830210A43DA60104A104BC0
:100EB0001B78DBB202210B43DBB21370002104204C
:100EC0000C4B984704200C4B984762B6C046BD4671
:100ED00080BDC04600040040000C004005400000FA
:100EE00000440041F005002000000350F004002001
:100EF00000180040490200001502000090B585B0BE
:100F000000AF3C4B98473C4B98473C4B98473C4B79
:100F100098473C4B98473C480123002209213B4C11
:100F2000A0473B48012300220921384CA047394BF8
:100F300000221A60384B00221A600023FB60374BF6
:100F4000BB60374B00221A60364B00221A70002318
:100F50007B60354B00221A70334B1B78002B25D059
:100F6000304B1B785A1E9341DBB201225340DBB257
:100F70001A1C01231340DAB22A4B1A70294B1A7833
:100F80002A4B110018002A4B98470023FB601E4B88
:100F900000211800264B9847224B1A781C4B110051
:100FA0001800234B9847204B00221A701E4B1B78C9
:100FB00001225340DBB2002BCED01E4B1A781E4BC1
:100FC000110018001A4B98471A4B1B785A1E934170
:100FD000DBB201225340DBB21A1C01231340DAB208
:100FE000144B1A700820154B9847FB680133FB60BF
:100FF000B2E7C046790A000059060000510E000011
:10100000390B0000C90B0000C8050020A90500002D
:1010100070050020C4050020180500207C15000084
:10102000C0040020C0050020C504002044060020A4
:101030000106000040000020840500208D0B000008
:1010400070B50D4E0D4D0024AD1BAD1005D0A300A5
:10105000F35801349847A542F9D100F0C3F8084E7F
:10106000084D0024AD1BAD1005D0A300F35801348A
:101070009847A542F9D170BDF0110000F0110000B1
:10108000F0110000F8110000034B10B5002B02D046
:10109000024800F005F810BD00000000B11000008B
:1010A00010B5010000230022002000F01FF810BD41
:1010B00070B5094B094CE41AA41009D0084AA518C8
:1010C000AD00ED182B68013C9847043D002CF9D188
:1010D00000F092F870BDC046041200000812000033
:1010E000FFFFFF3F7047C0467047C046F0B54E4611
:1010F0004546DE465746E0B5364D83B006002868C3
:1011000098460F009146FFF7EDFF334B1C68A42370
:101110005B00E058002852D043681F2B13DC5A1C98
:101120000192002E28D1019A02339B0042601F5089
:101130002868FFF7D9FF002003B03CBC90469946D1
:10114000A246AB46F0BD254B002B3DD0C820400049
:1011500000E000BF002837D0A42200235200A1588D
:1011600043600160A0504032835004328350013309
:1011700001930023002ED6D09A00924682444A461C
:10118000882154466250C4225200914681444A4606
:101190008739994012688B460A4394464A4661460D
:1011A0001160842241465200A150022EBBD10200A0
:1011B0005C468D32FF3211680C431460B3E72000A7
:1011C0004D30FF30E050A7E72868FFF78DFF012082
:1011D0004042B1E770040020E01100000000000070
:1011E00048000020F8B5C046F8BC08BC9E467047D1
:1011F00089100000DD000000F8B5C046F8BC08BC4E
:081200009E467047B500000096
:1012080000000000FFFFFFFF0100000000000000D9
:10121800010000000000000000000000FFFFFFFFC9
:10122800FFFFFFFF000000000000000001000000B9
:101238000000000001000000FFFFFFFF00000000A9
:10124800010000000000000000000000340300203E
:101258009C0300200404002000000000000000009F
:101268000000000000000000000000000000000076
:101278000000000000000000000000000000000066
:101288000000000000000000000000000000000056
:101298000000000000000000000000000000000046
:1012A8000000000000000000000000000000000036
:1012B8000000000000000000000000000000000026
:1012C8000000000000000000000000000000000016
:1012D8000000000000000000000000000000000006
:1012E80000000000000000000000000000000000F6
:1012F80001000000000000000E33CDAB34126DE693
:10130800ECDE05000B0000000000000000000000FB
:1013180000000000000000000000000000000000C5
:1013280000000000000000000000000000000000B5
:1013380000000000000000000000000000000000A5
:101348000000000000000000000000000000000095
:041678000007002047
:00000001FF
