:10000000900B0020150100000D0200000D02000001
:1000100000000000000000000000000000000000E0
:100020000000000000000000000000000D020000C1
:1000300000000000000000000D0200000D020000A2
:100040000D0200000D0200000D0200000D02000074
:10005000010E00000D0200000D0200000D02000064
:100060000D0200000D0200000D0200000D02000054
:100070008918000000000000000000000D020000D0
:100080000D0200000D0200000D0200000D02000034
:100090000D02000000000000000000000D02000042
:1000A0000D0200000D0200000D0200000D02000014
:1000B0000000000010B5064C2378002B07D1054B3B
:1000C000002B02D0044800E000BF0123237010BDC4
:1000D0008404002000000000BC3B0000084B10B569
:1000E000002B03D00749084800E000BF0748036819
:1000F000002B00D110BD064B002BFBD09847F9E731
:100100000000000088040020BC3B0000BC3B000055
:100110000000000080B582B000AF2F4B7B602F4BFA
:100120003B607A683B689A420CD007E03B681A1D36
:100130003A607A68111D796012681A603A68284B33
:100140009A42F3D3274B3B6004E03B681A1D3A60A8
:1001500000221A603A68244B9A42F6D3234B7B6004
:10016000234B7A68FF218A439A60224A90235B00DE
:100170000221D150204AD37803218B43191C02233A
:100180000B43D3701C4AD3780C218B43191C0823D2
:100190000B43D370194A937B30218B43191C2023C6
:1001A0000B439373154A937B0C218B43191C082333
:1001B0000B439373114A937B03218B43191C022336
:1001C0000B4393730E4A536880210B4353600D4BCE
:1001D00098470D4B9847FEE7BC3B0000000000200D
:1001E00084040020840400208C070020000000000C
:1001F00000ED00E000700041005000410048004167
:1002000000400041F5380000BD11000080B500AF8E
:10021000FEE7000080B582B000AF0200FB1D1A703F
:10022000FB1D1B787F2B09D8064BFA1D1278110095
:100230001F220A40012191400A001A60C046BD46B3
:1002400002B080BD00E100E0B0B582B000AF0200B6
:100250003960FB1D1A70FB1D1B787F2B28D82F4C93
:10026000FB1D1B785BB29B082C49FA1D127852B219
:100270009208C03292005258F91D097808000321F3
:100280000140C900FF2088400100C94311403A687D
:100290009201FF201040FA1D1278150003222A4017
:1002A000D200904002000A43C0339B001A5131E053
:1002B0001B4CFB1D1B781A000F231340083B9908A9
:1002C000174AFB1D1B7818000F230340083B9B08AF
:1002D00006339B00D31804331B68FA1D12781000F4
:1002E00003220240D200FF2090400200D2431A4075
:1002F0003B689B01FF201840FB1D1B781D0003235A
:100300002B40DB00984003001A438B1D9B00E31831
:1003100004331A60C046BD4602B0B0BD00E100E043
:1003200000ED00E080B582B000AF78600A00FB1CF1
:100330001A707B68FA1C12785A737B6800221A7351
:10034000C046BD4602B080BD80B582B000AF7860C7
:100350000A00FB1C1A707B68FA1C12785A747B68BE
:1003600000221A60FB1C1B7801229A407B681A60ED
:10037000C046BD4602B080BD80B582B000AF786097
:100380000A00FB1C1A707B68FA1C1278DA73C046EC
:10039000BD4602B080BD80B582B000AF78600A0073
:1003A000FB1C1A707B68FA1C12781A74C046BD4692
:1003B00002B080BD80B582B000AF78600A00FB1C3F
:1003C0001A707B68FA1C12789A73FB1C1B78092B35
:1003D0000DD122497B685B7B18007B681A68C301DA
:1003E000CB1808331A607B6800221A7331E0FB1CBB
:1003F0001B78082B2AD17B6800221A7317497B6867
:100400005B7B18007B681A68C301CB1804331A6041
:100410007B681B7C012B0AD110497B685B7C180030
:100420007B681A68C301CB1818331A6011E07B6827
:100430001B7C022B0DD109497B685B7C18007B6813
:100440001A68C301CB1814331A6002E07B680122DA
:100450001A73C046BD4602B080BDC046004400418C
:1004600090B585B000AF78600C0010001900FB1C3F
:10047000221C1A70BB1C021C1A707B1C0A1C1A70EE
:10048000BB1C1A787B6811001800434B98477B1CF3
:100490001A787B6811001800404B9847FB1C1A78AB
:1004A0007B68110018003E4B98477B689B68802250
:1004B000D2051A437B689A600E23FB1801221A802A
:1004C0007B685B7C0F2B0AD80E23FB181B887A688D
:1004D000527C93401A000E23FB181A8010E07B68B0
:1004E0009B68802212061A437B689A600E23FB18D1
:1004F0001A887B685B7C103B9A400E23FB181A809D
:100500007B689A680E23FB181B881A437B689A60E5
:100510007B689B7B092B0AD17B68DB7B012B06D197
:100520007B689B688022D2031A437B689A607B6851
:100530009B7B082B06D17B689B68802292021A4322
:100540007B689A607B689B7B082B0AD17B681B7C4D
:10055000002B06D17B689B688022D2021A437B68FD
:100560009A607B681B7B002B11D07B689A687B6844
:100570009B7B1B061900F0231B050B401A437B686D
:100580009A607B689B68074A1A437B689A60C046FA
:10059000BD4605B090BDC04679030000970300003A
:1005A000B50300000000011090B583B000AF786083
:1005B0000C0010001900FB1C221C1A70BB1C021C32
:1005C0001A707B1C0A1C1A707B1C1C78BB1C1A78C6
:1005D000FB1C197878682300074CA04707497B6803
:1005E0005B7B18007B689A68C301CB1828331A60BC
:1005F000C046BD4603B090BD610400000044004108
:1006000080B582B000AF78600A00FB1C1A70FB1C3A
:100610001B78002B09D00F497B685B7B18007B6837
:100620001A68C301CB1818331A60FB1C1B7801220F
:100630005340DBB2002B09D006497B685B7B180076
:100640007B681A68C301CB1814331A60C046BD46D4
:1006500002B080BD0044004180B584B000AF786036
:10066000094A7B685B7BDB01D31820331B68FB6086
:100670007B681B68FA6813405A1E9341DBB218006E
:10068000BD4604B080BDC0460044004180B582B084
:1006900000AFFB1D00221A70FB1D1A78E64B1100FB
:1006A0001800E64B9847FB1D1A78E54B110018001F
:1006B000E24B9847FB1D1A78E24B11001800DF4B04
:1006C0009847FB1D1A78E04B11001800DB4B984748
:1006D000FB1D1A78DD4B11001800D84B9847FB1D05
:1006E0001A78DB4B11001800D44B9847FB1D1A7881
:1006F000D84B11001800D14B9847FB1D1A78D64BE8
:1007000011001800CD4B9847FB1D1A78D34B1100F0
:100710001800CA4B9847FB1D1A78D14B11001800DE
:10072000C64B9847FB1D1A78CE4B11001800C34BDF
:100730009847FB1D1A78CC4B11001800BF4B984707
:10074000FB1D1A78C94B11001800BC4B9847FB1DC4
:100750001A78C74B11001800B84B9847FB1D1A7840
:10076000C44B11001800B54B9847FB1D1A78C24BBB
:1007700011001800B14B9847FB1D1A78BF4B1100B0
:100780001800AE4B9847FB1D1A78BD4B110018009E
:10079000AA4B9847FB1D1A78BA4B11001800A74BBB
:1007A0009847FB1D1A78B84B11001800A34B9847C7
:1007B000FB1D1A78B54B11001800A04B9847FB1D84
:1007C0001A78B34B110018009C4B9847FB1D1A7800
:1007D000B04B11001800994B9847FB1D1A78AE4B8F
:1007E00011001800954B9847FB1D1A78AB4B110070
:1007F0001800924B9847FB1D1A78A94B110018005E
:100800008E4B9847FB1D1A78A64B110018008B4B96
:100810009847BB1D00221A70BB1D1A78864B110029
:100820001800A14B9847BB1D01221A70BB1D1A78F6
:10083000834B110018009C4B9847BB1D02221A7075
:10084000BB1D1A787F4B11001800974B9847BB1DB2
:1008500003221A70BB1D1A787B4B11001800924BB3
:100860009847BB1D04221A70BB1D1A78774B1100E4
:1008700018008D4B9847BB1D05221A70BB1D1A78B6
:10088000734B11001800884B9847BB1D06221A7045
:10089000BB1D1A786F4B11001800834B9847BB1D86
:1008A00007221A70BB1D1A786B4B110018007E4B83
:1008B0009847BB1D08221A70BB1D1A78674B1100A0
:1008C0001800794B9847BB1D09221A70BB1D1A7876
:1008D000634B11001800744B9847BB1D0A221A7015
:1008E000BB1D1A785F4B110018006F4B9847BB1D5A
:1008F0000B221A70BB1D1A785B4B110018006A4B53
:100900009847BB1D0E221A70BB1D1A78574B110059
:100910001800654B9847BB1D0F221A70BB1D1A7833
:10092000534B11001800604B9847BB1D10221A70E2
:10093000BB1D1A784F4B110018005B4B9847BB1D2D
:1009400011221A70BB1D1A784B4B11001800564B20
:100950009847BB1D12221A70BB1D1A78474B110015
:100960001800514B9847BB1D13221A70BB1D1A78F3
:10097000434B110018004C4B9847BB1D16221A70B0
:10098000BB1D1A783F4B11001800474B9847BB1D01
:1009900017221A70BB1D1A783B4B11001800424BEE
:1009A0009847BB1D18221A70BB1D1A78374B1100CF
:1009B00018003D4B9847BB1D19221A70BB1D1A78B1
:1009C000334B11001800384B9847BB1D1B221A707F
:1009D000BB1D1A782F4B11001800334B9847BB1DD5
:1009E0001C221A70BB1D1A782B4B110018002E4BBD
:1009F0009847BB1D1D221A70BB1D1A78274B11008A
:100A00001800294B9847BB1D1E221A70BB1D1A786F
:100A1000234B11001800244B9847BB1D1F221A704E
:100A2000BB1D1A781F4B110018001F4B9847C0467A
:100A3000BD4602B080BDC046A005002025030000D1
:100A40008C05002038060020E80600204405002020
:100A50004C060020140700208C06002040070020D0
:100A60002C070020B805002060060020E0050020CB
:100A7000A0060020580500200C0600201C050020C0
:100A8000F8050020CC050020B806002054070020FF
:100A900024060020000700207805002078060020AA
:100AA000D4060020300500204903000080B582B044
:100AB00000AF284A53681E218B4302210B43536029
:100AC000C046254BDB68DB06DB0FDBB2002BF8D022
:100AD000214B02229A84C0461F4BDB68DB06DB0FEA
:100AE000DBB2002BF8D01D4B1B689B0E7B601C4BB0
:100AF0001B689B059B0D3B60174B7A6892021204A2
:100B0000110C3A689205920D0A439A62C046124B44
:100B1000DB68DB06DB0FDBB2002BF8D00E4A938CD0
:100B200002210B439384C0460B4BDB68DB06DB0FD3
:100B3000DBB2002BF8D00B4B0B4A5A60C046094B76
:100B40005B781B06DB0FDBB2002BF8D1C046BD463D
:100B500002B080BD004000410008004024608000D9
:100B600028608000000C00400007030080B500AF43
:100B7000124B00229A60114B114A5A80114B114AB4
:100B8000926920210A439A610F4B00221A800F4B71
:100B900030221A600C4A0C4BDB79DBB201210B438B
:100BA000DBB2D371084A084B1B889BB202210B436E
:100BB0009BB21380C046BD4680BDC046000C0040BD
:100BC00004400000000400400014004018140040DD
:100BD00080B584B000AF78607B68FB600EE00B4BA3
:100BE00000221A600A4B01221A72C046084B1B7A77
:100BF000DBB2002BFAD0FB68013BFB60FB68002BEB
:100C0000EDDCC046BD4604B080BDC04618140040AF
:100C100000140040B0B500AF624802230022092151
:100C2000614CA047614A624B1B689BB21900614B43
:100C30000B4393625D4A604B1B689BB219005D4B8E
:100C40000B439362594A5D4B1B689BB21900594B89
:100C50000B439362554A554B1969554B1B6898B223
:100C6000554B1B689BB2034398B2544B1B689BB215
:100C700003439BB20B431361514802230022092115
:100C8000494CA0474F48022300220921464CA04767
:100C90004D48022300220921434CA0474B48022320
:100CA00000220921404CA047494802230022092183
:100CB0003D4CA04747480223002209213A4CA04757
:100CC0004548022300220921374CA047434802230C
:100CD00000220921344CA047414802230022092167
:100CE000314CA0473E4B002118003E4B98472D4BFE
:100CF000002118003B4B9847314B01211800394B1C
:100D00009847304B01211800364B98472E4B012154
:100D10001800344B98472D4B00211800314B984751
:100D20002B4B012118002F4B98472A4B002118000C
:100D30002C4B98472C4B1A78284B11001800294B44
:100D40009847254B00211800264B9847184B180050
:100D5000264B984703001A00254B1A70164B1800B3
:100D6000224B984703001A00224B1A70134B1800AD
:100D70001E4B984703001A001F4B1A701C4B1B7820
:100D80005AB21C4B1B785B005BB213435AB21A4B2E
:100D90001B789B005BB213435AB2184B1A70C046C3
:100DA000BD46B0BD40070020A90500000044004139
:100DB000A0050020000006408C0500203806002019
:100DC000600600202C070020B80500201C0500202C
:100DD000F805002058050020E0050020A0060020AE
:100DE0000C06002001060000200600205906000025
:100DF00074050020FC060020F4050020B406002045
:100E000080B582B000AF544B1B692022134005D13E
:100E1000514B1B691022134000D198E04F4B1B6AC5
:100E20007B604F4B1B687A6813405A1E9341DAB2BD
:100E3000FB1C1A704B4B1B687A6813405A1E934177
:100E4000DAB2BB1C1A70484B1A78484B1A70FB1C5C
:100E50001B78DB18DAB2BB1C1B78D318DAB2424B12
:100E60001A70434B00229A56424B1A70424B002292
:100E70009A563F4B1A703D4B1B789B003A4A1278AA
:100E80009A183E4B9200D3585AB23B4B1A703A4BC9
:100E90001B785BB21A003A4B1B68D218384B1A60A9
:100EA000384B1B78002B05D1374B1A68374B1B6822
:100EB0009A421CD02F4B1B785BB2013317D12C4BBD
:100EC0001B785BB2013312D12B4B1B785BB2013321
:100ED0000DD12F4B1B78002B09D02E4B1B780122F4
:100EE0005340DBB2002B02D02A4B01221A70254B53
:100EF0001B78002B05D1244B1A68244B1B689A429F
:100F00001FD01C4B1B785BB2012B1AD1184B1B78DE
:100F10005BB2012B15D1184B1B785BB2012B10D1A2
:100F20001B4B1B7801225340DBB2002B09D0194B1D
:100F30001B7801225340DBB2002B02D0154B01225B
:100F40001A70054B044A126930210A431A61C046DF
:100F5000BD4602B080BDC0460018004000440041BC
:100F6000440500204C060020CD040020CE040020C3
:100F7000CC06002028070020B60500200000002035
:100F8000D4040020FD060020D804002048000020E2
:100F900020060020E004002080B500AF224B224A4A
:100FA000926940210A439A61204B214A5A80214A82
:100FB000214B1B689BB21900204B0B4393621D4AC7
:100FC0001F4B1B689BB219001C4B0B4393621D4BBC
:100FD0001C4A526830210A435A601A4B194A9269D6
:100FE000BB2109040A439A61164B164AD268302184
:100FF0000A43DA60134A134B1B78DBB202210B431E
:10100000DBB2137000210C200F4B98470121042004
:101010000D4B98470C200D4B984704200B4B9847DD
:1010200062B6C046BD4680BD00040040000C0040D2
:1010300005400000004400414C0600200000035021
:10104000440500200018004049020000150200007D
:1010500080B500AF4B4B00221A604B4B00221A7038
:101060004A4B00221A704A4B00221A70494B002248
:101070001A701CE0484B1A78484B11001800484B76
:101080009847454B1B785A1E9341DBB201225340CF
:10109000DBB21A1C01231340DAB23F4B1A706420F2
:1010A000404B9847374B1B685A1C364B1A60394BDC
:1010B0001B7801225340DBB2002BDBD16420394B7B
:1010C0009847304B00221A60374B00221A60374B8A
:1010D00000221A60364B00221A602B4B00221A7035
:1010E0002A4B00221A702A4B00221A70314B1B78AF
:1010F0005A1E9341DBB201225340DBB21A1C01237A
:101100001340DAB22B4B1A702A4B1A782A4B110073
:101110001800234B98471F4B00221A7021E01E4BEA
:101120001A781E4B110018001D4B98471A4B1B785C
:101130005A1E9341DBB201225340DBB21A1C012339
:101140001340DAB2144B1A706420164B9847184BB0
:101150001B685A1C164B1A600A4B1B685A1C094B19
:101160001A600C4B1B7801225340DBB2002BD6D106
:101170000D4B1A680D4B1A60024B00221A60C046D4
:10118000BD4680BDD0040020B6050020CC0600205E
:1011900028070020E00400204D000020E00500208A
:1011A00001060000D10B0000D4040020D00600206E
:1011B000DC04002020060020A0060020F0B587B047
:1011C00000AFD84B9847D84B9847D84B9847D84B47
:1011D0009847D84B9847D84B01221A70D74B98475D
:1011E000D54B00221A70D64B1B785BB2DBB21800CD
:1011F000D44B9847D44B00221A60D44802230022D3
:101200000921D34CA047D34B1A68D34B1B685A43D0
:10121000D24B0C211000984703001A00D04B1A60E3
:10122000CC4B1A68CF4B1B685A43CC4B0C21100097
:10123000984703001A00CC4B1A6000237B610023FF
:101240003B610023FB60C94B00221A70C74B1A7820
:10125000C74B11001800C74B9847C74B00221A70A4
:10126000BF4B1A68C04B1A60C44B1A68C44B1000BD
:101270009847041CBB4B1A68C14B10009847021CCE
:10128000C04B111C201C9847031C1A1CBE4B111C80
:10129000FE2080059847031C1C1CAF4B1A68B84BF6
:1012A00010009847021CB94B111C201C9847031CC6
:1012B0001A1CB74B101C98470200A34B1A60B54B81
:1012C0001B78002B00D1FDE09F4B1A68A44B1B68D4
:1012D0009A420EDAA54B1B78002B0AD0A44B0021B2
:1012E0001800A44B9847AC4B00221A609F4B012278
:1012F0001A70954B1A689A4B1B689A4211DD9B4BEA
:101300001B7801225340DBB2002B0AD0984B0121FD
:101310001800984B9847A04B00221A60934B01226B
:101320001A70924B1B78002B04D0874B1B685A1EF7
:10133000854B1A608D4B1B7801225340DBB2002B8A
:1013400004D0814B1B685A1C7F4B1A607E4B1A6875
:10135000834B1B689A420BD18E4B00221A708F4B25
:1013600001221A70844B00221A708B4B00221A60E3
:10137000814B1B78002B00D181E0734B1A68884B9E
:101380001000984705000E00734B1A68844B10003C
:10139000984738607960704B1A68814B1000984705
:1013A000804C814A814BA04703000C001A002300A7
:1013B0007F4C38687968A04703000C001A002300AE
:1013C0007C4C28003100A047031E0ED0684B012141
:1013D0001800684B9847654B01221A700A20764B1B
:1013E0009847654B00221A7049E0574B1A686C4BBE
:1013F0001000984705000E00574B1A68684B100004
:101400009847684C684A694BA04703000C001800D5
:1014100021006A4C00220023A04703000C001A00A0
:101420002300674C28003100A047031E0ED0504B0C
:10143000002118004F4B98474C4B00221A700A208D
:101440005D4B98474C4B00221A7018E03E4B1A68CF
:10145000434B1B689A4209D14E4B00221A704F4BE6
:1014600001221A70444B00221A7008E0554B0122E9
:101470001A70484B00221A703F4B00221A70454BDD
:101480001B78002B00D1EBE64F4B1A784F4B110025
:101490001800384B98474C4B1B785A1E9341DBB2CF
:1014A00001225340DBB21A1C01231340DAB2464B2F
:1014B0001A703C20404B9847374B1B685A1C364BE0
:1014C0001A60CDE6354B1B78002B00D182E0404BF3
:1014D00001211800274B9847214B1A68224B1B68A3
:1014E0009A420DD03A4B00211800224B9847294BC5
:1014F00001221A70294B00221A701F4B00221A7009
:10150000114B1A68164B1B689A4200D1A8E62D4B66
:1015100001221A70214B00221A70174B00221A70F8
:101520009EE6C046AD0A00008D060000990F00003F
:101530006D0B0000150C0000FD060020511000008E
:10154000B4060020FD170000D80400202406002067
:10155000A905000040000020DC040020AD190000B7
:1015600048000020D00600206C0500202006002046
:10157000A006002001060000E0040020D4040020A2
:1015800049240000011C0000D1200000911E000031
:10159000092400004C000020D0040020E2040020B8
:1015A00035380000092D00007B14AE47E17A843FF6
:1015B00009320000ED1B0000D10B0000E9240000FF
:1015C000C51B0000E10400204D000020E0050020C4
:1015D00058050020204B1B78002B00D140E61F4B04
:1015E000012118001E4B98473B69FB607B693B61FA
:1015F0001C4B1B687B611B4B1A687B699A4200D0AD
:101600002EE6184B1A683B699A4200D028E6154B23
:101610001A68FB689A4200D022E6104B002118009D
:101620000F4B98470F4B1A680F4B1B689A4209D112
:101630000E4B01221A70084B00221A700C4B00222C
:101640001A700DE60B4B01221A70034B00221A7020
:10165000074B00221A7003E6E10400205805002021
:1016600001060000D804002048000020E204002009
:10167000E00400204C00002070B55D4B1D682B7EFF
:10168000DAB25BB2002B46DB0123134226D10223E0
:1016900013420CD0698B574C090730D40323A3772E
:1016A000002301212362544B197002232B76530728
:1016B00013D5504CA37F022B54D028230621ED5C78
:1016C000206A00F06FF92300627FEDB21733002A21
:1016D00060D05D54236A0133236270BD46490978A6
:1016E000002909D0434CA17F03295AD0A17F0229A8
:1016F00000D1E3770123A37701232B76C7E7A377F4
:101700006378002BCCD00121E37B4B40E3730023B3
:101710006370A370C4E7374CA37F002B18D0A37F5E
:10172000032B0BD0A37F022B10D1A36A0133A3623A
:10173000636A013363620123E37707E00023E37701
:10174000236B01332363E36A0133E3620123A3774D
:101750000021294B197080232B76D30797D50123BD
:101760002B7694E7236A002B03D06B8B00225B0758
:101770000DD40621206A00F015F9E27BE31C002A53
:1017800001D1230009335A5C236A013323622823E1
:10179000EA54A2E7230011335D54236A0133236224
:1017A0009BE7236A052B1AD92100607F1731002897
:1017B00001D1210011318E784B787340CE7873407F
:1017C0000E7973400E7849797340DB43DBB299425E
:1017D00005D10123584001236077237402E0236B75
:1017E00001332363E36A0133E3620023E37781E794
:1017F00050000020E40400204F000020164B703001
:1018000010B5C4B21C7000F03DF82021134A6400EA
:10181000136A0B431362124B124A5A80124B134A3B
:101820009A62134A9A62134B1A6810231360F033BA
:1018300053605462D3699B07FCD4022113680B43A5
:101840001360872393750C4B0C4A1A6080220C4B53
:1018500052011A6010BDC046E4040020000400409C
:10186000000C00401740000000440041400001D23D
:10187000800001D2500000201805002079160000D9
:1018800000E100E07047C04610B5024B1B68984766
:1018900010BDC04618050020002243088B4274D3B7
:1018A00003098B425FD3030A8B4244D3030B8B4261
:1018B00028D3030C8B420DD3FF22090212BA030C6A
:1018C0008B4202D31212090265D0030B8B4219D34B
:1018D00000E0090AC30B8B4201D3CB03C01A52416B
:1018E000830B8B4201D38B03C01A5241430B8B42B3
:1018F00001D34B03C01A5241030B8B4201D30B039C
:10190000C01A5241C30A8B4201D3CB02C01A5241C2
:10191000830A8B4201D38B02C01A5241430A8B4285
:1019200001D34B02C01A5241030A8B4201D30B026E
:10193000C01A5241CDD2C3098B4201D3CB01C01A88
:10194000524183098B4201D38B01C01A5241430992
:101950008B4201D34B01C01A524103098B4201D380
:101960000B01C01A5241C3088B4201D3CB00C01AED
:10197000524183088B4201D38B00C01A5241430865
:101980008B4201D34B00C01A5241411A00D201468A
:10199000524110467047FFE701B5002000F0F0F813
:1019A00002BDC0460029F7D076E7704703460B43D7
:1019B0007FD4002243088B4274D303098B425FD348
:1019C000030A8B4244D3030B8B4228D3030C8B4274
:1019D0000DD3FF22090212BA030C8B4202D312125A
:1019E000090265D0030B8B4219D300E0090AC30B2F
:1019F0008B4201D3CB03C01A5241830B8B4201D3DC
:101A00008B03C01A5241430B8B4201D34B03C01AC4
:101A10005241030B8B4201D30B03C01A5241C30A3C
:101A20008B4201D3CB02C01A5241830A8B4201D3AD
:101A30008B02C01A5241430A8B4201D34B02C01A97
:101A40005241030A8B4201D30B02C01A5241CDD23C
:101A5000C3098B4201D3CB01C01A524183098B4287
:101A600001D38B01C01A524143098B4201D34B0170
:101A7000C01A524103098B4201D30B01C01A5241D3
:101A8000C3088B4201D3CB00C01A524183088B425A
:101A900001D38B00C01A524143088B4201D34B0043
:101AA000C01A5241411A00D20146524110467047B5
:101AB0005DE0CA0F00D04942031000D340425340BA
:101AC00000229C4603098B422DD3030A8B4212D37A
:101AD000FC22890112BA030A8B420CD389019211AC
:101AE0008B4208D3890192118B4204D389013AD0E9
:101AF000921100E08909C3098B4201D3CB01C01ABE
:101B0000524183098B4201D38B01C01A52414309D0
:101B10008B4201D34B01C01A524103098B4201D3BE
:101B20000B01C01A5241C3088B4201D3CB00C01A2B
:101B3000524183088B4201D38B00C01A5241D9D243
:101B400043088B4201D34B00C01A5241411A00D2C4
:101B50000146634652415B10104601D34042002BC0
:101B600000D54942704763465B1000D3404201B53F
:101B7000002000F005F802BD0029F8D016E77047F4
:101B80007047C0468446101C62468C46191C63464A
:101B900000E0C0461FB501F055F8002801D400212F
:101BA000C8421FBD10B500F0AFFF4042013010BD6C
:101BB00010B501F047F8002801DB002010BD01201E
:101BC00010BDC04610B501F03DF8002801DD002031
:101BD00010BD012010BDC04610B500F0CFFF002899
:101BE00001DC002010BD012010BDC04610B500F082
:101BF000C5FF002801DA002010BD012010BDC0463D
:101C0000F0B557464E46DE464546E0B54402430031
:101C1000C60F83B00F1C640A1B0EB24653D0FF2BB5
:101C200027D08022E400D20414437F2252429046FF
:101C30009844002399469B467D027800FB0F6D0A6D
:101C4000000E009324D0FF2846D080230021ED0011
:101C5000DB041D437F384746381A4F460F43BF0009
:101C6000B9463300009A874F53404A46BA58019309
:101C70009746002C4ED108239946F7339846FD3BF2
:101C80009B467D027800FB0F6D0A000E0093DAD1AF
:101C9000002D26D1002001213300009A7A4F5340B5
:101CA0004246101A4A460A439200BA581D00974607
:101CB000009B2C009A468B465B46022B31D1534643
:101CC000FF21002438E0002C17D10423994600237B
:101CD000984601339B46AFE7FF20002D0BD1022130
:101CE000DAE7280001F0E8FD431F9D4076235B42C0
:101CF000181A0021AFE70321ADE7200001F0DCFD59
:101D0000431F9C4076235B421B1A9846002399464A
:101D10009B4691E70C239946F3339846FC3B9B4640
:101D20008AE7032B00D1A5E05546012B00D081E0C6
:101D30000123002100242B406402C905600ADB074F
:101D40000843184303B03CBC90469946A246AB46B4
:101D5000F0BD80240023E403FF21EDE7FF210024F0
:101D6000EAE70123591A1B2966DD019A1340002175
:101D70000024E1E78023DB031C4238D01D4251D010
:101D80001C436402640A3300FF21D5E763016C0140
:101D9000A3423BD21B260021013801251F00490028
:101DA0005B00002F01DB9C4201D81B1B2943013E35
:101DB000002EF3D11C00631E9C410C4301007F31B7
:101DC0000029CEDD630704D00F232340042B00D06D
:101DD0000434230103D501002C4B80311C40FE2923
:101DE0000DDD0123019AFF2113400024A4E7802385
:101DF000DB031C436402640A3300FF219CE70123D8
:101E0000019AA401640AC9B2134095E71B1B1A2664
:101E10000121C2E7009B8B469A4600244CE76302EF
:101E2000E5D500258024E4032C436402640A009B6A
:101E3000FF2181E70195C1E723002020CB40411A13
:101E40008C40611E8C411C43630704D00F23234048
:101E5000042B00D00434630105D50123019A01212C
:101E60001340002468E70123019AA401640A134087
:101E7000002161E78023DB031C436402640A5346AC
:101E8000FF2159E7943A0000D43A0000FFFFFFF722
:101E9000F8B557464E464546DE46E0B54702460091
:101EA00088467F0A360EC40F002E47D0FF2E24D05E
:101EB000FB008027FF041F43002399469A467F3E7C
:101EC00043465D025800DB0F6D0A000E984643D072
:101ED000FF283BD0EB0080250022ED041D437F3816
:101EE0003618731C41469B464B46614013430F2BEB
:101EF00064D875489B00C3589F46002F42D10823E1
:101F00009946063BFF269A46DAE74146022A28D040
:101F1000032A00D1CEE0012A00D0ACE0114000201D
:101F20000022CCB24002D205400AE407104320430D
:101F30003CBC90469946A246AB46F8BD002F15D151
:101F400004239946033B00269A46B9E7FF20022264
:101F5000002DC5D00322C3E7002D19D10020012296
:101F6000BEE70124FF220C400020DBE7380001F02F
:101F7000A3FC7626431F9F4000237642361A9946DB
:101F80009A469DE70C239946093BFF269A4697E718
:101F9000280001F091FC431F9D4076235B42181AF4
:101FA00000229DE780200024C003FF22BAE73D0005
:101FB0005246ABE73D0021005246A7E73B0C9C464A
:101FC0002A04120C2B0C1400604665463F043F0C9B
:101FD0007C4342435D437B43270C9B18FF18BA4266
:101FE00003D980235B029C46654424043A04240CF4
:101FF000121993015C1EA3413F0C920E7D191A43E6
:10200000AD0115432B0104D501235E466A081D402E
:10201000154332007F32002A25DD6B0704D00F23E1
:102020002B40042B00D004352B0103D53200274B65
:1020300080321D40FE2A94DC0124A801400AD2B25D
:102040000C406FE78020C003074207D0054205D14E
:1020500028434002400A4446FF2263E738434002D7
:10206000400AFF225EE70124A31A1B2B05DD0C406A
:102070000022002056E75E46CBE72A002020DA4007
:10208000C31A9D402B005D1EAB4113435A0704D079
:102090000F221A40042A00D004335A0104D5012427
:1020A00001220C4000203DE701249B01580A0C400E
:1020B000002237E780200124C00328434002400A61
:1020C0000C40FF222EE7C046143B0000FFFFFFF745
:1020D000F0B54F46D64646464400C0B5C20F47024B
:1020E0004802400A844666467B0A4800C90F9A4661
:1020F000240E1500DB00000E8946F600FF2800D1F3
:102100008FE001214F464F403900914266D0221A9C
:10211000002A00DC9DE000283DD1002E00D18BE09C
:10212000511E002900D0B5E001249B1B5A0144D563
:102130009B019F09380001F0BFFB053887408442AE
:1021400000DD96E0041B3A0020200134E240041B2D
:10215000A7403B005F1EBB41002413435A0704D035
:102160000F221A40042A00D004335A0127D5013423
:10217000FF2C00D179E001229B015B0AE4B22A40E6
:102180005B02E405580AD207204310431CBC90466A
:102190009946A246F0BDFF2CE0D08021C9040E4331
:1021A0001B2A7BDC31002020D140821A9640721E0F
:1021B00096410E439B1B5A01BAD45A07D0D1012233
:1021C000DF082A40FF2C33D1002F00D1A8E0802364
:1021D000DB033B435B025B0AFF24D1E7211A0029A2
:1021E0004CDD00282AD0FF2CB8D08020C004064344
:1021F0001B2900DDAFE030002027C840791A8E404F
:10220000711E8E4106439B195901D6D50134FF2C0E
:1022100000D185E001227A491A405B080B40134344
:102220009CE7002E00D070E76BE73B1EC5D1002273
:102230007B025B0AE4B2A3E714008FE7002E4DD0C7
:10224000481E002857D19B1901245A01B5D50224F4
:10225000E0E7002A25D1621CD2B2012A72DD9F1B61
:102260007A0135D5F71A0D0064E7012200232A40D0
:1022700086E73B00634A241A13406FE700296CD1BC
:10228000611CC8B201284EDDFF2949D09B195B08AB
:102290000C0063E7FF2A41D00A0081E701269B1B5F
:1022A00089E7002C1CD0FF2821D08024E40452426E
:1022B00023431B2A00DD96E01C002025D440AA1AE7
:1022C00093405A1E93412343F31A04000D002DE757
:1022D000002F00D02EE700220024A9E70C003DE7E4
:1022E000002B58D0D243002AEED0FF28E1D1330092
:1022F000FF240D0032E7FF2910D0010078E7002B02
:102300006ED0FF24002E00D128E780225146D20350
:10231000114203D06146114200D13300FF241DE772
:10232000FF2400232CE7002CE9D1002B63D0002EE2
:1023300000D113E79B195A0100D43EE7314A0C0043
:1023400013400BE7002C1ED1002B2FD1002E4FD0B5
:1023500033000D0002E7012655E7002C1FD1002BAA
:1023600043D0C94300290BD0FF2839D01B2944DCB6
:102370001C002027CC40791A8B40591E8B412343E7
:102380009B19040040E7002B1AD1002E24D180278E
:102390000022FF031BE7330004000D00DEE6FF28E8
:1023A0001ED08024E40449422343DFE7002E00D1FD
:1023B000D4E69F1B7A0100D437E7F31A0D00CDE66F
:1023C000FF24002E00D1C9E680225046D2031042DD
:1023D000A4D060461042A1D133000D00FF24BDE619
:1023E0003300FF24BAE601236EE733000400B5E6AC
:1023F000002700221CE73300B0E60123C0E7C046F7
:10240000FFFFFF7DFFFFFFFB41024300C20F490AB0
:102410001B0E00207E2B0DDD9D2B0CDC802000048C
:102420000143952B0ADC9620C31AD9404842002A62
:1024300000D108007047034BD018FBE7963B99404A
:10244000F4E7C046FFFFFF7F70B5002830D0C31708
:10245000C4185C40C50F200001F02EFA9E231B1A01
:10246000962B0DDC9622D21A94402A006402640A4C
:10247000DBB26402DB05600AD2071843104370BD6B
:10248000992B19DC9922D21A002A29DD94402200C6
:10249000144C1440510704D00F210A40042A00D0E4
:1024A0000434620113D4A401640ADBB22A00E0E719
:1024B000002200230024DCE705222100121AD1406B
:1024C000B922D21A9440621E94410C43DAE7054BBC
:1024D0002A001C409F23A4011B1A640ADBB2C8E730
:1024E0002200D5E7FFFFFFFBF8B54546DE4657461D
:1024F0004E460C03E0B54E00C90F88460D00610A38
:10250000440F0C43C70019035800DB0F9B464B0ACE
:10251000510F0B43760D400D1900D200D84500D164
:10252000AEE0351A002D00DCF6E000280FD1134391
:1025300000D1DBE06B1E002B00D037E1BA1A9742C6
:10254000BF41641A7F42E41B0126170024E0C64BFA
:102550009E424DD080231B041943382D00DD07E136
:102560001F2D00DD38E12020431B9A460B0050460A
:102570008340994613004846EB40184303005046F9
:102580008240501E8241E9401A43BA1A611A9742AA
:10259000A441170064420C1B230262D56402650A41
:1025A000002D00D1DFE0280001F086F90300083B90
:1025B0001F2B00DDD2E020223C00D21A9D40D440E7
:1025C0009F4025439E4200DDC4E09E1B731C1F2BD1
:1025D00000DDF1E0202238002900D21AD8409140D5
:1025E00097402C000143781E8741DC4000260F43B2
:1025F0007B0709D00F233B40042B05D03B1DBB427A
:10260000BF417F42E4191F0023022CD5964B0136AF
:102610009E4200D19AE04546944BFF081C4060075B
:10262000760564020743240B760D00212403230B57
:102630000C0D8F4A24051C431440330523435B00D3
:10264000ED075B082B43380019003CBC90469946C7
:10265000A246AB46F8BD6446044300D111E2040033
:1026600067467B07C6D145466007FF080743E40875
:102670007D4B9E4230D024037605240B760DD4E7A3
:10268000331A9A46002B78DD002831D076488642EE
:10269000AED08020000401435346382B00DCE9E033
:1026A0000A43511E8A410021D219BA42BF41091979
:1026B0007C4217000C192302D3D56B4B01369E4286
:1026C00000D13AE10120694B1C407B0807401F43C1
:1026D000E007074364088BE723003B4300D1CBE1CD
:1026E0008022120314432403240B9EE72E007FE76D
:1026F0000800104300D1B4E0581E002800D0DEE0EE
:10270000BA18BA429B4164185B42E41817000126CC
:102710002302A6D50226D5E7002D6ED1701C4005F8
:10272000400D012800DCF9E0B81A84468742804158
:10273000E51A40422D1A280200D489E0D71BBA427C
:1027400092411C1B5242A51AD84629E7454600244F
:1027500000276AE7454CF61A2C4049E73D00283827
:10276000854000272EE7380001F0A6F820301DE74D
:102770000A43511E8A41002107E7002B00D0F3E0F5
:10278000701C43055B0D012B00DCADE0364B98421D
:1027900000D1D1E0BA18BA42BF4164187F42E419AF
:1027A000E707520817436408060021E72E488542D0
:1027B00000D193E01D00D0E629001F3EF140202B00
:1027C00000D18DE04022D31A9D402F437D1EAF41A2
:1027D00000240F43002644E72B000800203BD8408C
:1027E0000300202D00D17DE04020451BA9400A4375
:1027F000511E8A4100211A43C7E6002E50D01A4EBE
:10280000B04257D080266B429946360434434B463B
:10281000382B00DDD6E01F2B00DD35E12026F51A30
:102820002600AE40B2463E00DE40AC46350056467D
:102830002E436546AF407D1EAF41DC403743D71B7A
:10284000BA4292410C1B5242A41A0600D846A3E693
:10285000644667462C4300D0A2E6002500260027E8
:1028600006E71E00C4E6C046FF070000FFFF7FFF2B
:10287000FFFF0F801F2B63DC2020C31A0800984045
:102880009C46834653461000D840030058461843E0
:1028900063469A40531E9A4153460243D94003E788
:1028A00026003E4306D0EB439946002BC7D0944EFA
:1028B000B042ACD10C0017000600D84698E6904B09
:1028C0009A450BD08246E7E6002800D09EE018002B
:1028D000104300D1E9E01C001700D846884E87E677
:1028E000002572E7002182E723003B43002E00D041
:1028F000ABE0002B00D1E7E00B00134300D177E6FB
:10290000BA18BA42BF4164187F42E419230200D4C6
:10291000F2E07C4B17001C40060069E620003843BB
:10292000002ED1D100285BD11C00144300D1A8E0B7
:102930001C001700D8465BE606000024002797E637
:1029400050460B002038C34099465346202B00D1F7
:1029500095E0402350461B1A99400A43511E8A4174
:102960004B4600211A439FE6002E30D126003E43FD
:1029700067D0DB439A46002B1CD0614EB04260D03A
:102980005346382B00DD96E01F2B00DD9FE020260C
:10299000F31A26009E409C46B34653463E00DE4056
:1029A00033005E461E4363469F407B1E9F41534655
:1029B000DC403743BF189742924164185242A41832
:1029C000060078E627437C1EA741002437E74C4EDB
:1029D000B04236D080265B4236049A463443CFE775
:1029E0001800104300D103E6B81A84466745AD418C
:1029F000E01A6D42401B050200D42CE6D71BBA42F8
:102A000092411C1B5242A41AD846F1E5180010430B
:102A100000D163E7F808670707438020E408000354
:102A2000044208D0DD08054205D1D20859071143F8
:102A30000F002C00D8467B0FE4001C43FF00304EF3
:102A4000D6E50C0017000600D2E5002B38D00B00AD
:102A5000134300D142E7F808670707438020E408E2
:102A600000030442E7D0CB080342E4D1D20849076F
:102A700011430F001C00DEE700270024D5E50021EC
:102A80006BE700250027F3E54E462500203EF54084
:102A90004B462E00202B2DD04025ED1AAC4027436D
:102AA0007C1EA74100243743C9E680240025240367
:102AB000134E0027DCE527437C1EA741002479E75D
:102AC0000C0017000E4E93E50C00170090E55646DB
:102AD0002300203EF34099465346202B0ED040233E
:102AE00056469B1B9C4027437C1EA7414B46002417
:102AF0001F435FE70024D2E71700B2E50024F2E7A6
:102B0000FF070000FFFF7FFFF0B54F464646D64661
:102B10005C00C0B51F03DB0F9A46174B0E034D0038
:102B200084468046360B6D0DC90F91463F0B640DF0
:102B300001209D4208D09C4201D0A5420BD01CBC74
:102B400090469946A246F0BD63463343F7D1AC4266
:102B5000F5D13A43F3D10120BE42F0D1C845EED1C0
:102B6000514507D0002DEAD163461E433000461E72
:102B7000B041E4E70020E2E7FF070000F0B545467A
:102B8000DE4657464E46E0B51F033D0B2C4F0E0365
:102B90004C00AB465D008446360B640DC90F904671
:102BA0006D0DDB0FBC422AD0254FBD422DD0002C2D
:102BB0000FD130430700814678427841C0B2002DE2
:102BC00017D15F463A4314D14B460020002B0AD060
:102BD00006E0002D02D15846024301D0994218D098
:102BE0004842012108433CBC90469946A246AB4668
:102BF000F0BD0028F2D00120013B1843F3E7370075
:102C00000743D1D002204042EDE75F461743CED0C4
:102C1000F8E7AC42E4DC03DA481E01210843E2E7AE
:102C20005E45DDD806D000205E45DCD20123481E7B
:102C30001843D8E7C445D3D80020C445F6D3D2E71B
:102C4000FF070000F0B54E464546DE4657465C009D
:102C5000E0B51F03DB0F99462A4B0E034D00C90F49
:102C60008446360B6D0D8B4690463F0B640D9D429E
:102C700020D0244B9C4222D0002D12D1304343421D
:102C80004341DBB2002C1FD0002B0CD04B4601205F
:102C9000013B034318003CBC90469946A246AB4614
:102CA000F0BD002C16D0CB4517D05B46594201230E
:102CB0000B43EFE7310002230143EBD1D9E73900A1
:102CC00002231143E6D1D7E73A43DDD100230028A0
:102CD000E0D0EAE73A43E6D1E7E7A542E5DC05DBE9
:102CE000BE42E2D807D00023BE42D3D259460123C8
:102CF00001390B43CEE7C445D7D80023C445F5D3EB
:102D0000C8E7C046FF070000F0B557464546DE4617
:102D10004E46E0B50C0398464E00230B87B00700E3
:102D200092469B46760DCD0F002E6BD06D4B9E428A
:102D300035D080245B46420F2404DB0014431C433F
:102D4000C3009946684BA3469C460023002766446F
:102D5000029343461C035A00DB0F5046240B520DCE
:102D6000984600D176E05F4B9A426DD08023410FA8
:102D70001B040B435C49E4008C461C43C300002049
:102D800062444146B6186940721C0191944607435B
:102D90000F2F00D9B0E0554ABF00D25997465B4685
:102DA0000343994600D087E000239B46023308275F
:102DB0000293CEE742460192022867D0032800D151
:102DC0000EE2012800D062E100230024002299468F
:102DD00001990140CDB2002112030B0D120B1B050E
:102DE0001343434A240513401C436400ED07640861
:102DF0002C434846210007B03CBC90469946A24669
:102E0000AB46F0BD034399464FD05B46002B00D143
:102E100089E1584600F050FD03000B3B1C2B00DD00
:102E20007AE11D22D31A3A0001005C46DA400839E3
:102E30008C4013008F4023439B46B94600232D4E00
:102E40000027361A029384E7534623432AD10024ED
:102E5000022096E75346234320D0002C00D157E1AF
:102E6000200000F029FD03000B3B1C2B00DD49E195
:102E70001D21CB1A51460200D9405346083A9440CE
:102E800093400C431B4A121A00207AE70125019B4C
:102E9000144C1D400023002299469CE70024002288
:102EA00001206EE7534603206BE700239B46013366
:102EB0000427002602934CE7032381460C27029344
:102EC00047E780220023002512039946054C82E73C
:102ED0005C464B4602986FE75C464B46019502986C
:102EE0006AE7C046FF07000001FCFFFF543B0000FB
:102EF000FFFF0F800DFCFFFF4A464946170C1A0CD6
:102F00001B041B0C08041900000C414315008846E3
:102F100019007D43794303958946290015004543EF
:102F20004D44029545462D0CAA46029D5544A9459F
:102F300006D98A46802149028946CA4451460391EE
:102F4000290C0491414609042D04090C88462900E6
:102F5000250C24044144240C05912100414388465A
:102F6000210079438A466843414650448146080C13
:102F700048446F43824503D98021490289464F4422
:102F8000010C894639004944029141460F040499D5
:102F90003F0C88460004C0198044414604915946BC
:102FA0000F0C0904090C884659438A4639005143DD
:102FB000894641464A435146090C8B467B43D21809
:102FC0005A44934203D980235B029B46D94451461D
:102FD0000904090C8A46414661437C43130C1204E0
:102FE0004B445244A1468A463C0041466C434D4303
:102FF00051464D440F0C7D19A94503D98021490242
:1030000088464444049F0399B84641448B4683450F
:10301000804141428846514608042F04000C3F1865
:103020005846029910188946904292414F44BA4638
:10303000524299469346C244D144CB448F42BF4149
:10304000C245894199459B41934592417F424942FE
:103050002D0C52420F435B4213437F19FF185B460E
:103060003C19DB0D059A64021C43430213435D1EA9
:10307000AB415A46C00D034352021343E20156D5F9
:1030800001205A0803401343E207134364085A48D7
:10309000604400284DDD5A0709D00F221A40042A47
:1030A00005D01A1D9A429B415B42E4181300E201CD
:1030B00004D58020514AC00014406044504A9042D8
:1030C00000DDE3E60125DB0862071A436402019B89
:1030D0009146220B4405640D1D407CE68022594632
:1030E0001203114208D0144206D122431203120BDC
:1030F00045469946434C6EE65B461A431203120B53
:10310000404C68E603005446283B9C400023B9E647
:1031100000F0D2FB2030A6E60300283B9F400023AE
:10312000BB4699468AE600F0C7FB203074E6B446F9
:10313000ADE701252A1A382A06DD019B00241D402F
:1031400000230022994646E61F2A21DC2025200084
:10315000AD1A1E00AB40A840D6405D1EAB413043C7
:103160001843D440430709D00F230340042B05D054
:103170000300181D98429B415B42E418230221D5AD
:103180000125019B01241D4000230022994622E6CF
:103190001F2521006D42281AC1400800202A1DD099
:1031A0005F35AA1A944023435C1EA34107250343BD
:1031B0001D400022002D09D00F2200241A401800C3
:1031C000042AD6D1030065076402220BDB082B43D7
:1031D00001259946019B00241D40FCE50024E2E7FF
:1031E000802201251203224301991203120B0D4084
:1031F0009946044CEFE5C046FF030000FFFFFFFEC9
:10320000FE070000FF070000F0B54646D6464F46D1
:103210000C03C0B5CD0F4E00610A440F0C43C10032
:103220005800400D84468A460F001903500F490A82
:103230000143C648760DA846DB0FD200844500D175
:10324000D8E001204340AB4200D1A6E06046351AE9
:10325000002D00DC05E1002810D10B00134300D144
:10326000D7E06B1E002B00D04BE153469F1ABA45A6
:103270008041641A4042241A01261EE0B34B9E424C
:1032800048D080231B041943382D00DD19E11F2D80
:1032900000DD4CE120230F005B1B10009A409F4093
:1032A000E840531E9A41E940074317435346DF1B4A
:1032B000611ABA45A44164420C1B230200D4C5E044
:1032C0006402650A002D00D1F6E0280000F0F4FA4F
:1032D0000300083B1F2B00DDE9E020223C00D21A4E
:1032E0009D40D4409F4025439E4200DDDBE09E1B75
:1032F000731C1F2B00DD0AE120223800D21A29009E
:1033000097402C009140D8407A1E9741DC4000261F
:1033100001430F437B0709D00F233B40042B05D00B
:103320003B1DBB42BF417F42E4191F00230225D54C
:10333000864B01369E4200D1AFE0854B01251C40F3
:1033400043466207FF08640276051743240B760D97
:103350001D4000212403230B0C0D7E4A24051C4331
:103360001440330523435B00ED075B082B43380013
:1033700019001CBC90469946A246F0BD0125434663
:103380006207FF081743E4081D40704B9E4236D089
:1033900024037605240B760DDBE76346F31A002B36
:1033A00000DC94E06046002835D068488642B1D001
:1033B00080273F043943382B00DCFDE00A43170027
:1033C00000217A1E974157445745804109194442CC
:1033D0000C1923023AD55D4B01369E4200D14BE1D8
:1033E00001225B4B1C407B0817401F43E207174339
:1033F00064088FE70800104300D024E721E723008A
:103400003B4300D1B9E18022120314432403240B6F
:103410009FE72E007EE70800104300D1CAE0581E47
:103420008446002800D0E7E05244524580416418A9
:103430004042241817000126230207D50226CFE7B1
:1034400064462C4300D1B3E12C0067467B0700D0D3
:1034500062E76307FF081F4301254346E4081D4058
:1034600093E7002D78D1751C6D056D0D012D00DCE5
:10347000F2E05046801A8245BF41651A7F42ED1B3B
:103480008446280200D48CE05046171ABA42924172
:103490000C1B5542651B984614E701254346002442
:1034A0001D40002755E72A4CF61A2C4032E73D0014
:1034B00028388540002717E7380000F0FDF9203054
:1034C00006E70A43170000217A1E9741EEE6002B1B
:1034D00000D0E5E0731C9C465B055B0D012B00DC16
:1034E0009FE01A4B9C4500D1C5E0524452458041B3
:1034F000641840422418E7075208174364086646D8
:1035000008E71248854200D185E01D00BCE629008D
:103510001F3EF140202B00D17FE04022D31A9D4076
:103520002F437D1EAF4100240F4300268EE72B0062
:103530000F00203BDF40202D71D040235D1BA940B0
:103540000A43511E8A4100211743AFE6FF070000DE
:10355000FFFF7FFFFFFF0F80002E3ED0B34EB4452C
:1035600045D0802636046D423443382D00DDA8E076
:103570001F2D00DD1FE1202627005046761BB74097
:10358000E84007435046B040461EB041EC40384347
:10359000171ABA4292410C1B5242A41A6646984628
:1035A0008BE6644667462C4300D08BE60025002658
:1035B0000027EAE61E00ADE61F2B60DC2027F81A84
:1035C0000F00844687401000D84007436046824081
:1035D000501E8241D9401743F5E626005046064367
:1035E00005D0ED43002DD3D0904EB445BDD10C0095
:1035F0001700664698468DE68C4883420BD063469A
:10360000D9E6002D00D096E00800104300D1E2E09A
:103610000C0017009846854E7CE6002580E70021C7
:103620008EE7230050460343002E00D0A8E0002B75
:1036300000D1DEE00B00134300D16BE6524452454B
:1036400080416418404224181700230200D4FDE68C
:10365000774B66461C405DE6250050460543002E2C
:10366000CFD1002D4FD10C00144300D1A0E00C00AD
:10367000170098464EE666460024002785E61F00A0
:103680000800203FF8400700202B00D18EE04020AA
:10369000C31A99400A43511E8A410021174392E6FA
:1036A000002E14D126005046064362D0DB43002B87
:1036B0005CD187189742924164185242A41866461A
:1036C00087E650462043441EA041002460E7574E41
:1036D000B4454ED0802636045B423443382B00DD9F
:1036E0007FE01F2B00DD8BE0202627005046F61AD6
:1036F000B740D84007435046B040461EB04107434C
:10370000DC40BF18D6E70D00154300D102E6504655
:10371000801A8245BF41651A7F42ED1B844628020C
:1037200000D48DE65046171ABA4292410C1B524201
:10373000A41A9846EEE50D00154300D16BE75046FC
:103740006707C00807438020E4080003044207D04D
:10375000CD08054204D12C009846D70849070F43ED
:103760007B0FE4001C43FF00304ED3E52F4EB445E1
:10377000B4D10C0017006646CCE500270024E8E52C
:10378000002B39D00B00134300D144E7C008670772
:1037900007438020E40800030442E1D0CB08034241
:1037A000DED1D70849070F431C00D9E7002171E794
:1037B00000250027E9E52E002700203EF740202DB8
:1037C0002FD04026751BAC4050462043441EA041DC
:1037D00000243843DCE6802400252403134E002710
:1037E000D3E5504620430700781E87410024BF18C8
:1037F00060E70C0017008DE50C0017000B4E89E503
:103800001E002700203EF740202B0CD04026F31A44
:103810009C4050462043441EA04107430024BF184B
:1038200048E70024D0E70024F3E7C046FF07000084
:10383000FFFF7FFF70B5002830D0C317C4185C406D
:10384000C50F200000F038F8174B184A1B1AD21A7F
:103850001F2A18DD164AD21A9440002224035B0561
:10386000240B5B0D0021100024030A0D240B12050C
:103870002243104C1B05224013435B00ED075B08FD
:103880002B43190070BD210091400A000B21081A3A
:10389000C4405B052403240B5B0DE3E700250023F4
:1038A00000240022DEE7C0461E04000033040000AE
:1038B00013040000FFFF0F801C2101231B0498420A
:1038C00001D3000C10391B0A984201D3000A0839B1
:1038D0001B09984201D30009043902A2105C401868
:1038E0007047C0460403020201010101000000000C
:1038F0000000000070B50D4E0D4D0024AD1BAD1045
:1039000005D0A300F35801349847A542F9D100F03F
:1039100043F9084E084D0024AD1BAD1005D0A3009F
:10392000F35801349847A542F9D170BDA43B00007B
:10393000A43B0000A43B0000AC3B0000034B10B5CF
:10394000002B02D0024800F005F810BD0000000076
:103950006539000010B5010000230022002000F0AE
:103960001FF810BD70B5094B094CE41AA41009D01A
:10397000084AA518AD00ED182B68013C9847043D96
:10398000002CF9D100F012F970BDC046B83B000020
:10399000BC3B0000FFFFFF3F7047C0467047C0467A
:1039A000F0B54E464546DE465746E0B5364D83B047
:1039B0000600286898460F009146FFF7EDFF334B4D
:1039C0001C68A4235B00E058002852D043681F2BDA
:1039D00013DC5A1C0192002E28D1019A02339B005D
:1039E00042601F502868FFF7D9FF002003B03CBC9D
:1039F00090469946A246AB46F0BD254B002B3DD0E4
:103A0000C820400000E000BF002837D0A4220023D7
:103A10005200A15843600160A050403283500432EC
:103A20008350013301930023002ED6D09A00924692
:103A300082444A46882154466250C422520091462C
:103A400081444A468739994012688B460A43944616
:103A50004A4661461160842241465200A150022E1E
:103A6000BBD102005C468D32FF3211680C431460FA
:103A7000B3E720004D30FF30E050A7E72868FFF79C
:103A80008DFF01204042B1E780040020943B0000FC
:103A9000000000008C1D00005C1D00006E1D000079
:103AA000B01C00006E1D0000521D00006E1D0000C5
:103AB000B01C00005C1D00005C1D0000521D0000D9
:103AC000B01C0000B81C0000B81C0000B81C0000AE
:103AD000741D00005C1D00005C1D0000301D000016
:103AE000141E0000301D0000521D0000301D00009B
:103AF000141E00005C1D00005C1D0000521D000033
:103B0000141E0000B81C0000B81C0000B81C000007
:103B10001E1E0000BC1F00000C1F00000C1F000038
:103B20000A1F0000AE1F0000AE1F0000A41F00000F
:103B30000A1F0000AE1F0000A41F0000AE1F0000FF
:103B40000A1F0000B41F0000B41F0000B41F0000D3
:103B500044200000F82E0000B82D0000B82D000011
:103B6000B42D0000D02E0000D02E0000C22E000088
:103B7000B42D0000D02E0000C22E0000D02E000078
:103B8000B42D0000D82E0000D82E0000D82E000042
:103B9000DC30000058000020F8B5C046F8BC08BC76
:103BA0009E4670473D390000DD000000F8B5C04674
:0C3BB000F8BC08BC9E467047B500000041
:103BBC0000000000FFFFFFFF0100000000000000FC
:103BCC00010000000000000000000000FFFFFFFFEC
:103BDC00FFFFFFFF000000000000000001000000DC
:103BEC000000000001000000FFFFFFFF00000000CC
:103BFC000800000032000000FFFFFFFF010101017F
:103C0C0000140042000000000000000044030020EB
:103C1C00AC03002014040020000000000000000091
:103C2C000000000000000000000000000000000088
:103C3C000000000000000000000000000000000078
:103C4C000000000000000000000000000000000068
:103C5C000000000000000000000000000000000058
:103C6C000000000000000000000000000000000048
:103C7C000000000000000000000000000000000038
:103C8C000000000000000000000000000000000028
:103C9C000000000000000000000000000000000018
:103CAC000000000000000000000000000000000008
:103CBC0001000000000000000E33CDAB34126DE6A5
:103CCC00ECDE05000B00000000000000000000000E
:103CDC0000000000000000000000000000000000D8
:103CEC0000000000000000000000000000000000C8
:103CFC0000000000000000000000000000000000B8
:103D0C0000000000000000000000000000000000A7
:04403C0068070020F1
:00000001FF
