:10000000880B0020150100000D0200000D02000009
:1000100000000000000000000000000000000000E0
:100020000000000000000000000000000D020000C1
:1000300000000000000000000D0200000D020000A2
:100040000D0200000D0200000D0200000D02000074
:10005000010E00000D0200000D0200000D02000064
:100060000D0200000D0200000D0200000D02000054
:100070000D02000000000000000000000D02000062
:100080000D0200000D0200000D0200000D02000034
:100090000D02000000000000000000000D02000042
:1000A0000D0200000D0200000D0200000D02000014
:1000B0000000000010B5064C2378002B07D1054B3B
:1000C000002B02D0044800E000BF0123237010BDC4
:1000D0007C04002000000000D81F0000084B10B571
:1000E000002B03D00749084800E000BF0748036819
:1000F000002B00D110BD064B002BFBD09847F9E731
:100100000000000080040020D81F0000D81F00005D
:100110000000000080B582B000AF2F4B7B602F4BFA
:100120003B607A683B689A420CD007E03B681A1D36
:100130003A607A68111D796012681A603A68284B33
:100140009A42F3D3274B3B6004E03B681A1D3A60A8
:1001500000221A603A68244B9A42F6D3234B7B6004
:10016000234B7A68FF218A439A60224A90235B00DE
:100170000221D150204AD37803218B43191C02233A
:100180000B43D3701C4AD3780C218B43191C0823D2
:100190000B43D370194A937B30218B43191C2023C6
:1001A0000B439373154A937B0C218B43191C082333
:1001B0000B439373114A937B03218B43191C022336
:1001C0000B4393730E4A536880210B4353600D4BCE
:1001D00098470D4B9847FEE7D81F0000000000200D
:1001E0007C0400207C040020880700200000000020
:1001F00000ED00E000700041005000410048004167
:1002000000400041D11D0000AD11000080B500AFDD
:10021000FEE7000080B582B000AF0200FB1D1A703F
:10022000FB1D1B787F2B09D8064BFA1D1278110095
:100230001F220A40012191400A001A60C046BD46B3
:1002400002B080BD00E100E0B0B582B000AF0200B6
:100250003960FB1D1A70FB1D1B787F2B28D82F4C93
:10026000FB1D1B785BB29B082C49FA1D127852B219
:100270009208C03292005258F91D097808000321F3
:100280000140C900FF2088400100C94311403A687D
:100290009201FF201040FA1D1278150003222A4017
:1002A000D200904002000A43C0339B001A5131E053
:1002B0001B4CFB1D1B781A000F231340083B9908A9
:1002C000174AFB1D1B7818000F230340083B9B08AF
:1002D00006339B00D31804331B68FA1D12781000F4
:1002E00003220240D200FF2090400200D2431A4075
:1002F0003B689B01FF201840FB1D1B781D0003235A
:100300002B40DB00984003001A438B1D9B00E31831
:1003100004331A60C046BD4602B0B0BD00E100E043
:1003200000ED00E080B582B000AF78600A00FB1CF1
:100330001A707B68FA1C12785A737B6800221A7351
:10034000C046BD4602B080BD80B582B000AF7860C7
:100350000A00FB1C1A707B68FA1C12785A747B68BE
:1003600000221A60FB1C1B7801229A407B681A60ED
:10037000C046BD4602B080BD80B582B000AF786097
:100380000A00FB1C1A707B68FA1C1278DA73C046EC
:10039000BD4602B080BD80B582B000AF78600A0073
:1003A000FB1C1A707B68FA1C12781A74C046BD4692
:1003B00002B080BD80B582B000AF78600A00FB1C3F
:1003C0001A707B68FA1C12789A73FB1C1B78092B35
:1003D0000DD122497B685B7B18007B681A68C301DA
:1003E000CB1808331A607B6800221A7331E0FB1CBB
:1003F0001B78082B2AD17B6800221A7317497B6867
:100400005B7B18007B681A68C301CB1804331A6041
:100410007B681B7C012B0AD110497B685B7C180030
:100420007B681A68C301CB1818331A6011E07B6827
:100430001B7C022B0DD109497B685B7C18007B6813
:100440001A68C301CB1814331A6002E07B680122DA
:100450001A73C046BD4602B080BDC046004400418C
:1004600090B585B000AF78600C0010001900FB1C3F
:10047000221C1A70BB1C021C1A707B1C0A1C1A70EE
:10048000BB1C1A787B6811001800434B98477B1CF3
:100490001A787B6811001800404B9847FB1C1A78AB
:1004A0007B68110018003E4B98477B689B68802250
:1004B000D2051A437B689A600E23FB1801221A802A
:1004C0007B685B7C0F2B0AD80E23FB181B887A688D
:1004D000527C93401A000E23FB181A8010E07B68B0
:1004E0009B68802212061A437B689A600E23FB18D1
:1004F0001A887B685B7C103B9A400E23FB181A809D
:100500007B689A680E23FB181B881A437B689A60E5
:100510007B689B7B092B0AD17B68DB7B012B06D197
:100520007B689B688022D2031A437B689A607B6851
:100530009B7B082B06D17B689B68802292021A4322
:100540007B689A607B689B7B082B0AD17B681B7C4D
:10055000002B06D17B689B688022D2021A437B68FD
:100560009A607B681B7B002B11D07B689A687B6844
:100570009B7B1B061900F0231B050B401A437B686D
:100580009A607B689B68074A1A437B689A60C046FA
:10059000BD4605B090BDC04679030000970300003A
:1005A000B50300000000011090B583B000AF786083
:1005B0000C0010001900FB1C221C1A70BB1C021C32
:1005C0001A707B1C0A1C1A707B1C1C78BB1C1A78C6
:1005D000FB1C197878682300074CA04707497B6803
:1005E0005B7B18007B689A68C301CB1828331A60BC
:1005F000C046BD4603B090BD610400000044004108
:1006000080B582B000AF78600A00FB1C1A70FB1C3A
:100610001B78002B09D00F497B685B7B18007B6837
:100620001A68C301CB1818331A60FB1C1B7801220F
:100630005340DBB2002B09D006497B685B7B180076
:100640007B681A68C301CB1814331A60C046BD46D4
:1006500002B080BD0044004180B584B000AF786036
:10066000094A7B685B7BDB01D31820331B68FB6086
:100670007B681B68FA6813405A1E9341DBB218006E
:10068000BD4604B080BDC0460044004180B582B084
:1006900000AFFB1D00221A70FB1D1A78E64B1100FB
:1006A0001800E64B9847FB1D1A78E54B110018001F
:1006B000E24B9847FB1D1A78E24B11001800DF4B04
:1006C0009847FB1D1A78E04B11001800DB4B984748
:1006D000FB1D1A78DD4B11001800D84B9847FB1D05
:1006E0001A78DB4B11001800D44B9847FB1D1A7881
:1006F000D84B11001800D14B9847FB1D1A78D64BE8
:1007000011001800CD4B9847FB1D1A78D34B1100F0
:100710001800CA4B9847FB1D1A78D14B11001800DE
:10072000C64B9847FB1D1A78CE4B11001800C34BDF
:100730009847FB1D1A78CC4B11001800BF4B984707
:10074000FB1D1A78C94B11001800BC4B9847FB1DC4
:100750001A78C74B11001800B84B9847FB1D1A7840
:10076000C44B11001800B54B9847FB1D1A78C24BBB
:1007700011001800B14B9847FB1D1A78BF4B1100B0
:100780001800AE4B9847FB1D1A78BD4B110018009E
:10079000AA4B9847FB1D1A78BA4B11001800A74BBB
:1007A0009847FB1D1A78B84B11001800A34B9847C7
:1007B000FB1D1A78B54B11001800A04B9847FB1D84
:1007C0001A78B34B110018009C4B9847FB1D1A7800
:1007D000B04B11001800994B9847FB1D1A78AE4B8F
:1007E00011001800954B9847FB1D1A78AB4B110070
:1007F0001800924B9847FB1D1A78A94B110018005E
:100800008E4B9847FB1D1A78A64B110018008B4B96
:100810009847BB1D00221A70BB1D1A78864B110029
:100820001800A14B9847BB1D01221A70BB1D1A78F6
:10083000834B110018009C4B9847BB1D02221A7075
:10084000BB1D1A787F4B11001800974B9847BB1DB2
:1008500003221A70BB1D1A787B4B11001800924BB3
:100860009847BB1D04221A70BB1D1A78774B1100E4
:1008700018008D4B9847BB1D05221A70BB1D1A78B6
:10088000734B11001800884B9847BB1D06221A7045
:10089000BB1D1A786F4B11001800834B9847BB1D86
:1008A00007221A70BB1D1A786B4B110018007E4B83
:1008B0009847BB1D08221A70BB1D1A78674B1100A0
:1008C0001800794B9847BB1D09221A70BB1D1A7876
:1008D000634B11001800744B9847BB1D0A221A7015
:1008E000BB1D1A785F4B110018006F4B9847BB1D5A
:1008F0000B221A70BB1D1A785B4B110018006A4B53
:100900009847BB1D0E221A70BB1D1A78574B110059
:100910001800654B9847BB1D0F221A70BB1D1A7833
:10092000534B11001800604B9847BB1D10221A70E2
:10093000BB1D1A784F4B110018005B4B9847BB1D2D
:1009400011221A70BB1D1A784B4B11001800564B20
:100950009847BB1D12221A70BB1D1A78474B110015
:100960001800514B9847BB1D13221A70BB1D1A78F3
:10097000434B110018004C4B9847BB1D16221A70B0
:10098000BB1D1A783F4B11001800474B9847BB1D01
:1009900017221A70BB1D1A783B4B11001800424BEE
:1009A0009847BB1D18221A70BB1D1A78374B1100CF
:1009B00018003D4B9847BB1D19221A70BB1D1A78B1
:1009C000334B11001800384B9847BB1D1B221A707F
:1009D000BB1D1A782F4B11001800334B9847BB1DD5
:1009E0001C221A70BB1D1A782B4B110018002E4BBD
:1009F0009847BB1D1D221A70BB1D1A78274B11008A
:100A00001800294B9847BB1D1E221A70BB1D1A786F
:100A1000234B11001800244B9847BB1D1F221A704E
:100A2000BB1D1A781F4B110018001F4B9847C0467A
:100A3000BD4602B080BDC0469805002025030000D9
:100A40008405002034060020E40600204005002034
:100A50004806002010070020880600203C070020E0
:100A600028070020B00500205C060020D8050020E3
:100A70009C060020540500200406002018050020D4
:100A8000F0050020C4050020B40600205007002017
:100A900020060020FC0600207005002074060020BF
:100AA000D00600202C0500204903000080B582B04C
:100AB00000AF284A53681E218B4302210B43536029
:100AC000C046254BDB68DB06DB0FDBB2002BF8D022
:100AD000214B02229A84C0461F4BDB68DB06DB0FEA
:100AE000DBB2002BF8D01D4B1B689B0E7B601C4BB0
:100AF0001B689B059B0D3B60174B7A6892021204A2
:100B0000110C3A689205920D0A439A62C046124B44
:100B1000DB68DB06DB0FDBB2002BF8D00E4A938CD0
:100B200002210B439384C0460B4BDB68DB06DB0FD3
:100B3000DBB2002BF8D00B4B0B4A5A60C046094B76
:100B40005B781B06DB0FDBB2002BF8D1C046BD463D
:100B500002B080BD004000410008004024608000D9
:100B600028608000000C00400007030080B500AF43
:100B7000124B00229A60114B114A5A80114B114AB4
:100B8000926920210A439A610F4B00221A800F4B71
:100B900030221A600C4A0C4BDB79DBB201210B438B
:100BA000DBB2D371084A084B1B889BB202210B436E
:100BB0009BB21380C046BD4680BDC046000C0040BD
:100BC00004400000000400400014004018140040DD
:100BD00080B584B000AF78607B68FB600EE00B4BA3
:100BE00000221A600A4B01221A72C046084B1B7A77
:100BF000DBB2002BFAD0FB68013BFB60FB68002BEB
:100C0000EDDCC046BD4604B080BDC04618140040AF
:100C100000140040B0B500AF624802230022092151
:100C2000614CA047614A624B1B689BB21900614B43
:100C30000B4393625D4A604B1B689BB219005D4B8E
:100C40000B439362594A5D4B1B689BB21900594B89
:100C50000B439362554A554B1969554B1B6898B223
:100C6000554B1B689BB2034398B2544B1B689BB215
:100C700003439BB20B431361514802230022092115
:100C8000494CA0474F48022300220921464CA04767
:100C90004D48022300220921434CA0474B48022320
:100CA00000220921404CA047494802230022092183
:100CB0003D4CA04747480223002209213A4CA04757
:100CC0004548022300220921374CA047434802230C
:100CD00000220921344CA047414802230022092167
:100CE000314CA0473E4B002118003E4B98472D4BFE
:100CF000002118003B4B9847314B01211800394B1C
:100D00009847304B01211800364B98472E4B012154
:100D10001800344B98472D4B00211800314B984751
:100D20002B4B012118002F4B98472A4B002118000C
:100D30002C4B98472C4B1A78284B11001800294B44
:100D40009847254B00211800264B9847184B180050
:100D5000264B984703001A00254B1A70164B1800B3
:100D6000224B984703001A00224B1A70134B1800AD
:100D70001E4B984703001A001F4B1A701C4B1B7820
:100D80005AB21C4B1B785B005BB213435AB21A4B2E
:100D90001B789B005BB213435AB2184B1A70C046C3
:100DA000BD46B0BD3C070020A9050000004400413D
:100DB000980500200000064084050020340600202D
:100DC0005C06002028070020B00500201805002040
:100DD000F005002054050020D80500209C060020C6
:100DE0000406002001060000180600205906000035
:100DF0006C050020F8060020EC050020B00600205D
:100E000080B582B000AF524B1B692022134005D140
:100E10004F4B1B691022134000D194E04D4B1B6ACD
:100E20007B604D4B1B687A6813405A1E9341DAB2BF
:100E3000FB1C1A70494B1B687A6813405A1E934179
:100E4000DAB2BB1C1A70464B1A78464B1A70FB1C60
:100E50001B78DB18DAB2BB1C1B78D318DAB2404B14
:100E60001A70414B00229A56404B1A70404B002298
:100E70009A563D4B1A703B4B1B789B00384A1278B0
:100E80009A183C4B9200D3585AB2394B1A70384BCF
:100E90001B785BB21A00384B1B68D218364B1A60AD
:100EA000364B1B78002B03D1354B1B68282B1CDDE0
:100EB0002E4B1B785BB2013317D12B4B1B785BB2E7
:100EC000013312D12A4B1B785BB201330DD12D4B6C
:100ED0001B78002B09D02C4B1B7801225340DBB22E
:100EE000002B02D0284B01221A70244B1B78002BB8
:100EF00003D1234B1B68282B1FDD1C4B1B785BB2D7
:100F0000012B1AD1184B1B785BB2012B15D1184B52
:100F10001B785BB2012B10D11A4B1B780122534076
:100F2000DBB2002B09D0184B1B7801225340DBB2F7
:100F3000002B02D0144B01221A70054B044A12698F
:100F400030210A431A61C046BD4602B080BDC0468A
:100F500000180040004400414005002048060020E1
:100F6000C5040020C6040020C80600202407002075
:100F7000AE05002000000020CC040020F90600206F
:100F8000C804002018060020D904002080B500AF56
:100F9000224B224A926940210A439A61204B214AFE
:100FA0005A80214A214B1B689BB21900204B0B43EE
:100FB00093621D4A1F4B1B689BB219001C4B0B43CD
:100FC00093621D4B1C4A526830210A435A601A4BE7
:100FD000194A9269BB2109040A439A61164B164AC1
:100FE000D26830210A43DA60134A134B1B78DBB214
:100FF00002210B43DBB2137000210C200F4B9847EA
:10100000012104200D4B98470C200D4B98470420DC
:101010000B4B984762B6C046BD4680BD00040040F9
:10102000000C00400540000000440041480600203C
:101030000000035040050020001800404902000055
:101040001502000080B500AF4A4B00221A604A4BDF
:1010500000221A70494B00221A70494B00221A7064
:10106000484B00221A701CE0474B1A78474B11007E
:101070001800474B9847444B1B785A1E9341DBB2EC
:1010800001225340DBB21A1C01231340DAB23E4B5B
:101090001A703C203F4B9847364B1B685A1C354B07
:1010A0001A60384B1B7801225340DBB2002BDBD196
:1010B0006420384B98472F4B00221A60364B002291
:1010C0001A60364B00221A60354B00221A602A4BF8
:1010D00000221A70294B00221A70294B00221A7024
:1010E000304B1B785A1E9341DBB201225340DBB2D6
:1010F0001A1C01231340DAB22A4B1A70294B1A78B2
:10110000294B11001800224B98471E4B00221A70E1
:1011100021E01D4B1A781D4B110018001C4B9847FD
:10112000194B1B785A1E9341DBB201225340DBB2AC
:101130001A1C01231340DAB2134B1A703C20154BD2
:101140009847174B1B685A1C154B1A60094B1B68B4
:101150005A1C084B1A600B4B1B7801225340DBB220
:10116000002BD6D10C4B1A680C4B1A60C046BD46FA
:1011700080BDC046C8040020AE050020C80600207F
:1011800024070020D904002049000020D8050020B1
:1011900001060000D10B0000CC040020CC0600208A
:1011A000D4040020180600209C06002090B583B0CF
:1011B00000AFBB4B9847BB4B9847BB4B9847BB4BCB
:1011C0009847BB4B9847BB4B98470020BA4B984772
:1011D000BA4B00221A60BA48022300220921B94CF6
:1011E000A047B94B00221A70B84B00221A70B84BB6
:1011F00000221A70B74B00221A70B74B64221A6093
:10120000B44B1A78B54B11001800B54B9847B54B45
:1012100000221A70B44B1A68B44B10009847041C93
:10122000B34B9847021CB34B111C201C9847031C5E
:101230001A1CB14B101C98470200B04B1A60A94B06
:101240001B7801225340DBB2002B00D17FE0AC4B76
:101250001B78002B00D17AE0AA4B1A68AA4B1B68B6
:10126000D21AA64B1B689A420BDAA64B1A68A64BF9
:101270001B68D218A14B1B689A4202DDA04B0022CA
:101280001A70A04B1A68A04B1B68D21A9B4B1B68A4
:101290009A4219DD8F4B1B78002B15D08A4B002208
:1012A0001A708A4B00221A70894B00221A70894BDF
:1012B00000221A70884B00221A60864B1A78874BDE
:1012C00011001800864B98478E4B1A688E4B1B688E
:1012D000D2188A4B1B689A421CDA7E4B1B7801227B
:1012E0005340DBB2002B15D0774B00221A70774B9E
:1012F00000221A70764B00221A70764B01221A7067
:10130000754B00221A60734B1A78744B1100180049
:10131000734B9847704B1B685A1C6F4B1A607B4B82
:101320001A787B4B110018006D4B9847774B1B7850
:101330005A1E9341DBB201225340DBB21A1C012337
:101340001340DAB2714B1A703C20724B9847654BD0
:101350001B78002B10D0704B01211800604B984770
:101360006E4B18006B4B98475E4B00221A706A4B0D
:10137000002118005A4B9847614B1B7801225340BB
:10138000DBB2002B00D174E0654B1800614B98472D
:101390005C4B1A685C4B1B68D218584B1B689A420E
:1013A00031DD584B1A68584B1B68D21A534B1B68D7
:1013B0009A4228DA4C4B1A685A4B1B685A435A4BCC
:1013C0000C211000984703001A004C4B1B689A42EE
:1013D00019D1404B1B7801225340DBB2002B05D0C2
:1013E000464B1B687B60454B64221A60394B1B7867
:1013F000002B08D0414B1B687B603B4B1B68643B58
:101400001A003E4B1A603F4B1A683F4B1B68D218BC
:101410003A4B1B689A420FDD3A4B1A683A4B1B68ED
:10142000D21A364B1B689A4206DA344B1B68642B7F
:1014300002D1324B7A681A60324B1A68324B1B6801
:10144000D2182E4B1B689A4213DD2E4B1A682E4B76
:101450001B68D21A294B1B689A420ADA224B1B6876
:10146000643B1A00254B1B689A4202D1234B7A68D1
:101470001A60244B1A68244B1B68D2181F4B1B6838
:101480009A4209DB1F4B1A681F4B1B68D21A1B4B71
:101490001B689A4200DCBDE6194B01221A70B9E6BE
:1014A000AD0A00008D0600008D0F00006D0B0000DE
:1014B000150C000045100000B1160000D0040020FB
:1014C00020060020A9050000AE050020C806002067
:1014D0002407002018060020C80400209C060020D5
:1014E00001060000D9040020CC060020F51C0000F5
:1014F00031170000751A0000B51C00001C06002002
:1015000048000020CC0400204400002049000020B6
:10151000D8050020D10B00005405002040420F00E8
:1015200080841E00400000209D18000070B55D4BB7
:101530001D682B7EDAB25BB2002B45DB0123134220
:1015400026D1022313420CD0698B574C090730D4A3
:1015500003236377002301212362544B1970022374
:101560002B76530713D5504C637F022B53D028237F
:101570000621ED5C206A00F08DF92300227FEDB298
:101580001633002A5FD05D54236A0133236270BD95
:1015900046490978002909D0434C617F032959D075
:1015A000617F022900D1A3770123637701232B7682
:1015B000C7E763776378002BCCD00121A37B4B4036
:1015C000A37300236370C5E7374C637F002B18D0EB
:1015D000637F032B0BD0637F022B10D1A36A0133EF
:1015E000A362636A013363620123A37707E00023E8
:1015F000A377236B01332363E36A0133E36201239F
:1016000063770021294B197080232B76D30798D557
:1016100001232B7695E7236A002B03D06B8B0022E6
:101620005B070DD40621206A00F034F9A27BA31CCD
:10163000002A01D1230008335A5C236A0133236254
:101640002823EA54A3E7230010335D54236A0133AF
:1016500023629CE7236A052B1AD92100207F1631CB
:10166000002801D1210010318E784B787340CE785C
:1016700073400E7973400E7849797340DB43DBB2D7
:10168000994205D10123584001232077E37302E0FA
:10169000236B01332363E36A0133E3620023A377FF
:1016A00082E7C0464C000020E00400204A000020F1
:1016B0002021144B7030144AC0B21870136A4000D5
:1016C0000B431362114B124A5A80124B124A9A6210
:1016D000124A9A62124B1A6810231360F033536057
:1016E0005062D3699B07FCD4022113680B4313603B
:1016F000872393750B4B0C4A1A6080220B4B5201C7
:101700001A607047E004002000040040000C004014
:101710001740000000440041400001D2800001D287
:101720004C000020140500202D15000000E100E011
:10173000124BDA7B002A02D1114B186870478020C7
:101740008022104940018850BFF34F8FBFF36F8F45
:101750000022DA731A00197F103200290AD0138888
:101760005088802200041843064B52011A60044B33
:101770001860E3E716331A00F1E7C046E0040020E2
:10178000DC04002000E100E0002243088B4274D317
:1017900003098B425FD3030A8B4244D3030B8B4272
:1017A00028D3030C8B420DD3FF22090212BA030C7B
:1017B0008B4202D31212090265D0030B8B4219D35C
:1017C00000E0090AC30B8B4201D3CB03C01A52417C
:1017D000830B8B4201D38B03C01A5241430B8B42C4
:1017E00001D34B03C01A5241030B8B4201D30B03AD
:1017F000C01A5241C30A8B4201D3CB02C01A5241D4
:10180000830A8B4201D38B02C01A5241430A8B4296
:1018100001D34B02C01A5241030A8B4201D30B027F
:10182000C01A5241CDD2C3098B4201D3CB01C01A99
:10183000524183098B4201D38B01C01A52414309A3
:101840008B4201D34B01C01A524103098B4201D391
:101850000B01C01A5241C3088B4201D3CB00C01AFE
:10186000524183088B4201D38B00C01A5241430876
:101870008B4201D34B00C01A5241411A00D201469B
:10188000524110467047FFE701B5002000F0F0F824
:1018900002BDC0460029F7D076E7704703460B43E8
:1018A0007FD4002243088B4274D303098B425FD359
:1018B000030A8B4244D3030B8B4228D3030C8B4285
:1018C0000DD3FF22090212BA030C8B4202D312126B
:1018D000090265D0030B8B4219D300E0090AC30B40
:1018E0008B4201D3CB03C01A5241830B8B4201D3ED
:1018F0008B03C01A5241430B8B4201D34B03C01AD6
:101900005241030B8B4201D30B03C01A5241C30A4D
:101910008B4201D3CB02C01A5241830A8B4201D3BE
:101920008B02C01A5241430A8B4201D34B02C01AA8
:101930005241030A8B4201D30B02C01A5241CDD24D
:10194000C3098B4201D3CB01C01A524183098B4298
:1019500001D38B01C01A524143098B4201D34B0181
:10196000C01A524103098B4201D30B01C01A5241E4
:10197000C3088B4201D3CB00C01A524183088B426B
:1019800001D38B00C01A524143088B4201D34B0054
:10199000C01A5241411A00D20146524110467047C6
:1019A0005DE0CA0F00D04942031000D340425340CB
:1019B00000229C4603098B422DD3030A8B4212D38B
:1019C000FC22890112BA030A8B420CD389019211BD
:1019D0008B4208D3890192118B4204D389013AD0FA
:1019E000921100E08909C3098B4201D3CB01C01ACF
:1019F000524183098B4201D38B01C01A52414309E2
:101A00008B4201D34B01C01A524103098B4201D3CF
:101A10000B01C01A5241C3088B4201D3CB00C01A3C
:101A2000524183088B4201D38B00C01A5241D9D254
:101A300043088B4201D34B00C01A5241411A00D2D5
:101A40000146634652415B10104601D34042002BD1
:101A500000D54942704763465B1000D3404201B550
:101A6000002000F005F802BD0029F8D016E7704705
:101A70007047C046F8B557464E464546DE46E0B587
:101A80004702460088467F0A360EC40F002E47D014
:101A9000FF2E24D0FB008027FF041F43002399461C
:101AA0009A467F3E43465D025800DB0F6D0A000EEA
:101AB000984643D0FF283BD0EB0080250022ED0460
:101AC0001D437F383618731C41469B464B46614088
:101AD00013430F2B64D875489B00C3589F46002FB3
:101AE00042D108239946063BFF269A46DAE741464B
:101AF000022A28D0032A00D1CEE0012A00D0ACE08F
:101B0000114000200022CCB24002D205400AE40776
:101B1000104320433CBC90469946A246AB46F8BDD4
:101B2000002F15D104239946033B00269A46B9E7B6
:101B3000FF200222002DC5D00322C3E7002D19D1BA
:101B400000200122BEE70124FF220C400020DBE739
:101B5000380000F01FF97626431F9F40002376428D
:101B6000361A99469A469DE70C239946093BFF266B
:101B70009A4697E7280000F00DF9431F9D40762311
:101B80005B42181A00229DE780200024C003FF2238
:101B9000BAE73D005246ABE73D0021005246A7E7B9
:101BA0003B0C9C462A04120C2B0C14006046654624
:101BB0003F043F0C7C4342435D437B43270C9B180F
:101BC000FF18BA4203D980235B029C466544240473
:101BD0003A04240C121993015C1EA3413F0C920E8F
:101BE0007D191A43AD0115432B0104D501235E462F
:101BF0006A081D40154332007F32002A25DD6B073D
:101C000004D00F232B40042B00D004352B0103D527
:101C10003200274B80321D40FE2A94DC0124A801AB
:101C2000400AD2B20C406FE78020C003074207D0C1
:101C3000054205D128434002400A4446FF2263E79B
:101C400038434002400AFF225EE70124A31A1B2BFF
:101C500005DD0C400022002056E75E46CBE72A0057
:101C60002020DA40C31A9D402B005D1EAB41134378
:101C70005A0704D00F221A40042A00D004335A0114
:101C800004D5012401220C4000203DE701249B01E2
:101C9000580A0C40002237E780200124C003284363
:101CA0004002400A0C40FF222EE7C046701F000091
:101CB000FFFFFFF741024300C20F490A1B0E00203D
:101CC0007E2B0DDD9D2B0CDC802000040143952B29
:101CD0000ADC9620C31AD9404842002A00D10800E5
:101CE0007047034BD018FBE7963B9940F4E7C0469A
:101CF000FFFFFF7F70B5002830D0C317C4185C40C9
:101D0000C50F200000F046F89E231B1A962B0DDC11
:101D10009622D21A94402A006402640ADBB264025A
:101D2000DB05600AD2071843104370BD992B19DCFC
:101D30009922D21A002A29DD94402200144C144022
:101D4000510704D00F210A40042A00D00434620154
:101D500013D4A401640ADBB22A00E0E700220023C6
:101D60000024DCE705222100121AD140B922D21A40
:101D70009440621E94410C43DAE7054B2A001C4054
:101D80009F23A4011B1A640ADBB2C8E72200D5E72F
:101D9000FFFFFFFB1C2101231B04984201D3000C11
:101DA00010391B0A984201D3000A08391B099842CE
:101DB00001D30009043902A2105C40187047C046E4
:101DC0000403020201010101000000000000000004
:101DD00070B50D4E0D4D0024AD1BAD1005D0A30008
:101DE000F35801349847A542F9D100F0E3F8084EC2
:101DF000084D0024AD1BAD1005D0A300F3580134ED
:101E00009847A542F9D170BDC01F0000C01F000057
:101E1000C01F0000C81F0000034B10B5002B02D0EC
:101E2000024800F005F810BD00000000411E00004F
:101E300010B5010000230022002000F01FF810BDA3
:101E400070B5094B094CE41AA41009D0084AA5182A
:101E5000AD00ED182B68013C9847043D002CF9D1EA
:101E600000F0B2F870BDC046D41F0000D81F0000BB
:101E7000FFFFFF3F7047C0467047C046F0B54E4673
:101E80004546DE465746E0B5364D83B00600286825
:101E900098460F009146FFF7EDFF334B1C68A423D3
:101EA0005B00E058002852D043681F2B13DC5A1CFB
:101EB0000192002E28D1019A02339B0042601F50EC
:101EC0002868FFF7D9FF002003B03CBC9046994634
:101ED000A246AB46F0BD254B002B3DD0C8204000AC
:101EE00000E000BF002837D0A42200235200A158F0
:101EF00043600160A050403283500432835001336C
:101F000001930023002ED6D09A00924682444A467E
:101F1000882154466250C4225200914681444A4668
:101F20008739994012688B460A4394464A4661466F
:101F30001160842241465200A150022EBBD1020002
:101F40005C468D32FF3211680C431460B3E7200009
:101F50004D30FF30E050A7E72868FFF78DFF0120E4
:101F60004042B1E778040020B01F000000000000EC
:101F7000A01B0000F01A0000F01A0000EE1A00008A
:101F8000921B0000921B0000881B0000EE1A00004C
:101F9000921B0000881B0000921B0000EE1A00003C
:101FA000981B0000981B0000981B0000281C0000D4
:101FB00050000020F8B5C046F8BC08BC9E467047EB
:101FC000191E0000DD000000F8B5C046F8BC08BCD2
:081FD0009E467047B5000000B9
:101FD80000000000FFFFFFFF0100000000000000FC
:101FE800010000000000000000000000FFFFFFFFEC
:101FF800FFFFFFFF000000000000000001000000DC
:102008000000000001000000FFFFFFFF00000000CB
:102018000800000032000000010101000014004225
:10202800000000003C030020A40300200C04002052
:102038000000000000000000000000000000000098
:102048000000000000000000000000000000000088
:102058000000000000000000000000000000000078
:102068000000000000000000000000000000000068
:102078000000000000000000000000000000000058
:102088000000000000000000000000000000000048
:102098000000000000000000000000000000000038
:1020A8000000000000000000000000000000000028
:1020B8000000000000000000000000000000000018
:1020C8000000000000000000010000000000000007
:1020D8000E33CDAB34126DE6ECDE05000B000000CC
:1020E80000000000000000000000000000000000E8
:1020F80000000000000000000000000000000000D8
:1021080000000000000000000000000000000000C7
:1021180000000000000000000000000000000000B7
:0C244800000000000000000064070020FD
:00000001FF
