S01300005350492054657374696E672E7372656327
S1130000900A0020150100000D0200000D020000FE
S113001000000000000000000000000000000000DC
S11300200000000000000000000000000D020000BD
S113003000000000000000000D0200000D0200009E
S11300400D0200000D0200000D0200000D02000070
S11300500D0200000D0200000D0200000D02000060
S11300600D0200000D0200000D0200000D02000050
S11300700D02000000000000000000000D0200005E
S11300800D0200000D0200000D0200000D02000030
S11300900D02000000000000000000000D0200003E
S11300A00D0200000D0200000D0200000D02000010
S11300B00000000010B5064C2378002B07D1054B37
S11300C0002B02D0044800E000BF0123237010BDC0
S11300D02C04002000000000D40D0000084B10B5D3
S11300E0002B03D00749084800E000BF0748036815
S11300F0002B00D110BD064B002BFBD09847F9E72D
S11301000000000030040020D40D0000D40D0000D5
S11301100000000080B582B000AF2F4B7B602F4BF6
S11301203B607A683B689A420CD007E03B681A1D32
S11301303A607A68111D796012681A603A68284B2F
S11301409A42F3D3274B3B6004E03B681A1D3A60A4
S113015000221A603A68244B9A42F6D3234B7B6000
S1130160234B7A68FF218A439A60224A90235B00DA
S11301700221D150204AD37803218B43191C022336
S11301800B43D3701C4AD3780C218B43191C0823CE
S11301900B43D370194A937B30218B43191C2023C2
S11301A00B439373154A937B0C218B43191C08232F
S11301B00B439373114A937B03218B43191C022332
S11301C00B4393730E4A536880210B4353600D4BCA
S11301D098470D4B9847FEE7D40D0000000000201F
S11301E02C0400202C0400209006002000000000B5
S11301F000ED00E000700041005000410048004163
S1130200004000410D0C0000190B000080B500AF48
S1130210FEE780B582B000AF78600A00FB1C1A705C
S11302207B68FA1C12785A737B6800221A73C046E2
S1130230BD4602B080BD80B582B000AF78600A00D0
S1130240FB1C1A707B68FA1C12785A747B680022B3
S11302501A60FB1C1B7801229A407B681A60C04616
S1130260BD4602B080BD80B582B000AF78600A00A0
S1130270FB1C1A707B68FA1C1278DA73C046BD4600
S113028002B080BD80B582B000AF78600A00FB1C6C
S11302901A707B68FA1C12781A74C046BD4602B004
S11302A080BD000080B582B000AF78600A00FB1CFE
S11302B01A707B68FA1C12789A73FB1C1B78092B42
S11302C00DD122497B685B7B18007B681A68C301E7
S11302D0CB1808331A607B6800221A7331E0FB1CC8
S11302E01B78082B2AD17B6800221A7317497B6874
S11302F05B7B18007B681A68C301CB1804331A604F
S11303007B681B7C012B0AD110497B685B7C18003D
S11303107B681A68C301CB1818331A6011E07B6834
S11303201B7C022B0DD109497B685B7C18007B6820
S11303301A68C301CB1814331A6002E07B680122E7
S11303401A73C046BD4602B080BDC0460044004199
S113035090B585B000AF78600C0010001900FB1C4C
S1130360221C1A70BB1C021C1A707B1C0A1C1A70FB
S1130370BB1C1A787B6811001800434B98477B1C00
S11303801A787B6811001800404B9847FB1C1A78B8
S11303907B68110018003E4B98477B689B6880225D
S11303A0D2051A437B689A600E23FB1801221A8037
S11303B07B685B7C0F2B0AD80E23FB181B887A689A
S11303C0527C93401A000E23FB181A8010E07B68BD
S11303D09B68802212061A437B689A600E23FB18DE
S11303E01A887B685B7C103B9A400E23FB181A80AA
S11303F07B689A680E23FB181B881A437B689A60F3
S11304007B689B7B092B0AD17B68DB7B012B06D1A4
S11304107B689B688022D2031A437B689A607B685E
S11304209B7B082B06D17B689B68802292021A432F
S11304307B689A607B689B7B082B0AD17B681B7C5A
S1130440002B06D17B689B688022D2021A437B680A
S11304509A607B681B7B002B11D07B689A687B6851
S11304609B7B1B061900F0231B050B401A437B687A
S11304709A607B689B68074A1A437B689A60C04607
S1130480BD4605B090BDC04667020000850200006D
S1130490A50200000000011090B583B000AF7860A1
S11304A00C0010001900FB1C221C1A70BB1C021C3F
S11304B01A707B1C0A1C1A707B1C1C78BB1C1A78D3
S11304C0FB1C197878682300074CA04707497B6810
S11304D05B7B18007B689A68C301CB1828331A60C9
S11304E0C046BD4603B090BD510300000044004126
S11304F080B582B000AF78600A00FB1C1A70FB1C48
S11305001B78002B09D00F497B685B7B18007B6844
S11305101A68C301CB1818331A60FB1C1B7801221C
S11305205340DBB2002B09D006497B685B7B180083
S11305307B681A68C301CB1814331A60C046BD46E1
S113054002B080BD0044004180B582B000AFFB1D05
S113055000221A70FB1D1A78E64B11001800E64BB6
S11305609847FB1D1A78E54B11001800E24B984799
S1130570FB1D1A78E24B11001800DF4B9847FB1D56
S11305801A78E04B11001800DB4B9847FB1D1A78D2
S1130590DD4B11001800D84B9847FB1D1A78DB4B34
S11305A011001800D44B9847FB1D1A78D84B110042
S11305B01800D14B9847FB1D1A78D64B1100180030
S11305C0CD4B9847FB1D1A78D34B11001800CA4B2A
S11305D09847FB1D1A78D14B11001800C64B984759
S11305E0FB1D1A78CE4B11001800C34B9847FB1D16
S11305F01A78CC4B11001800BF4B9847FB1D1A7892
S1130600C94B11001800BC4B9847FB1D1A78C74B07
S113061011001800B84B9847FB1D1A78C44B110001
S11306201800B54B9847FB1D1A78C24B11001800EF
S1130630B14B9847FB1D1A78BF4B11001800AE4B05
S11306409847FB1D1A78BD4B11001800AA4B984718
S1130650FB1D1A78BA4B11001800A74B9847FB1DD5
S11306601A78B84B11001800A34B9847FB1D1A7851
S1130670B54B11001800A04B9847FB1D1A78B34BDB
S1130680110018009C4B9847FB1D1A78B04B1100C1
S11306901800994B9847FB1D1A78AE4B11001800AF
S11306A0954B9847FB1D1A78AB4B11001800924BE1
S11306B09847FB1D1A78A94B110018008E4B9847D8
S11306C0FB1D1A78A64B110018008B4B9847BB1DD5
S11306D000221A70BB1D1A78864B11001800A14B1A
S11306E09847BB1D01221A70BB1D1A78834B110059
S11306F018009C4B9847BB1D02221A70BB1D1A7828
S11307007F4B11001800974B9847BB1D03221A70AA
S1130710BB1D1A787B4B11001800924B9847BB1DE8
S113072004221A70BB1D1A78774B110018008D4BE8
S11307309847BB1D05221A70BB1D1A78734B110014
S11307401800884B9847BB1D06221A70BB1D1A78E7
S11307506F4B11001800834B9847BB1D07221A707A
S1130760BB1D1A786B4B110018007E4B9847BB1DBC
S113077008221A70BB1D1A78674B11001800794BB8
S11307809847BB1D09221A70BB1D1A78634B1100D0
S11307901800744B9847BB1D0A221A70BB1D1A78A7
S11307A05F4B110018006F4B9847BB1D0B221A704A
S11307B0BB1D1A785B4B110018006A4B9847BB1D90
S11307C00E221A70BB1D1A78574B11001800654B86
S11307D09847BB1D0F221A70BB1D1A78534B11008A
S11307E01800604B9847BB1D10221A70BB1D1A7865
S11307F04F4B110018005B4B9847BB1D11221A7018
S1130800BB1D1A784B4B11001800564B9847BB1D63
S113081012221A70BB1D1A78474B11001800514B55
S11308209847BB1D13221A70BB1D1A78434B110045
S113083018004C4B9847BB1D16221A70BB1D1A7822
S11308403F4B11001800474B9847BB1D17221A70E5
S1130850BB1D1A783B4B11001800424B9847BB1D37
S113086018221A70BB1D1A78374B110018003D4B23
S11308709847BB1D19221A70BB1D1A78334B1100FF
S11308801800384B9847BB1D1B221A70BB1D1A78E1
S11308902F4B11001800334B9847BB1D1C221A70B4
S11308A0BB1D1A782B4B110018002E4B9847BB1D0B
S11308B01D221A70BB1D1A78274B11001800294BF2
S11308C09847BB1D1E221A70BB1D1A78234B1100BA
S11308D01800244B9847BB1D1F221A70BB1D1A78A1
S11308E01F4B110018001F4B9847C046BD4602B06D
S11308F080BDC046C004002013020000AC040020E8
S113090050050020F005002070040020640500203C
S113091018060020A0050020440600203006002010
S1130920D404002078050020FC040020B405002035
S11309308404002024050020480400201005002021
S1130940E8040020C8050020580600203C050020CB
S113095004060020980400208C050020DC050020FB
S11309605C0400203702000080B500AF0F4B00226A
S11309709A600E4B0E4A5A800E4B0E4A9269202101
S11309800A439A610C4B00221A800B4B0A4AD27913
S1130990D2B2DA71084A084B1B889BB202210B437E
S11309A09BB21380C046BD4680BDC046000C0040CB
S11309B004400000000400400014004080B584B0EE
S11309C000AF78607B68FB600BE0094B00221A6083
S11309D0084B00221A72C046064B1B7AFB68013B87
S11309E0FB60FB68002BF0DCC046BD4604B080BD54
S11309F01814004000140040B0B500AF3948022379
S1130A0000220921384CA04738480223002209213A
S1130A10354CA0473648022300220921324CA04716
S1130A2034480223002209212F4CA04732480223D4
S1130A30002209212C4CA04730480223002209211E
S1130A40294CA0472E48022300220921264CA04706
S1130A502C48022300220921234CA0472A480223C0
S1130A6000220921204CA047284802230022092102
S1130A701D4CA047254B00211800254B9847194BC6
S1130A8000211800224B9847184B01211800204BD5
S1130A909847174B012118001D4B9847154B01210E
S1130AA018001B4B9847144B00211800184B98470B
S1130AB0124B01211800164B9847114B00211800C6
S1130AC0134B9847134B1A780F4B11001800104B17
S1130AD098470C4B002118000D4B9847C046BD4663
S1130AE0B0BDC046440600209904000078050020EB
S1130AF030060020D4040020480400201005002003
S1130B0084040020FC040020B405002024050020F7
S1130B10F10400003805002090B585B000AF2E4BDD
S1130B2000221A702D4A136A2D490B4013622D4B73
S1130B3098470023FB602C4B7B602C480223002247
S1130B4009212B4CA047294B01211800294B984718
S1130B50294B9847294B98470B23FB1801221A70FD
S1130B603220274B98470B23FB181A78254B11008A
S1130B701800204B98470B23FB181B785A1E9341EF
S1130B80DBB201225340DBB21A000B23FB181A70AC
S1130B901A7801210A401A70FB680133FB60FA6875
S1130BA07B689A42DCD10C4B1A78174B1100180061
S1130BB0104B9847084B1B785A1E9341DBB2012215
S1130BC05340DBB21A1C01231340DAB2024B1A70F1
S1130BD00023FB60C4E7C04638050020000800403D
S1130BE0FFFCFFFF49050000881300003C050020BE
S1130BF099040000F104000069090000F9090000EB
S1130C00BD090000FC040020B405002070B50D4EA1
S1130C100D4D0024AD1BAD1005D0A300F3580134D5
S1130C209847A542F9D100F0C3F8084E084D0024B6
S1130C30AD1BAD1005D0A300F35801349847A5426D
S1130C40F9D170BDBC0D0000BC0D0000BC0D00004E
S1130C50C40D0000034B10B5002B02D0024800F075
S1130C6005F810BD000000007D0C000010B5010067
S1130C7000230022002000F01FF810BD70B5094BBE
S1130C80094CE41AA41009D0084AA518AD00ED18BF
S1130C902B68013C9847043D002CF9D100F092F8F0
S1130CA070BDC046D00D0000D40D0000FFFFFF3F13
S1130CB07047C0467047C046F0B54E464546DE46CE
S1130CC05746E0B5364D83B00600286898460F00B5
S1130CD09146FFF7EDFF334B1C68A4235B00E058FB
S1130CE0002852D043681F2B13DC5A1C0192002E9B
S1130CF028D1019A02339B0042601F502868FFF7F5
S1130D00D9FF002003B03CBC90469946A246AB46AE
S1130D10F0BD254B002B3DD0C820400000E000BFB3
S1130D20002837D0A42200235200A1584360016058
S1130D30A050403283500432835001330193002386
S1130D40002ED6D09A00924682444A4688215446C0
S1130D506250C4225200914681444A4687399940E0
S1130D6012688B460A4394464A46614611608422BF
S1130D7041465200A150022EBBD102005C468D3286
S1130D80FF3211680C431460B3E720004D30FF308C
S1130D90E050A7E72868FFF78DFF01204042B1E744
S1130DA028040020AC0D000000000000000000201A
S1130DB0F8B5C046F8BC08BC9E467047550C000008
S1130DC0DD000000F8B5C046F8BC08BC9E4670477C
S1070DD0B500000066
S1130DD400000000EC02002054030020BC030020A7
S1130DE400000000000000000000000000000000FB
S1130DF400000000000000000000000000000000EB
S1130E0400000000000000000000000000000000DA
S1130E1400000000000000000000000000000000CA
S1130E2400000000000000000000000000000000BA
S1130E3400000000000000000000000000000000AA
S1130E44000000000000000000000000000000009A
S1130E54000000000000000000000000000000008A
S1130E64000000000000000000000000000000007A
S1130E740000000000000000010000000000000069
S1130E840E33CDAB34126DE6ECDE05000B0000002E
S1130E94000000000000000000000000000000004A
S1130EA4000000000000000000000000000000003A
S1130EB4000000000000000000000000000000002A
S1130EC4000000000000000000000000000000001A
S10F11F400000000000000006C06002059
S9030000FC
