S01300005350492054657374696E672E7372656327
S1130000500B0020150100000D0200000D0200003D
S113001000000000000000000000000000000000DC
S11300200000000000000000000000000D020000BD
S113003000000000000000000D0200000D0200009E
S11300400D0200000D0200000D0200000D02000070
S11300500D0E00000D0200000D0200000D02000054
S11300600D0200000D0200000D0200000D02000050
S11300700D02000000000000000000000D0200005E
S11300800D0200000D0200000D0200000D02000030
S11300900D02000000000000000000000D0200003E
S11300A00D0200000D0200000D0200000D02000010
S11300B00000000010B5064C2378002B07D1054B37
S11300C0002B02D0044800E000BF0123237010BDC0
S11300D07C04002000000000F8170000084B10B555
S11300E0002B03D00749084800E000BF0748036815
S11300F0002B00D110BD064B002BFBD09847F9E72D
S11301000000000080040020F8170000F817000029
S11301100000000080B582B000AF2F4B7B602F4BF6
S11301203B607A683B689A420CD007E03B681A1D32
S11301303A607A68111D796012681A603A68284B2F
S11301409A42F3D3274B3B6004E03B681A1D3A60A4
S113015000221A603A68244B9A42F6D3234B7B6000
S1130160234B7A68FF218A439A60224A90235B00DA
S11301700221D150204AD37803218B43191C022336
S11301800B43D3701C4AD3780C218B43191C0823CE
S11301900B43D370194A937B30218B43191C2023C2
S11301A00B439373154A937B0C218B43191C08232F
S11301B00B439373114A937B03218B43191C022332
S11301C00B4393730E4A536880210B4353600D4BCA
S11301D098470D4B9847FEE7F817000000000020F1
S11301E07C0400207C040020500700200000000054
S11301F000ED00E000700041005000410048004163
S11302000040004131160000D511000080B500AF58
S1130210FEE7000080B582B000AF0200FB1D1A703B
S1130220FB1D1B787F2B09D8064BFA1D1278110091
S11302301F220A40012191400A001A60C046BD46AF
S113024002B080BD00E100E0B0B582B000AF0200B2
S11302503960FB1D1A70FB1D1B787F2B28D82F4C8F
S1130260FB1D1B785BB29B082C49FA1D127852B215
S11302709208C03292005258F91D097808000321EF
S11302800140C900FF2088400100C94311403A6879
S11302909201FF201040FA1D1278150003222A4013
S11302A0D200904002000A43C0339B001A5131E04F
S11302B01B4CFB1D1B781A000F231340083B9908A5
S11302C0174AFB1D1B7818000F230340083B9B08AB
S11302D006339B00D31804331B68FA1D12781000F0
S11302E003220240D200FF2090400200D2431A4071
S11302F03B689B01FF201840FB1D1B781D00032356
S11303002B40DB00984003001A438B1D9B00E3182D
S113031004331A60C046BD4602B0B0BD00E100E03F
S113032000ED00E080B582B000AF78600A00FB1CED
S11303301A707B68FA1C12785A737B6800221A734D
S1130340C046BD4602B080BD80B582B000AF7860C3
S11303500A00FB1C1A707B68FA1C12785A747B68BA
S113036000221A60FB1C1B7801229A407B681A60E9
S1130370C046BD4602B080BD80B582B000AF786093
S11303800A00FB1C1A707B68FA1C1278DA73C046E8
S1130390BD4602B080BD80B582B000AF78600A006F
S11303A0FB1C1A707B68FA1C12781A74C046BD468E
S11303B002B080BD80B582B000AF78600A00FB1C3B
S11303C01A707B68FA1C12789A73FB1C1B78092B31
S11303D00DD122497B685B7B18007B681A68C301D6
S11303E0CB1808331A607B6800221A7331E0FB1CB7
S11303F01B78082B2AD17B6800221A7317497B6863
S11304005B7B18007B681A68C301CB1804331A603D
S11304107B681B7C012B0AD110497B685B7C18002C
S11304207B681A68C301CB1818331A6011E07B6823
S11304301B7C022B0DD109497B685B7C18007B680F
S11304401A68C301CB1814331A6002E07B680122D6
S11304501A73C046BD4602B080BDC0460044004188
S113046090B585B000AF78600C0010001900FB1C3B
S1130470221C1A70BB1C021C1A707B1C0A1C1A70EA
S1130480BB1C1A787B6811001800434B98477B1CEF
S11304901A787B6811001800404B9847FB1C1A78A7
S11304A07B68110018003E4B98477B689B6880224C
S11304B0D2051A437B689A600E23FB1801221A8026
S11304C07B685B7C0F2B0AD80E23FB181B887A6889
S11304D0527C93401A000E23FB181A8010E07B68AC
S11304E09B68802212061A437B689A600E23FB18CD
S11304F01A887B685B7C103B9A400E23FB181A8099
S11305007B689A680E23FB181B881A437B689A60E1
S11305107B689B7B092B0AD17B68DB7B012B06D193
S11305207B689B688022D2031A437B689A607B684D
S11305309B7B082B06D17B689B68802292021A431E
S11305407B689A607B689B7B082B0AD17B681B7C49
S1130550002B06D17B689B688022D2021A437B68F9
S11305609A607B681B7B002B11D07B689A687B6840
S11305709B7B1B061900F0231B050B401A437B6869
S11305809A607B689B68074A1A437B689A60C046F6
S1130590BD4605B090BDC046790300009703000036
S11305A0B50300000000011090B583B000AF78607F
S11305B00C0010001900FB1C221C1A70BB1C021C2E
S11305C01A707B1C0A1C1A707B1C1C78BB1C1A78C2
S11305D0FB1C197878682300074CA04707497B68FF
S11305E05B7B18007B689A68C301CB1828331A60B8
S11305F0C046BD4603B090BD610400000044004104
S113060080B582B000AF78600A00FB1C1A70FB1C36
S11306101B78002B09D00F497B685B7B18007B6833
S11306201A68C301CB1818331A60FB1C1B7801220B
S11306305340DBB2002B09D006497B685B7B180072
S11306407B681A68C301CB1814331A60C046BD46D0
S113065002B080BD0044004180B584B000AF786032
S1130660094A7B685B7BDB01D31820331B68FB6082
S11306707B681B68FA6813405A1E9341DBB218006A
S1130680BD4604B080BDC0460044004180B582B080
S113069000AFFB1D00221A70FB1D1A78E64B1100F7
S11306A01800E64B9847FB1D1A78E54B110018001B
S11306B0E24B9847FB1D1A78E24B11001800DF4B00
S11306C09847FB1D1A78E04B11001800DB4B984744
S11306D0FB1D1A78DD4B11001800D84B9847FB1D01
S11306E01A78DB4B11001800D44B9847FB1D1A787D
S11306F0D84B11001800D14B9847FB1D1A78D64BE4
S113070011001800CD4B9847FB1D1A78D34B1100EC
S11307101800CA4B9847FB1D1A78D14B11001800DA
S1130720C64B9847FB1D1A78CE4B11001800C34BDB
S11307309847FB1D1A78CC4B11001800BF4B984703
S1130740FB1D1A78C94B11001800BC4B9847FB1DC0
S11307501A78C74B11001800B84B9847FB1D1A783C
S1130760C44B11001800B54B9847FB1D1A78C24BB7
S113077011001800B14B9847FB1D1A78BF4B1100AC
S11307801800AE4B9847FB1D1A78BD4B110018009A
S1130790AA4B9847FB1D1A78BA4B11001800A74BB7
S11307A09847FB1D1A78B84B11001800A34B9847C3
S11307B0FB1D1A78B54B11001800A04B9847FB1D80
S11307C01A78B34B110018009C4B9847FB1D1A78FC
S11307D0B04B11001800994B9847FB1D1A78AE4B8B
S11307E011001800954B9847FB1D1A78AB4B11006C
S11307F01800924B9847FB1D1A78A94B110018005A
S11308008E4B9847FB1D1A78A64B110018008B4B92
S11308109847BB1D00221A70BB1D1A78864B110025
S11308201800A14B9847BB1D01221A70BB1D1A78F2
S1130830834B110018009C4B9847BB1D02221A7071
S1130840BB1D1A787F4B11001800974B9847BB1DAE
S113085003221A70BB1D1A787B4B11001800924BAF
S11308609847BB1D04221A70BB1D1A78774B1100E0
S113087018008D4B9847BB1D05221A70BB1D1A78B2
S1130880734B11001800884B9847BB1D06221A7041
S1130890BB1D1A786F4B11001800834B9847BB1D82
S11308A007221A70BB1D1A786B4B110018007E4B7F
S11308B09847BB1D08221A70BB1D1A78674B11009C
S11308C01800794B9847BB1D09221A70BB1D1A7872
S11308D0634B11001800744B9847BB1D0A221A7011
S11308E0BB1D1A785F4B110018006F4B9847BB1D56
S11308F00B221A70BB1D1A785B4B110018006A4B4F
S11309009847BB1D0E221A70BB1D1A78574B110055
S11309101800654B9847BB1D0F221A70BB1D1A782F
S1130920534B11001800604B9847BB1D10221A70DE
S1130930BB1D1A784F4B110018005B4B9847BB1D29
S113094011221A70BB1D1A784B4B11001800564B1C
S11309509847BB1D12221A70BB1D1A78474B110011
S11309601800514B9847BB1D13221A70BB1D1A78EF
S1130970434B110018004C4B9847BB1D16221A70AC
S1130980BB1D1A783F4B11001800474B9847BB1DFD
S113099017221A70BB1D1A783B4B11001800424BEA
S11309A09847BB1D18221A70BB1D1A78374B1100CB
S11309B018003D4B9847BB1D19221A70BB1D1A78AD
S11309C0334B11001800384B9847BB1D1B221A707B
S11309D0BB1D1A782F4B11001800334B9847BB1DD1
S11309E01C221A70BB1D1A782B4B110018002E4BB9
S11309F09847BB1D1D221A70BB1D1A78274B110086
S1130A001800294B9847BB1D1E221A70BB1D1A786B
S1130A10234B11001800244B9847BB1D1F221A704A
S1130A20BB1D1A781F4B110018001F4B9847C04676
S1130A30BD4602B080BDC0465C0500202503000011
S1130A4048050020FC050020AC0600200405002019
S1130A5010060020D80600205006002004070020BD
S1130A60F00600207405002024060020A0050020C4
S1130A706406002018050020CC050020DC040020BA
S1130A80B80500208C0500207C06002018070020F3
S1130A90E8050020C4060020340500203C060020A0
S1130AA098060020F00400204903000080B582B0BD
S1130AB000AF284A53681E218B4302210B43536025
S1130AC0C046254BDB68DB06DB0FDBB2002BF8D01E
S1130AD0214B02229A84C0461F4BDB68DB06DB0FE6
S1130AE0DBB2002BF8D01D4B1B689B0E7B601C4BAC
S1130AF01B689B059B0D3B60174B7A68920212049E
S1130B00110C3A689205920D0A439A62C046124B40
S1130B10DB68DB06DB0FDBB2002BF8D00E4A938CCC
S1130B2002210B439384C0460B4BDB68DB06DB0FCF
S1130B30DBB2002BF8D00B4B0B4A5A60C046094B72
S1130B405B781B06DB0FDBB2002BF8D1C046BD4639
S1130B5002B080BD004000410008004024608000D5
S1130B6028608000000C00400007030080B500AF3F
S1130B70124B00229A60114B114A5A80114B114AB0
S1130B80926920210A439A610F4B00221A800F4B6D
S1130B9030221A600C4A0C4BDB79DBB201210B4387
S1130BA0DBB2D371084A084B1B889BB202210B436A
S1130BB09BB21380C046BD4680BDC046000C0040B9
S1130BC004400000000400400014004018140040D9
S1130BD080B584B000AF78607B68FB600EE00B4B9F
S1130BE000221A600A4B01221A72C046084B1B7A73
S1130BF0DBB2002BFAD0FB68013BFB60FB68002BE7
S1130C00EDDCC046BD4604B080BDC04618140040AB
S1130C100014004090B583B000AF65480223002261
S1130C200921644CA047644A644B1B689BB21900B9
S1130C30634B0B439362604A624B1B689BB219007F
S1130C405F4B0B4393625C4A5F4B1B689BB219007A
S1130C505B4B0B439362584A574B1969574B1B68BC
S1130C6098B2584B1B689BB2034398B2564B1B680F
S1130C709BB203439BB20B431361544802230022EB
S1130C8009214C4CA0475248022300220921494C17
S1130C90A0475048022300220921464CA0474E4851
S1130CA0022300220921434CA0474C48022300227E
S1130CB00921404CA0474A480223002209213D4C07
S1130CC0A04748480223002209213A4CA04746483D
S1130CD0022300220921374CA04744480223002262
S1130CE00921344CA047414B00211800404B984740
S1130CF02F4B002118003E4B9847344B012118001C
S1130D003B4B9847324B01211800394B9847314BE4
S1130D1001211800364B98472F4B00211800344B03
S1130D2098472E4B01211800314B98472C4B00213A
S1130D3018002F4B98472F4B1A782B4B1100180093
S1130D402B4B9847274B00211800294B98471A4BE7
S1130D501B6A7B60194B1800274B984703001A0045
S1130D60264B1A70174B1800234B984703001A00A0
S1130D70234B1A70144B18001F4B984703001A009A
S1130D80204B1A701D4B1B785AB21D4B1B785B000D
S1130D905BB213435AB21B4B1B789B005BB21343E9
S1130DA05AB2194B1A70C046BD4603B090BDC04636
S1130DB004070020A9050000004400415C05002050
S1130DC00000064048050020FC0500202406002001
S1130DD0F006002074050020DC040020B805002083
S1130DE018050020A005002064060020CC05002082
S1130DF001060000E005002059060000300500202F
S1130E00C0060020B40500207806002080B582B01A
S1130E1000AF544B1B692022134005D1514B1B6971
S1130E201022134000D199E04F4B1B6A7B604F4B5B
S1130E301B687A6813405A1E9341DAB2FB1C1A707D
S1130E404B4B1B687A6813405A1E9341DAB2BB1CA1
S1130E501A70484B1A78484B1A70FB1C1B78DB1825
S1130E60DAB2BB1C1B78D318DAB2424B1A70434B6C
S1130E7000229A56424B1A70414B00229A56414B1B
S1130E801A70414B00229A563C4B1A703A4B1B780D
S1130E909B00384A12789A183C4B9200D3585AB2A5
S1130EA0394B1A70384B1B785BB21A00384B1B68ED
S1130EB0D218374B1A60374B1B78002B03D1364BB3
S1130EC01B681E2B1CDD2E4B1B785BB2013317D124
S1130ED02A4B1B785BB2013312D12B4B1B785BB2CC
S1130EE001330DD12D4B1B78002B09D02C4B1B78D3
S1130EF001225340DBB2002B02D0294B01221A708D
S1130F00244B1B78002B03D1234B1B681E2B1FDDA6
S1130F101B4B1B785BB2012B1AD1184B1B785BB2AD
S1130F20012B15D1184B1B785BB2012B10D11B4B35
S1130F301B7801225340DBB2002B09D0184B1B78DD
S1130F4001225340DBB2002B02D0154B01221A7050
S1130F50044B044A126930210A431A61C046BD4653
S1130F6002B080BD00180040004400410405002088
S1130F7010060020C5040020C604002090060020AE
S1130F80EC060020880500207205002000000020E7
S1130F90CC040020C1060020C8040020E005002085
S1130FA0D904002080B500AF1F4B1F4A926940212D
S1130FB00A439A611D4B1E4A5A801E4A1E4B1B68E7
S1130FC09BB219001D4B0B4393621A4A1C4B1B68BE
S1130FD09BB21900194B0B4393621A4B194A52687E
S1130FE030210A435A60174B164A9269BB210904FF
S1130FF00A439A61134B134AD26830210A43DA60D8
S1131000104A104B1B78DBB202210B43DBB2137086
S1131010002104200C4B984704200C4B984762B6DF
S1131020C046BD4680BDC04600040040000C0040E0
S11310300540000000440041100600200000035059
S113104004050020001800404902000015020000B9
S113105080B582B000AFFB1D00221A704E4B0022F7
S11310601A604E4B00221A704D4B00221A704D4BE1
S113107000221A704C4B00221A604C4B00221A704A
S113108017E04B4B1A784B4B110018004A4B98470A
S1131090474B1B785A1E9341DBB201225340DBB20B
S11310A01A1C01231340DAB2414B1A703C20434B03
S11310B098473E4B1B7801225340DBB2002BE0D112
S11310C03F4B00221A60354B00221A70344B002229
S11310D01A70344B00221A703A4B1B785A1E9341F3
S11310E0DBB201225340DBB21A1C01231340DAB2F3
S11310F0344B1A70334B1A78334B110018002E4BB3
S1131100984705202D4B9847284B00221A701CE065
S1131110274B1A78274B11001800274B9847244B6C
S11311201B785A1E9341DBB201225340DBB21A1CD6
S113113001231340DAB21E4B1A703C201F4B984710
S1131140224B1B685A1C214B1A60184B1B78012236
S11311505340DBB2002BDBD1194B1A681C4B1A60CD
S1131160184B1B785A1E9341DBB201225340DBB269
S11311701A1C01231340DAB2124B1A70114B1A785D
S1131180114B110018000C4B984705200B4B984746
S1131190C046BD4602B080BDE405002072050020B3
S11311A090060020EC060020C8040020D90400208A
S11311B04D000020A005002001060000D10B000016
S11311C0CC040020E005002064060020D4040020A4
S11311D09406002090B583B000AF804B9847804BB5
S11311E09847804B9847804B9847804B9847804856
S11311F00123002209217F4CA0477F4B01221A7052
S11312007E4B98477C4B00221A707D4B1A687D4BAD
S11312101B685A437C4B0C211000984703001A00AA
S11312207A4B1A607A4B1A68764B1B685A43764B92
S11312300C211000984703001A00764B1A60704B7B
S11312401B68002B04D1714B1B685A1D6F4B1A602D
S11312506F4B1B680C2B04D16E4B1B685A1F6D4BD4
S11312601A606D4B00221A7000237B606B4B0022C6
S11312701A706A4B1B7801225340DBB2002B00D159
S11312807FE0674B1B78002B00D17AE0654B1A682E
S1131290654B1B68D21A5D4B1B689A420BDA614B93
S11312A01A68614B1B68D218584B1B689A4202DDBE
S11312B05B4B00221A705B4B1A685B4B1B68D21A9B
S11312C0524B1B689A4219DD534B1B78002B15D0E7
S11312D0564B00221A70564B00221A70554B0022AE
S11312E01A704D4B00221A70534B00221A604A4B5D
S11312F01A78524B11001800514B9847494B1A6801
S1131300494B1B68D218414B1B689A421CDA424B6A
S11313101B7801225340DBB2002B15D0434B002233
S11313201A70434B00221A70424B00221A703A4B37
S113133001221A70404B00221A60374B1A783F4B37
S1131340110018003E4B98473B4B1B685A1C3A4B04
S11313501A603C4B1A783C4B11001800384B9847E4
S1131360384B1B785A1E9341DBB201225340DBB247
S11313701A1C01231340DAB2324B1A703C20334B4F
S11313809847264B1B78002B10D0314B01211800B5
S11313902B4B98472F4B18002C4B98471F4B002280
S11313A01A702B4B00211800254B98471D4B1A68C7
S11313B01D4B1B68D218154B1B689A4209DB194B4D
S11313C01A68194B1B68D21A104B1B689A4200DC2E
S11313D04FE7134B01221A704BE7C046AD0A0000D9
S11313E08D060000A50F00006D0B0000150C000019
S11313F0E8050020A9050000C106002051100000E6
S1131400400000209406002059140000E405002048
S1131410440000202C050020E0050020D904002011
S11314204C000020CC04002048000020720500205D
S113143090060020EC060020C8040020640600206A
S1131440010600004D000020A0050020D10B000083
S11314501805002040420F0003460B437FD40022AE
S113146043088B4274D303098B425FD3030A8B4234
S113147044D3030B8B4228D3030C8B420DD3FF229E
S1131480090212BA030C8B4202D31212090265D06C
S1131490030B8B4219D300E0090AC30B8B4201D31F
S11314A0CB03C01A5241830B8B4201D38B03C01A66
S11314B05241430B8B4201D34B03C01A5241030BDD
S11314C08B4201D30B03C01A5241C30A8B4201D38E
S11314D0CB02C01A5241830A8B4201D38B02C01A39
S11314E05241430A8B4201D34B02C01A5241030AB0
S11314F08B4201D30B02C01A5241CDD2C3098B4295
S113150001D3CB01C01A524183098B4201D38B0111
S1131510C01A524143098B4201D34B01C01A5241B4
S113152003098B4201D30B01C01A5241C3088B42F9
S113153001D3CB00C01A524183088B4201D38B00E4
S1131540C01A524143088B4201D34B00C01A524186
S1131550411A00D201465241104670475DE0CA0F5D
S113156000D04942031000D34042534000229C461D
S113157003098B422DD3030A8B4212D3FC22890127
S113158012BA030A8B420CD3890192118B4208D3FD
S1131590890192118B4204D389013AD0921100E05F
S11315A08909C3098B4201D3CB01C01A5241830973
S11315B08B4201D38B01C01A524143098B4201D3A0
S11315C04B01C01A524103098B4201D30B01C01ACB
S11315D05241C3088B4201D3CB00C01A5241830845
S11315E08B4201D38B00C01A5241D9D243088B429B
S11315F001D34B00C01A5241411A00D2014663463E
S113160052415B10104601D34042002B00D54942A1
S1131610704763465B1000D3404201B5002000F0E0
S113162005F802BD0029F8D016E770477047C04698
S113163070B50D4E0D4D0024AD1BAD1005D0A300AB
S1131640F35801349847A542F9D100F0C3F8084E85
S1131650084D0024AD1BAD1005D0A300F358013490
S11316609847A542F9D170BDE0170000E0170000CB
S1131670E0170000E8170000034B10B5002B02D060
S1131680024800F005F810BD00000000A11600009B
S113169010B5010000230022002000F01FF810BD47
S11316A070B5094B094CE41AA41009D0084AA518CE
S11316B0AD00ED182B68013C9847043D002CF9D18E
S11316C000F092F870BDC046F4170000F81700004F
S11316D0FFFFFF3F7047C0467047C046F0B54E4617
S11316E04546DE465746E0B5364D83B006002868C9
S11316F098460F009146FFF7EDFF334B1C68A42377
S11317005B00E058002852D043681F2B13DC5A1C9E
S11317100192002E28D1019A02339B0042601F508F
S11317202868FFF7D9FF002003B03CBC90469946D7
S1131730A246AB46F0BD254B002B3DD0C82040004F
S113174000E000BF002837D0A42200235200A15893
S113175043600160A050403283500432835001330F
S113176001930023002ED6D09A00924682444A4622
S1131770882154466250C4225200914681444A460C
S11317808739994012688B460A4394464A46614613
S11317901160842241465200A150022EBBD10200A6
S11317A05C468D32FF3211680C431460B3E72000AD
S11317B04D30FF30E050A7E72868FFF78DFF012088
S11317C04042B1E778040020D01700000000000078
S11317D050000020F8B5C046F8BC08BC9E467047CF
S11317E079160000DD000000F8B5C046F8BC08BC5E
S10B17F09E467047B50000009D
S11317F800000000FFFFFFFF0100000000000000E0
S1131808010000000000000000000000FFFFFFFFCF
S1131818FFFFFFFF000000000000000001000000BF
S11318280000000001000000FFFFFFFF00000000AF
S1131838020000000A00000032000000010100005C
S1131848000000003C030020A40300200C04002036
S1131858000000000000000000000000000000007C
S1131868000000000000000000000000000000006C
S1131878000000000000000000000000000000005C
S1131888000000000000000000000000000000004C
S1131898000000000000000000000000000000003C
S11318A8000000000000000000000000000000002C
S11318B8000000000000000000000000000000001C
S11318C8000000000000000000000000000000000C
S11318D800000000000000000000000000000000FC
S11318E800000000000000000100000000000000EB
S11318F80E33CDAB34126DE6ECDE05000B000000B0
S113190800000000000000000000000000000000CB
S113191800000000000000000000000000000000BB
S113192800000000000000000000000000000000AB
S1131938000000000000000000000000000000009B
S10F1C6800000000000000002C07002019
S9030000FC
