S01500004D305F4D6F746F725F546573742E7372656323
S113000078040020250100002101000021010000E6
S113001000000000000000000000000000000000DC
S113002000000000000000000000000021010000AA
S11300300000000000000000210100002101000078
S1130040210100002101000021010000B508000089
S11300502101000021010000210100002101000014
S11300602101000021010000210100002101000004
S11300702101000000000000000000002101000038
S113008021010000210100002101000021010000E4
S11300902101000000000000000000002101000018
S11300A021010000210100002101000021010000C4
S11300B00000000010B5064C2378002B07D1054B37
S11300C0002B02D0044800E000BF0123237010BDC0
S11300D00000002000000000D0140000084B10B500
S11300E0002B03D00749084800E000BF0748036815
S11300F0002B00D110BD064B002BFBD09847F9E72D
S11301000000000004000020D0140000D0140000FF
S11301100000000010B5014B984710BDB903000062
S1130120FEE70000F8B52A4A2A4B9A4211D01A0079
S1130130294B9A420DD2294A03339B1A9B08013357
S11301409B000022234822498C58845004329A424E
S1130150FAD1234A234B9A420AD2D34321495B184A
S113016003218B4304339B18002102C29342FCD128
S11301701D4AFF211D4B8B439360FD3990235B0087
S11301801B4AD1501B4AD3780325AB430224234393
S1130190D370D3780C27BB4308263343D370164B54
S11301A0987B30229043202210439873997BB94363
S11301B0314399739A7BAA4322439A730F4A536833
S11301C080210B4353600E4B98470E4B9847FEE734
S11301D0D0140000000000200000002004000020D3
S11301E0000000207800002000ED00E00000000086
S11301F000700041005000410048004100400041AF
S1130200AD13000021120000F0B5C64600B5C024AD
S1130210E40580235B006360244B254A9A62254AE7
S11302209A6248215A5C042082435A545A5C033827
S113023080468243844660460243D2B25A543427ED
S1130240DA5D39398A430D390A43DA55802292003E
S11302506261A260184A9A62C02109069962492023
S11302601A5C4546AA4365462A43D2B21A54D85D5D
S11302700F26304020252843C0B2D85580221201D1
S11302806261A2600D4A9A6299624B22995C40466F
S1130290814360460143C9B2995435215A5C3240C6
S11302A02A43D2B25A5404BC9046F0BD00440041E3
S11302B000010240000002C00002004000080040AB
S11302C0044A136A04210B431362034A034B5A8002
S11302D07047C0460004004014400000000C004079
S11302E010B5074B9847074C07492000074B984720
S11302F003212000064B9847064B984710BDC04683
S1130300C10200002400002000080042D1040000C3
S1130310250500000902000070B5124B5620195C37
S1130320042291431954195C0125A9430124214352
S1130330C9B219541B38195C0F26B1430D3E314321
S1130340195457215E5C96435E545A5CAA43224377
S1130350D2B25A541A5C48390A4011310A431A5429
S113036070BDC04600440041054A136A20210B4376
S11303701362044B044A5A80044A5A807047C046A8
S113038000040040000C004017400000134300002C
S113039010B5044B984704490448054B9847054B4E
S11303A0984710BD69030000001400423C0000207F
S11303B0910400001903000010B50B4B98470B4B38
S11303C098470B4B98470B4A936920210B43936141
S11303D0094A0A4B5A800A4B9847020009490A48BD
S11303E00A4B984710BDC046E5070000E102000033
S11303F0910300000004004004400000000C004091
S1130400B1080000001400405C0000200D0700004B
S113041010B5044B1C68044B984701002000034BA3
S1130420984710BD1C000020C1070000DD07000034
S113043010B584B0140001AB1438828B1A80029476
S1130440054A5A8003911900044B9847002800D1AB
S1130450200004B010BDC0460080FFFF510A000018
S113046010B584B0140001AB1438828B1A80029446
S1130470054A5A8003911900044B9847002800D17B
S1130480200004B010BDC0460180FFFF510A0000E7
S113049070B504000D00431E9841C0B25E220749A6
S11304A0074B984729002000064B9847002803D1A2
S11304B0054BA361054B636170BDC046F413000096
S11304C051070000210A000061040000310400000B
S11304D070B504000D00002816D00800431E984192
S11304E0C0B2402209490A4B98476560201D290083
S11304F0084B9847002806DB074BA382074B236170
S1130500074BE360002070BD0020EAE710140000F0
S113051051070000890F00000080FFFFD50500008F
S11305209905000070B504000D00431E9841C0B247
S113053069220449044B9847201D2900034B98471E
S113054070BDC04610140000510700008110000067
S113055030B587B004000D00002814D00800431EF5
S11305609841C0B2B3220949094B98472B680393B9
S11305706B680493AB6801930593201D03A9054B95
S1130580984707B030BD0020ECE7C04610140000C7
S113059051070000B910000070B584B004000E00CB
S11305A01500431E9841C0B2A3220749074B984740
S11305B0002302930196039520000C3801A9044BF3
S11305C0984704B070BDC0461014000051070000E5
S11305D05105000070B584B004000E001500431EE0
S11305E09841C0B287220749074B984702960023D7
S11305F00193039520000C3801A9044B984704B0DB
S113060070BDC046101400005107000051050000E1
S1130610F8B5CE46474680B5814603689C46002B14
S113062005D08E681C0000250127BF1A0DE0124B6F
S1130630984718E0FB18A06880464344B3420CD2A4
S113064023682500002B0BD01C0063689342F1D86B
S1130650A068804643449B1AF0E7A44507D02C00C9
S11306602000064B98470CBC90469946F8BD484676
S1130670014B9847F7E7C0467D070000A907000033
S1130680F0B5C64600B582B007004469036901337A
S113069098460361037EDB0711D4037E9B070ED4C7
S11306A0002C10D0434662689B1AA26893420AD376
S11306B014239C46844463460193124E14E03B7E0B
S11306C0022213433B7602B004BC9046F0BD7D6920
S11306D0E36820009847002DF5D02C0043466A6853
S11306E09B1AAA689342EED30198B047237C012B4E
S11306F0EDD143466360424621000198024B98477E
S1130700E5E7C046B10700001106000070B505001A
S11307100C00002811D00800431E9841C0B23B22AF
S11307200749084B984721002800074B98470023A6
S11307302B61064B2B60002070BD0020EFE7C04604
S11307402C14000051070000550800008106000029
S1130750002800D100BE70470368002B0AD08B42EA
S11307600AD01B68002B03D09942FAD1012000E083
S1130770002070470020FCE70120FAE770B5040070
S11307800D00064B984701235840C0B23922044952
S1130790044B984723682B60256070BD59070000FF
S11307A0441400005107000003680B6001607047A7
S11307B00368002B01D01A6802601800704700001B
S11307C010B50300642058432C30FF3096214900B3
S11307D0014B984710BDC046951200000139FDD861
S11307E07047000010B5064B5A685A60054B98478D
S11307F0054B9847054B9847FF20054B984710BD7C
S11308000040004135080000C91100001112000029
S113081015080000C3070AD5054B802252009A60D0
S1130820832252025A601A005378DB09FCD17047C4
S1130830000C0040064B1A7AD2B21A725A7AD2B21B
S11308405A729A7AD2B29A72DA7AD2B2DA72704759
S11308500004004070B504000D00431E9841C0B26E
S113086033221049104B9847E56001232B80AB7A63
S1130870DB09FCD1E268937ADB09FCD18033138075
S1130880937ADB09FCD1E26893698023DB009361EE
S1130890937ADB09FCD10133E268D371034B1C600A
S11308A0002070BD641400005107000020000020E7
S11308B00020704710B5074B1C68E3681B7ADB0700
S11308C007D52368002B01D020009847E368012254
S11308D01A7210BD20000020C3699B0712D10322A5
S11308E0C3691A42FCD10368084A13400907C022AD
S11308F092051140194301600322C3691A42FCD1D5
S11309000020704704204042FBE7C046FFFFFFCFB2
S113091010B5094B9C466044800AC0B2032808D035
S1130920E622920005490020054B984701204042E9
S113093010BD0020FCE7C04600F8FFBD9414000081
S11309405107000070B505000C000800314B9847B2
S1130950C0B2E369DB0721D443001B18DB002E4A35
S1130960D31859681C2319400322E3691A42FCD1A5
S113097023689B070BD5236802229343236001322B
S1130980E3691A42FCD10222E3691A42FCD1012331
S11309900B4323600322E3691A42FCD10122E36979
S11309A01A42FCD143001B18DB001B4AD3185968B8
S11309B021600322E3691A42FCD143001B18DB00C7
S11309C0154AD3189B6863600422E3691A42FCD178
S11309D043001B18DB00104AD318DB68E36089016D
S11309E0890FA981636A0D4E1E4001238B429B41EE
S11309F05B429B03334363620422E3691A42FCD1E2
S1130A0043001818C000044B1818438AEB810020D7
S1130A1070BDC046110900007C140000FFBFFFFF39
S1130A2070B504000D00431E9841C0B2044A054944
S1130A30054B9847256129002000044B984770BD59
S1130A400705000094140000510700004509000048
S1130A50F0B5DE4657464E464546E0B583B0050040
S1130A60884604690600731E9E41F3B20193B44F95
S1130A70B44A39001800B44EB0472869431E98415F
S1130A80C0B2B822D2003900B0474046431E984154
S1130A90C0B2AE4A3900B0476B88DB0500D524E20A
S1130AA043465A8880235B001A4341464A802A0001
S1130AB0C1C9C1C26268134363600422E3691A4274
S1130AC0FCD12F693B689946A14A9D4901989E4BE8
S1130AD098476B68012B5AD07B689E4A13407B6011
S1130AE00422FB691A42FCD12B885A055CD56A881A
S1130AF0D20704D56A888021C9000A436A805B0052
S1130B00954919400422FB691A42FCD17B6A802270
S1130B10D2011A4080231B02134319437962042231
S1130B20FB691A42FCD129690B7EDBB28B4A032094
S1130B30184204D10B7EDBB2013A002AF8D13E6898
S1130B400421FA691142FCD17A8B92B2D90700D4FC
S1130B50A0E093073ED501233B766B8880214901B1
S1130B600B436B806B887E490B406B800120030034
S1130B7013405842584105386B88794A13406B80BA
S1130B8003B03CBC90469946A246AB46F0BD4B46EA
S1130B901B01A1D57A688023DB0213437B60042206
S1130BA0FB691A42FCD19FE76A885B00FF210B4076
S1130BB0FE39114019430422FB691A42FCD17B6AB5
S1130BC08022D20113400B437B620422FB691A4248
S1130BD0FCD1A8E753071BD46B885B0535D52B885C
S1130BE0DB09062119400422FB691A42FCD17B6A05
S1130BF08022D2011340F12213430B437B62ED3A6E
S1130C00FB691A42FCD16B88564A13406B8066E03C
S1130C106B68002B04DD6B888022520113436B80C8
S1130C206B881BB2002B06DB6B884D4A13406B802C
S1130C3002204042A0E77A68C0239B0213437B60F2
S1130C400423FA691342FCD1EEE76B68002B12D13E
S1130C506B881BB2002B04DB6B88414A13406B800A
S1130C603DE07A68C0239B0213437B600422FB6946
S1130C701A42FCD1F0E7AB681A782823FA5404220C
S1130C80FB691A42FCD1AB680133AB606B68013B72
S1130C906B6024E09B0722D56B68002B40D0520781
S1130CA03ED43601F60F013B6B60002B00D01FE1F0
S1130CB0002E00D122E16B881BB2002B1DDB6B8858
S1130CC0274A13406B80A9684B1CAB600422FB6964
S1130CD01A42FCD12823FB5C0B7002233B760026CE
S1130CE080235B009A4603210422FF3B9C46013388
S1130CF0994626339B460196C2E07B68184A134006
S1130D007B600632FF32FB691A42FCD17A68C02349
S1130D109B0213437B600422FB691A42FCD1CEE799
S1130D2002233B760220404226E76268C0239B02EE
S1130D30134363600422E3691A42FCD1B5E0C04660
S1130D4094140000BF05000051070000C105000015
S1130D5094050000FFFFFBFFFE070000FFFF0000FB
S1130D60FFFEFFFFFFFBFFFF02421BD16B885B0509
S1130D7035D52B88DB0906201840E3691A42FCD1DB
S1130D80636A8026F6013340F126334303436362EA
S1130D90E3691A42FCD16B88784803406B800023D6
S1130DA001936DE06B68002B04DD6B8880204001AB
S1130DB003436B806B881BB2002B07DB6B88704886
S1130DC003406B8002235B42019359E06068C023B7
S1130DD09B0203436360E3691A42FCD1EEE76B684C
S1130DE0002B13D16B881BB2002B06DB6B88644885
S1130DF003406B800023019342E06068C0239B02A0
S1130E0003436360E3691A42FCD1EFE7AB681B78E4
S1130E1058462354E3691A42FCD1AB680133AB60F2
S1130E206B68013B6B600023019329E00026019667
S1130E304E461E4224D06B68002B4DD002424BD14B
S1130E40FF0E60460740013B6B60002B00D082E040
S1130E50002F00D185E06B881BB2002B2CDB6B8844
S1130E60474803406B80A868431CAB60E3691A429F
S1130E70FCD15B46E35C03704B462376002301936D
S1130E806B88504603422DD02E69337EDBB23D4839
S1130E90194241D1337EDBB201380028F8D14346F0
S1130EA05B881BB2002B00DA3FE76B88344A13409F
S1130EB06B800520404263E6636831480340636009
S1130EC0E3691A42FCD16068C0239B020343636058
S1130ED0E3691A42FCD1C2E74B46237602235B4204
S1130EE00193CDE7019E30004AE60620404247E6E2
S1130EF0012B00D0E7E6002E00D1E4E67A688023D7
S1130F00DB0213437B600422FB691A42FCD16B6849
S1130F10002B00D1CFE6D6E62768E0690242FCD177
S1130F20608B80B266461E4200D17FE74B46034287
S1130F3000D119E726766B888026760133436B80CF
S1130F406B880F4E33406B806346184046424641DF
S1130F50731F019394E7012B00D084E7002F00D185
S1130F6081E760688023DB0203436360E3691A421C
S1130F70FCD16B68002B00D16DE774E7FFFBFFFF2A
S1130F80FFFEFFFFFFFF000070B505000C00354BAE
S1130F90CB189B0ADBB2002B0BD0002851D0601E6B
S1130FA08441E0B2304A3149314B98470D204042E8
S1130FB046E000284DD12C4A2C4900202C4B984760
S1130FC0E369DB0718D40322E3691A42FCD12368DE
S1130FD09B070BD523680222934323600132E36904
S1130FE01A42FCD10222E3691A42FCD10D23236088
S1130FF00322E3691A42FCD10122E3691A42FCD1BB
S11310002C602000431E9841C0B21A4A1749184B5D
S11310109847194B23600322E3691A42FCD18023C9
S11310209B0263600722E3691A42FCD109232373FC
S113103000222733E2542F3B2B71104BEB8000200E
S113104070BD094A09490020094B98470D204042C8
S1131050F6E70800431E9841C0B2034A0349044B13
S11310609847ADE700F8FFBD25090000941400007F
S113107051070000EF0800000C000200FF0100000F
S113108070B505000C0000280CD00068431E984180
S1131090C0B2054A0549064B984728682100054B0C
S11310A0984770BD0020F4E7B809000094140000CC
S11310B051070000D9080000F0B5DE4657464E46F9
S11310C04546E0B583B081460E0004680B68984637
S11310D04D6803790193002815D02000431E9841E0
S11310E0C0B2364A3649374B9847E3695B073FD16C
S11310F00323E0691840FCD123689B073BD5020019
S113110001239C4609E00020EBE7013501325BB284
S1131110002B16DBB368834227D9237EDBB204217C
S113112019422BD0A76A002DF0D02F700199012904
S1131130EBD93F0A6F700235E8E701218B46D844AA
S113114037E001235B4263838133237613204042DB
S11311500322237E1342FCD00323237603B03CBC3A
S113116090469946A246AB46F0BD9342D5D8EFE7E8
S113117004204042F2E714204042EFE79042C6D8F0
S113118067461F42C3D04F46FF88BA464746002FE2
S11311900FD03F78BA4601990129CED947467F78C6
S11311A03F02BB46574659460F43BA4602218B4677
S11311B0D84401305746A762A9E7C046850A000013
S11311C094140000510700000E4B1A6A196A0E4865
S11311D00240890F89070D4801430A431A629A693C
S11311E002210A439A611A7F1D310A401A771900B5
S11311F00822CB681A42FCD0024A136A80210B43AE
S113120013627047000800400000FF0F0203000053
S1131210024A936902218B4393617047000800409E
S1131220F0B5C64600B5154B9847C022D2058023B9
S11312301B029360124B13499962C02109069962FB
S11312408021490291608020C00598620E4C9C6206
S11312508024A402946098620C489862516116003C
S113126080273F02B8464346B361FA256D00280043
S1131270074CA04777612800A047F4E71501000058
S11312800044004100800040010000C0020000C092
S113129011040000002243088B4274D303098B42DB
S11312A05FD3030A8B4244D3030B8B4228D3030C32
S11312B08B420DD3FF22090212BA030C8B4202D3D4
S11312C01212090265D0030B8B4219D300E0090AFC
S11312D0C30B8B4201D3CB03C01A5241830B8B4205
S11312E001D38B03C01A5241430B8B4201D34B03EE
S11312F0C01A5241030B8B4201D30B03C01A524153
S1131300C30A8B4201D3CB02C01A5241830A8B42D7
S113131001D38B02C01A5241430A8B4201D34B02C0
S1131320C01A5241030A8B4201D30B02C01A524124
S1131330CDD2C3098B4201D3CB01C01A52418309D8
S11313408B4201D38B01C01A524143098B4201D312
S11313504B01C01A524103098B4201D30B01C01A3D
S11313605241C3088B4201D3CB00C01A52418308B7
S11313708B4201D38B00C01A524143088B4201D3E4
S11313804B00C01A5241411A00D201465241104644
S11313907047FFE701B5002000F006F802BDC04623
S11313A00029F7D076E770477047C04670B500262D
S11313B00C4D0D4C641BA410A64209D1002600F06C
S11313C077F80A4D0A4C641BA410A64205D170BDDF
S11313D0B300EB5898470136EEE7B300EB58984753
S11313E00136F2E7BC140000BC140000BC14000079
S11313F0C01400002E2E2F68616C2F7372632F6847
S1131400616C5F6932635F6D5F73796E632E630035
S11314102E2E2F68616C2F7372632F68616C5F735B
S113142070695F6D5F73796E632E63002E2E2F6873
S1131430616C2F7372632F68616C5F74696D657280
S11314402E6300002E2E2F68616C2F7574696C73E7
S11314502F7372632F7574696C735F6C6973742E68
S1131460630000002E2E2F68706C2F7274632F6837
S1131470706C5F7274632E63000000000300000050
S11314801400200000010000FF0000000000D7004D
S113149040420F002E2E2F68706C2F736572636F9D
S11314A06D2F68706C5F736572636F6D2E630000DF
S11314B0F8B5C046F8BC08BC9E467047DD00000085
S11314C0F8B5C046F8BC08BC9E467047B50000009D
S9030000FC
