S0230000416D7065642D55702D44422D436F6E74726F6C2D50726F6772616D2E7372656362
S1130000A80B0020190100001501000015010000D3
S113001000000000000000000000000000000000DC
S113002000000000000000000000000015010000B6
S11300300000000000000000150100001501000090
S11300401501000015010000150100001501000054
S1130050A9070000150100001501000015010000AA
S11300601501000015010000150100001501000034
S1130070950E0000000000000000000015010000C3
S11300801501000015010000150100001501000014
S11300901501000000000000000000001501000030
S11300A015010000150100001501000015010000F4
S11300B00000000010B5064C2378002B07D1054B37
S11300C0002B02D0044800E000BF0123237010BDC0
S11300D08404002000000000AC150000084B10B59B
S11300E0002B03D00749084800E000BF0748036815
S11300F0002B00D110BD064B002BFBD09847F9E72D
S11301000000000088040020AC150000AC150000BD
S113011000000000FEE70000F8B5234A234B9A4292
S113012009D0224B204A03E01168196004330432D9
S11301301F498B42F8D31F4B02E000221A6004339C
S11301401D4A9342F9D31D4AFF211D4B8B439360F3
S1130150FD3990235B001B4AD1501B4AD3780325F9
S1130160AB4302242343D370D3780C27BB43082624
S11301703343D370154B987B302290432022104395
S11301809873997BB943314399739A7BAA43224369
S11301909A730F4A516880230B4353600D4B984761
S11301A00D4B9847FEE7C046AC1500000000002048
S11301B08404002084040020A407002000ED00E053
S11301C00000000000700041005000410048004160
S11301D000400041A5130000710A00004173002390
S11301E003737047417401238B4003607047C173EC
S11301F070470174704700008173092904D00829ED
S11302000CD0012303737047437BDB01114A9446EE
S1130210634402689A6000230373F4E700230373C2
S1130220437BDB010B4A9446634402685A60037CB7
S1130230012B09D0022BE6D1437C0268DB0105497E
S11302408C4663445A61DEE7437C0268DB01634405
S11302509A61D8E70044004170B504000D001E0007
S11302601100264B984731002000254B9847290060
S11302702000244B98478023DB05A2681343A36026
S1130280627C0F2A1CD8012393409BB2A2681343BB
S1130290A360E1890A22FF3291421AD0A37B082B82
S11302A01CD0082B20D0227B002A08D01B06F02269
S11302B012051340A2681343134A1343A36070BD8D
S11302C0802109060B43A360103A012393409BB29B
S11302D0DCE78022D2031343A360DFE7802292028B
S11302E0A1680A43A260DCE7227C002ADBD18022D9
S11302F0D202A1680A43A260D5E7C046EF0100001C
S1130300F3010000F90100000000011070B50400C1
S1130310044DA847637BA268DB0103498C46634410
S11303209A6270BD5902000000440041002906D0C1
S1130330437BDB01074A9446634402689A610029BF
S113034006D1437B0268DB0102498C4663445A614F
S11303507047C04600440041437BDB01044A944695
S113036063441B6A00681840431E9841C0B270473A
S113037000440041F8B500215348544CA0470021E3
S11303805348A04700215348A04700215248A047A2
S113039000215248A04700215148A047002151485C
S11303A0A04700215048A04700215048A047002101
S11303B04F48A04700214F48A04700214E48A0477E
S11303C000214E48A04700214D48A04700214D4838
S11303D0A04700214C48A04700214C48A0470021D9
S11303E04B48A04700214B48A04700214A48A0475A
S11303F000214A48A04700214948A0470021494814
S1130400A047494F00213800A047484E0021300042
S1130410A047474D00212800A04700214548A04798
S113042000212948444CA04701212948A047022122
S11304302848A04703212848A04704212748A0476B
S113044005212748A04706212648A047072126481A
S1130450A04708212548A04709212548A0470A218B
S11304602448A0470B212448A0470E212348A04735
S11304700F212348A04710212248A04711212248D8
S1130480A04712212148A04713212148A047162143
S11304902048A04717212048A04718211F48A047FB
S11304A019211F48A0471B211E48A0471C213800C2
S11304B0A0471D213000A0471E212800A0471F216E
S11304C01C48A047F8BDC046AC050020DD01000073
S11304D0980500204C06002000070020500500204D
S11304E0600600202C070020A406002058070020E6
S11304F044070020C405002074060020F0050020F5
S1130500B8060020640500201C06002028050020F1
S113051008060020DC050020D00600206C0700201F
S113052038060020180700208405002090060020CB
S1130530EC0600203C050020E501000018494A684B
S11305401E239A431C3B13434B60164BDB68DB06AC
S1130550FBD50222134B9A84124BDB68DB06FBD5D6
S1130560114B1A68920E114B1B689B059B0D92024E
S113057013430C4A93620B4BDB68DB06FBD5094A39
S1130580938C02210B439384064BDB68DB06FBD57B
S1130590074A084B5A60074B5B78DB09FBD170476D
S11305A00040004100080040246080002860800072
S11305B000070300000C00400C4B00229A600C4919
S11305C059800C498B69202003438B610A4B1A80A4
S11305D030210A4A1160DA7901210A43D2B2DA7170
S11305E01A8802210A4392B21A807047000C004014
S11305F004400000000400400014004018140040AF
S11306000AE00022064B1A600132064B1A72054BAF
S11306101B7A002BFBD001380028F2DC7047C0465F
S11306201814004000140040F8B5D646474680B57B
S11306300223002209214548454FB847454B9A46B5
S11306401A881B681B041B0C43490B4343488362F1
S1130650434E348833681B041B0C0B438362414BA9
S113066098461D881B681B041B0C0B43836203699B
S113067022432A431A4302610223002209213A48F1
S1130680B8470223002209213848B8470223002230
S113069009213748B8470223002209213548B847C1
S11306A00223002209213448B847022300220921E9
S11306B03248B847324C0223002209212000B847AF
S11306C0304D0223002209212800B84702230022CA
S11306D009212D48B84700212B482C4FB847002149
S11306E01A48B84701212048B84701211F48B84794
S11306F001211F48B84700211E48B84701211E4860
S1130700B84700211D48B847214B19782800B8473D
S113071000212000B84750461E4CA0471E4D2870AB
S11307203000A0471D4E30704046A0471C4B187047
S1130730327852002B7813435BB280001843194B74
S113074018700CBC90469A46F8BDC0465807002065
S11307500D030000AC0500200000064000440041E9
S1130760980500204C060020740600204407002051
S1130770C405002028050020080600206405002088
S1130780F0050020B80600201C0600202D03000000
S113079030060020590300008005002014070020C3
S11307A004060020CC06002070B53B4B1B699B0659
S11307B003D4394B1B69DB064DD5384B196A384BCA
S11307C01B680B405A1E9341DBB2364A12680A403A
S11307D0511E8A4134492D24085D2E2548555B005D
S11307E0D3180B55314D2C78314A1470314A0024FA
S11307F014572C70304E00257557157080001B1847
S11308002E489B00C25632700B6BD3180B632C49D5
S11308100B6801330B604023C35C002B07D0224BD1
S11308205B6B322B03DD631C16D0012C2AD04123D1
S1130830224AD35C002B09D1214B1A681F4B5B6CF5
S11308409A4203DB01213923174AD154124A13690E
S113085030210B43136170BD6B1CE6D1531CE4D1F2
S1130860184B1B78002BE0D038230F4AD35C002BA5
S1130870DDD101211448154B9847012138230A4A38
S1130880D154D4E7012DD2D1012AD0D10D4B1B78FC
S1130890002BCCD1E8E7C0460018004000440041DA
S11308A05005002060060020A0040020400700201E
S11308B0D8050020E4060020C20500200000002026
S11308C08C06002030060020380600202D0300008E
S11308D010B51D4A93694020034393611B4A1C4B86
S11308E05A801C4B1B681B041B0C1B4A13431B49DB
S11308F08B621B4B1B681B041B0C13438B62194B31
S113090059683024214359609A69BB210904114371
S11309109961DA682243DA60197802221143C9B274
S11309201970114BC32189005A58CF34A2435A502D
S113093008395A58A24302435A50802252011A607D
S113094010221A6062B610BD000400400540000089
S1130950000C0040600600200000035000440041E9
S1130960500500200018004000E100E070B5344A52
S11309700023536333490B7033490B7033490B70B5
S11309803821535410E0324D4824295D3148324B0C
S113099098472B5D012253402B5564202F4B9847D9
S11309A0274A536B013353633823254AD35C002B06
S11309B0E9D06420294B984700212948264EB047A6
S11309C01F4D00246C632C63264B1C60EC631D4B91
S11309D01C701D4B1C701D4B1C70234B197801227D
S11309E05140C9B219702148B0473823EC5413E080
S11309F0174D4824295D1748174B98472B5D012252
S1130A0053402B556420154B98470D4BDA6B01323C
S1130A10DA635A6B01325A633823094AD35C002BD8
S1130A20E6D0126B0F4B1A6064200C4B98470021E0
S1130A300B48094B984700214023054AD15470BD07
S1130A40A0040020C2050020E40600204007002086
S1130A5000000020F00500202D0300000106000026
S1130A6038060020E806002030060020B8060020E2
S1130A7070B5504B9847504B9847504B9847504B44
S1130A809847504B9847504B9847504B1878504BC9
S1130A909847504DE86B504B9847504EF16C504B73
S1130AA09847504B9847504B186000244F4B1C708C
S1130AB04F4B1C704F4B1C706C634F4B1C700021D0
S1130AC04E484F4B984701224123F254093BEC54C2
S1130AD0404CE06B404B9847051C4A4B9847011C1F
S1130AE0281C3F4B98473F4B98473F4B1860226C5C
S1130AF01B689A4233D038233649CB5C002BE7D1AC
S1130B0041333649CB5C002BE2D0374B1B689A4209
S1130B102ADB304B1A6C344B1B689A4236DC2D4A64
S1130B20536B013353632D4D4824295D3648344BB0
S1130B3098472B5D012253402B553C20334B98475B
S1130B402D4B1B78002B03D022490A6C013A0A640E
S1130B50002BBDD11F4A136C01331364B8E7002086
S1130B6041231E49C854C6E700212448244B984712
S1130B700023184A53631D4A13701D4A13701D4AFB
S1130B801370234A13701C4A1370C2E701211B48D7
S1130B901B4B984700230F4A5363144A1370144A9B
S1130BA01370144A13701A4A13700122124B1A70EC
S1130BB0B5E7C0463D05000075030000B905000017
S1130BC0D1080000290600006D090000CC060020B1
S1130BD0990D0000A00400203D1200000000002038
S1130BE0BD0F0000FD11000034060020C2050020E6
S1130BF0E40600204007002030060020B80600204C
S1130C002D030000210E0000F00500200106000065
S1130C10D805002070B55D4B1D682B7EDAB25BB23F
S1130C20002B46DB0123134226D1022313420CD0AE
S1130C30698B574C090730D40323A3770023012180
S1130C402362544B197002232B76530713D5504C4F
S1130C50A37F022B54D028230621ED5C206A00F0E8
S1130C60A7F92300627FEDB21733002A60D05D54E8
S1130C70236A0133236270BD46490978002909D0EB
S1130C80434CA17F03295AD0A17F022900D1E377E5
S1130C900123A37701232B76C7E7A3776378002B7F
S1130CA0CCD00121E37B4B40E37300236370A3703A
S1130CB0C4E7374CA37F002B18D0A37F032B0BD0A2
S1130CC0A37F022B10D1A36A0133A362636A0133A9
S1130CD063620123E37707E00023E377236B0133A7
S1130CE02363E36A0133E3620123A3770021294BE1
S1130CF0197080232B76D30797D501232B7694E79D
S1130D00236A002B03D06B8B00225B070DD40621D2
S1130D10206A00F04DF9E27BE31C002A01D1230094
S1130D2009335A5C236A013323622823EA54A2E775
S1130D30230011335D54236A013323629BE7236A42
S1130D40052B1AD92100607F1731002801D1210019
S1130D5011318E784B787340CE7873400E7973409E
S1130D600E7849797340DB43DBB2994205D1012304
S1130D70584001236077237402E0236B013323631B
S1130D80E36A0133E3620023E37781E75400002040
S1130D90F004002050000020164B703010B5C4B28F
S1130DA01C7000F075F82021134A6400136A0B4389
S1130DB01362124B124A5A80124B134A9A62134A14
S1130DC09A62134B1A6810231360F0335360546211
S1130DD0D3699B07FCD4022113680B431360872358
S1130DE093750C4B0C4A1A6080220C4B52011A600A
S1130DF010BDC046F004002000040040000C004078
S1130E001740000000440041400001D2800001D29C
S1130E105400002024050020150C000000E100E02F
S1130E2010B5184B1A7C002A02D1174B186810BD54
S1130E3080208022154940018850BFF34F8FBFF3B3
S1130E406F8F002219001A745A7F1131002A16D0AC
S1130E504B7808788A781B020343120413438022D8
S1130E60C878520100061843084B1A6000F036FA9D
S1130E70BE21890500F0A2F8034B1860D7E71733A9
S1130E801900E5E7F0040020E804002000E100E098
S1130E907047C04610B5024B1B68984710BDC0464A
S1130EA024050020002243088B4274D303098B429B
S1130EB05FD3030A8B4244D3030B8B4228D3030C26
S1130EC08B420DD3FF22090212BA030C8B4202D3C8
S1130ED01212090265D0030B8B4219D300E0090AF0
S1130EE0C30B8B4201D3CB03C01A5241830B8B42F9
S1130EF001D38B03C01A5241430B8B4201D34B03E2
S1130F00C01A5241030B8B4201D30B03C01A524146
S1130F10C30A8B4201D3CB02C01A5241830A8B42CB
S1130F2001D38B02C01A5241430A8B4201D34B02B4
S1130F30C01A5241030A8B4201D30B02C01A524118
S1130F40CDD2C3098B4201D3CB01C01A52418309CC
S1130F508B4201D38B01C01A524143098B4201D306
S1130F604B01C01A524103098B4201D30B01C01A31
S1130F705241C3088B4201D3CB00C01A52418308AB
S1130F808B4201D38B00C01A524143088B4201D3D8
S1130F904B00C01A5241411A00D201465241104638
S1130FA07047FFE701B5002000F006F802BDC04617
S1130FB00029F7D076E770477047C046F8B5574622
S1130FC04E464546DE46E0B54702460088467F0A5F
S1130FD0360EC40F002E47D0FF2E24D0FB008027EE
S1130FE0FF041F43002399469A467F3E43465D0211
S1130FF05800DB0F6D0A000E984643D0FF283BD003
S1131000EB0080250022ED041D437F383618731C45
S113101041469B464B46614013430F2B64D87548A9
S11310209B00C3589F46002F42D108239946063B94
S1131030FF269A46DAE74146022A28D0032A00D13D
S1131040CEE0012A00D0ACE0114000200022CCB256
S11310504002D205400AE407104320433CBC9046BA
S11310609946A246AB46F8BD002F15D104239946F4
S1131070033B00269A46B9E7FF200222002DC5D083
S11310800322C3E7002D19D100200122BEE7012469
S1131090FF220C400020DBE7380000F065F97626DB
S11310A0431F9F4000237642361A99469A469DE78D
S11310B00C239946093BFF269A4697E7280000F03F
S11310C053F9431F9D4076235B42181A00229DE783
S11310D080200024C003FF22BAE73D005246ABE75C
S11310E03D0021005246A7E73B0C9C462A04120C03
S11310F02B0C1400604665463F043F0C7C4342437E
S11311005D437B43270C9B18FF18BA4203D9802305
S11311105B029C46654424043A04240C121993018E
S11311205C1EA3413F0C920E7D191A43AD01154379
S11311302B0104D501235E466A081D401543320085
S11311407F32002A25DD6B0704D00F232B40042BAC
S113115000D004352B0103D53200274B80321D40CB
S1131160FE2A94DC0124A801400AD2B20C406FE7A5
S11311708020C003074207D0054205D1284340021E
S1131180400A4446FF2263E738434002400AFF22F4
S11311905EE70124A31A1B2B05DD0C40002200206E
S11311A056E75E46CBE72A002020DA40C31A9D406A
S11311B02B005D1EAB4113435A0704D00F221A4083
S11311C0042A00D004335A0104D5012401220C401E
S11311D000203DE701249B01580A0C40002237E718
S11311E080200124C00328434002400A0C40FF220F
S11311F02EE7C04644150000FFFFFFF741024300FD
S1131200C20F490A1B0E00207E2B0DDD9D2B0CDC2A
S1131210802000040143952B0ADC9620C31AD94090
S11312204842002A00D108007047034BD018FBE75E
S1131230963B9940F4E7C046FFFFFF7F70B5002856
S113124030D0C317C4185C40C50F200000F08CF8E0
S11312509E231B1A962B0DDC9622D21A94402A0048
S11312606402640ADBB26402DB05600AD207184335
S1131270104370BD992B19DC9922D21A002A29DD5A
S113128094402200144C1440510704D00F210A400A
S1131290042A00D00434620113D4A401640ADBB22A
S11312A02A00E0E7002200230024DCE705222100D5
S11312B0121AD140B922D21A9440621E94410C43AE
S11312C0DAE7054B2A001C409F23A4011B1A640A79
S11312D0DBB2C8E72200D5E7FFFFFFFB10B5041E11
S11312E027D000F041F89E231B1A962B0ADC962285
S11312F0D21A94406402640ADBB26402DB05600A19
S1131300184310BD992B17DC9922D21A002A27DD25
S113131094402200134C1440510704D00F210A407A
S1131320042A00D00434620112D4A401640ADBB29A
S1131330E3E700230024E0E7B9222100D21A914018
S11313400A00511E8A410521091ACC401443DBE7E7
S1131350044B1C409F23A4011B1A640ADBB2CCE794
S11313602200D7E7FFFFFFFB1C2101231B04984247
S113137001D3000C10391B0A984201D3000A083922
S11313801B09984201D30009043902A2105C4018D9
S11313907047C0460403020201010101000000007D
S11313A00000000070B50D4E0D4D0024AD1BAD10B6
S11313B005D0A300F35801349847A542F9D100F0B1
S11313C0E3F8084E084D0024AD1BAD1005D0A30072
S11313D0F35801349847A542F9D170BD9415000023
S11313E094150000941500009C150000034B10B5E3
S11313F0002B02D0024800F005F810BD00000000E8
S11314001514000010B5010000230022002000F094
S11314101FF810BD70B5094B094CE41AA41009D08B
S1131420084AA518AD00ED182B68013C9847043D07
S1131430002CF9D100F0B2F870BDC046A815000028
S1131440AC150000FFFFFF3F7047C0467047C04621
S1131450F0B54E464546DE465746E0B5364D83B0B8
S11314600600286898460F009146FFF7EDFF334BBE
S11314701C68A4235B00E058002852D043681F2B4B
S113148013DC5A1C0192002E28D1019A02339B00CE
S113149042601F502868FFF7D9FF002003B03CBC0E
S11314A090469946A246AB46F0BD254B002B3DD055
S11314B0C820400000E000BF002837D0A422002349
S11314C05200A15843600160A0504032835004325E
S11314D08350013301930023002ED6D09A00924604
S11314E082444A46882154466250C422520091469E
S11314F081444A468739994012688B460A43944688
S11315004A4661461160842241465200A150022E8F
S1131510BBD102005C468D32FF3211680C4314606B
S1131520B3E720004D30FF30E050A7E72868FFF70D
S11315308DFF01204042B1E78004002084150000A3
S113154000000000E810000038100000381000000F
S113155036100000DA100000DA100000D01000008D
S113156036100000DA100000D0100000DA1000007D
S113157036100000E0100000E0100000E010000051
S11315807011000058000020F8B5C046F8BC08BC33
S11315909E467047ED130000DD000000F8B5C0461C
S10F15A0F8BC08BC9E467047B500000073
S11315AC00000000FFFFFFFF01000000000000002E
S11315BC010000000000000000000000FFFFFFFF1E
S11315CCFFFFFFFF0000000000000000010000000E
S11315DC0000000001000000FFFFFFFF00000000FE
S11315EC01010000D0070000010000000000003FD2
S11315FC010000000014004200000000440300201D
S113160CAC030020140400200000000000000000C3
S113161C00000000000000000000000000000000BA
S113162C00000000000000000000000000000000AA
S113163C000000000000000000000000000000009A
S113164C000000000000000000000000000000008A
S113165C000000000000000000000000000000007A
S113166C000000000000000000000000000000006A
S113167C000000000000000000000000000000005A
S113168C000000000000000000000000000000004A
S113169C000000000000000000000000000000003A
S11316AC01000000000000000E33CDAB34126DE6D7
S11316BCECDE05000B000000000000000000000040
S11316CC000000000000000000000000000000000A
S11316DC00000000000000000000000000000000FA
S11316EC00000000000000000000000000000000EA
S11316FC00000000000000000000000000000000DA
S1071A2C800700200B
S9030000FC
